:020000040000FA
:10000000E8330020D9040000E1040000F9020000F8
:10001000E5040000E7040000E9040000000000001F
:10002000000000000000000000000000EB040000E1
:10003000ED04000000000000EF040000F1040000E7
:100040009D0F0000F304000099110000F30400006C
:10005000F3040000F3040000DD0C0000F3040000D2
:10006000F3040000F3040000F3040000F3040000B4
:10007000F3040000F3040000F3040000F3040000A4
:10008000F3040000AD0F0000F3040000F3040000CF
:10009000F3040000F3040000F3040000F304000084
:1000A000F3040000F3040000F3040000F304000074
:1000B000F3040000F3040000000000000000000052
:1000C000F3040000F3040000F3040000F304000054
:1000D000F3040000F3040000F3040000A511000085
:1000E000F3040000F3040000F3040000000000002B
:1000F00000000000F304000000000000F304000012
:1001000000000000000000000000000000000000EF
:1001100000000000000000000000000000000000DF
:1001200000000000000000000000000000000000CF
:1001300000000000000000000000000000000000BF
:1001400000000000000000000000000000000000AF
:10015000000000000000000000000000000000009F
:10016000000000000000000000000000000000008F
:10017000000000000000000000000000000000007F
:10018000000000000000000000000000000000006F
:10019000000000000000000000000000000000005F
:1001A000000000000000000000000000000000004F
:1001B000000000000000000000000000000000003F
:1001C000000000000000000000000000000000002F
:1001D000000000000000000000000000000000001F
:1001E000000000000000000000000000000000000F
:1001F00000000000000000000000000000000000FF
:10020000DFF80CD000F096FB00480047B560000016
:10021000E833002030B4044654E8000F0D4644E8AB
:100220000053002BF8D1156030BC704730B4044641
:1002300054E8000F40EA010544E80053002BF7D1D1
:10024000156030BC704730B4044654E8000F00EA33
:10025000010544E80053002BF7D1156030BC70470E
:1002600030B4044654E8000F80EA010544E8005326
:10027000002BF7D1156030BC704730B4044654E809
:10028000000F00EB010544E80053002BF7D1156087
:1002900030BC704730B4044654E8000FA0EB0105B1
:1002A00044E80053002BF7D1156030BC704770B4A0
:1002B00004464FF0000054E8006F0D68AE4207BFDF
:1002C00044E80023012044E800630E60002B1CBFBB
:1002D0000020F0E770BC704730B4044654E8000FCB
:1002E00088422CBF451A054644E80053002BF5D13F
:1002F000156030BC70470000094B1EF0040F1CBF96
:10030000EFF309801847EFF308800649064A884250
:1003100001D8904202D88D464FF0000018470000E7
:10032000810D0000E8330020E813002030B450E8CD
:10033000012F93B2C48923448489A34228BF1B1B85
:100340000489A34202BFBFF32F8F002007E0C3EA56
:10035000020340E80134002CE9D14FF001000A60AB
:1003600030BC704750E8012FC2EA024240E8012148
:100370000029F7D1704730B450E8022F1FFAA2F3DA
:10038000C488A34202BFBFF32F8F00200DE0C489B1
:1003900023448489A34228BF1B1BC2EA034340E8CD
:1003A0000234002CE8D14FF001000A6030BC7047E5
:1003B00050E8022FC2EA224240E802210029F7D188
:1003C0007047034653E8022FD988B2EB324F4FF003
:1003D000000017BF92B241EA014142EA014104E044
:1003E0005A68B2EB324F08BF012043E80212002ADC
:1003F000E8D1704730B4044654E8000F0D4644E895
:100400000053002BF8D1156030BC704730B404465F
:1004100054E8000F40EA010544E80053002BF7D1EF
:10042000156030BC704730B4044654E8000F00EA51
:10043000010544E80053002BF7D1156030BC70472C
:1004400030B4044654E8000F80EA010544E8005344
:10045000002BF7D1156030BC704730B4044654E827
:10046000000F00EB010544E80053002BF7D11560A5
:1004700030BC704730B4044654E8000FA0EB0105CF
:1004800044E80053002BF7D1156030BC704770B4BE
:1004900004464FF0000054E8006F0D68AE4207BFFD
:1004A00044E80023012044E800630E60002B1CBFD9
:1004B0000020F0E770BC704730B4044654E8000FE9
:1004C00088422CBF451A054644E80053002BF5D15D
:1004D000156030BC7047000006488047064800475A
:1004E000FEE7FEE7FEE7FEE7FEE7FEE7FEE7FEE7E4
:1004F000FEE7FEE7BD0F0000010200002DE9F05FFE
:100500000546002092469B46884606468146402482
:100510001BE0284641464746224600F0B9F95346BB
:100520005A46C01A914110D311461846224600F08F
:1005300016F82D1A67EB01084F46224601200021CC
:1005400000F00DF817EB00094E41201EA4F1010444
:10055000DFDC484631462A464346BDE8F09F202A64
:1005600004DB203A00FA02F1002070479140C2F10A
:10057000200320FA03F31943904070470048704766
:1005800080BC000010B50446FFF7F8FF0068005D6E
:1005900000F0010010BD2DE9FE439946154688463E
:1005A000074601AC022942D3002D40D00020029022
:1005B000A8F101004FF0FF36009022E000FB057229
:1005C00001FB057011464A469047002805DC54F8A7
:1005D0002600304444F8260013E060682A4600FBF9
:1005E000057154F8040C00FB057007E00B7890F8D7
:1005F00000C001F801CB00F8013B521E002AF5D1E2
:10060000764254F8040C61688842D7DC4B462A468F
:100610003846FFF7C0FF54F8040C4B46A8EB000126
:10062000401C00FB05702A46491EFFF7B4FFBDE8D9
:10063000FE8310B5431A934209D28318881803E049
:1006400010F8011D03F8011D521EF9D210BD40EA39
:1006500001039B0703D009E008C9121F08C0042A40
:10066000FAD203E011F8013B00F8013B521EF9D227
:1006700010BDD2B201E000F8012B491EFBD2704739
:100680000022F6E710B513460A4604461946FFF75E
:10069000F0FF204610BD421C10F8011B0029FBD1C1
:1006A000801A704710B5002200E0521C835C8C5CFD
:1006B000A34201D1002BF8D1D8B2E1B2401A10BD4B
:1006C00030B504460020034600E05B1C934203D291
:1006D000E05CCD5C401BF8D030BD034611F8012B27
:1006E00000F8012B002AF9D11846704730B50546AD
:1006F0000020034600E05B1C934205D2EC5CC85C22
:10070000201A01D1002CF6D130BD00000FB400B585
:100710008DB010A909900B9000914FF0FF300A9016
:1007200000200C9005480690054807906A4609A8E5
:100730000F9900F0D1F80DB05DF814FBF50800003A
:10074000130900002DE9FF5F1D464FF0FF3BD5E97F
:10075000014691465F464FF00008A9697F1C019849
:100760008847296A824688470028F6D1BAF1FF3FB8
:100770000CD024F4C064002E19DD600614D5BAF143
:100780002B0F09D0BAF12D0F0ED103E0584604B05B
:10079000BDE8F09F44F48064A9697F1C01988847F4
:1007A000761E8246002E02DDBAF1300F03D0B9F179
:1007B000000F26D032E0A969761E44F400747F1C35
:1007C000019888478246002E05DDBAF1780F06D0E1
:1007D000BAF1580F03D0B9F1000F10D01EE0B9F1F3
:1007E000000F02D0B9F1100F18D1A969761E24F4B8
:1007F00000747F1C019888478246102002E0082080
:1008000000E00A20814609E008FB0908A969761E74
:1008100044F400747F1C019888478246002E05DD51
:100820004946504600F044F80028EDDAE96901989D
:100830008847A00502D46FF00100A8E7E00725D1A2
:10084000600613D5600502D5C8F1000000E04046FF
:1008500029680A1D2A600968220501D5087015E07B
:10086000220701D5088011E008600FE02868011D0B
:1008700029600068210502D580F8008006E0210784
:1008800002D5A0F8008001E0C0F8008038467EE77D
:10089000202A04DB203A21FA02F00021704721FAD5
:1008A00002F3D040C2F1200291400843194670473C
:1008B0003A2800D2303820F02002412A01D3A2F198
:1008C0003700884201D34FF0FF307047026811446F
:1008D0001378016018467047D1600449516104499A
:1008E000116200211161114600F036B8CD080000F8
:1008F00085050000426842B1016811F8013B23B14F
:10090000521EC0E90012184670470121C160881EBE
:10091000704742685AB1C368016843B983688B4223
:1009200005D0491E521CC0E90012002070474FF04C
:10093000FF307047064C074D06E0E06840F00103C9
:1009400094E8070098471034AC42F6D3FFF75CFCFC
:100950003CCB00005CCB00002DE9F34F8BB04FF097
:10096000000801F10C000C464FF0010B46460DF15A
:10097000080A01906269012101989047051E2DD057
:10098000252D2CD0216A8847C0B1626901210198C8
:100990009047216A88470028F7D1411E6269019873
:1009A000904700E0761CA1690B988847216A884728
:1009B0000028F7D1E1690B988847DBE7A1690B981C
:1009C00088470746A84201D1761CD3E7E1690B9816
:1009D00088477F1C02D1B8F1000F6FD046E1002795
:1009E00062693D463946019890472A2804D16269D8
:1009F0000121019890470125DFF884926269012165
:100A000001989047A0F130010A290AD24F45E5DC50
:100A100007EB870100EB4107303FDFD445F01005BD
:100A2000ECE7E90601D46FF000476C280AD04C28A7
:100A300014D0682815D06A280DD074281CD07A28C4
:100A40001AD01DE062690121019890476C2802D0FC
:100A500045F0040514E045F002050DE045F02005E1
:100A60000AE06269012101989047682802D045F0A8
:100A7000080505E045F40065626901210198904789
:100A8000C4E9015765283DD019DC58287AD00CDC20
:100A9000452837D004DC252826D0412831D131E043
:100AA00046282FD047282CD12CE05B2877D061280E
:100AB00028D063287CD0642823D15AE0D0E06F2866
:100AC00048D008DC66281DD067281BD0692821D0B3
:100AD0006E2816D127E0702845D0732868D0752875
:100AE00047D078280DD14DE0A1690B98884705467D
:100AF00025283FF469AFE1690B9888476D1C3FF4E6
:100B00006AAFB3E023466A466FF001000B99AFF37A
:100B100000809EE045F040006060A80723464FF04B
:100B2000000236D43EE0E8077FF447AF2068011D9D
:100B300021600068290501D506701BE7290701D54A
:100B4000068017E7A90703D5F117C0E9006111E78F
:100B500006600FE745F040006060A80723464FF0AD
:100B6000080216D41EE040F60E0125EA010060607E
:100B700016E045F040006060A80723464FF00A02E7
:100B800007D40FE045F040006060A80708D5234671
:100B900010226FF001000B99AFF3008059E007E0DD
:100BA000234610226FF001000B99FFF7CBFD50E0B8
:100BB0004FF000094F464B46632802D05B2806D011
:100BC00040E0E80601D40120A06001273AE0626914
:100BD0000121019890475E2805D14FF00109626913
:100BE000494601989047216939B900210A46534680
:100BF00043F82120491C0829FADBB0B3216969B9FF
:100C0000C11700EBD16253110AEB830122F01F02DE
:100C1000821A01200B68904003430B606269012136
:100C2000019890475D28E8D1B9F1000F09D0002064
:100C3000514651F82020D24341F82020401C08287A
:100C4000F7DB02AB224600976FF001000B99AFF380
:100C5000008000280CDA401C08D1BBF1000F05D041
:100C60004FF0FF300DB0BDE8F08FFFE74046F9E7E9
:100C7000E90701D108F1010806444FF0000B79E6BD
:100C8000CCCCCC0C70B58C1810F8015B15F00703B8
:100C900001D110F8013B2A1106D110F8012B03E015
:100CA00010F8016B01F8016B5B1EF9D12B0705D41D
:100CB0000023521E0DD401F8013BFAE710F8013B66
:100CC000CB1A921C03E013F8015B01F8015B521E82
:100CD000F9D5A142D8D3002070BD00002DE9FC4118
:100CE0000025DFF8948000954FF4807601242F468C
:100CF0000195304606F050FD38B1D8F80403204283
:100D000003D0304606F03EFD2543361D64007F1CAF
:100D1000B6B2082FEDD34FF4BE74204606F03CFD6A
:100D200048B1204606F02EFD45F000456A460221F6
:100D3000002006F08FFC15F0FF0F16D001260024CE
:100D40002E420ED008EB8401D1F81005D1F8101511
:100D5000C0F30520094AC1F3014152F8242002B131
:100D600090477600641C082CEAD3002D02DA68460E
:100D700008F028FFBDE8FC8100600040BC080020AE
:100D80001CB5824607F098F806F032FE0028FBD129
:100D900036485FEA0A05076836483749344EA0EB03
:100DA00001004FEAD0004FF0010808EB00447088C2
:100DB0001ED0002821D0204630A1AA6906F056FF97
:100DC0007088002819D0D5E90201CDE90001D5E9E4
:100DD000002320462FA106F059FF708868B1E8690A
:100DE0000090D5E90423204638A106F046FF04E030
:100DF00018B120463FA106F035FF1C48001D0068D1
:100E0000800705D5708818B12046474906F02AFFAB
:100E1000DFF81891002500BF08FA05F0384208D025
:100E200059F825202AB1708818B1204640A106F053
:100E30001DFF6D1C1A2DEFD3380608D5708830B110
:100E40000A480C30026820463CA106F00FFF380427
:100E500008D5708830B105481030026820463FA19F
:100E600006F004FF504600F087F8000028ED00E08F
:100E7000EC0300206CCC0000BCCB00004841524485
:100E8000204641554C542061742030782530385824
:100E900000000000202052303A20203078253038E1
:100EA00058202052313A20203078253038582020E0
:100EB00052323A2020307825303858202052333AA8
:100EC0002020307825303858000000002020523192
:100ED000323A2030782530385820204C523A2020A1
:100EE00030782530385820205053523A2030782519
:100EF00030385800537461636B2076696F6C61748D
:100F0000696F6E3A20737461636B20706F696E74E1
:100F10006572206F75747369646520737461636BA7
:100F200020617265612E0000A0BD000068020020F3
:100F300043617573653A2025732E00004D656D4D34
:100F4000616E616765204661756C742041646472EE
:100F50006573733A20307825303858004275732015
:100F60004661756C7420416464726573733A203015
:100F70007825303858000000BFF34F8F05480168CE
:100F8000054A01F4E06111430160BFF34F8F00BFD8
:100F9000FDE700000CED00E00400FA0510B507F0D5
:100FA000ADFDBDE8104007F035BC00000249024825
:100FB000091F0968006808476002002030B54FF03B
:100FC00080520023D2E94C10082906D1CC06C4F87F
:100FD0000C31C4F81031624C2360082955D1614BA3
:100FE0001B68614C23605F4B1B1D1B68241D236025
:100FF0005C4B08331B68241D23605A4B0C331B6861
:10100000241D2360574B10331B68241D2360554B50
:1010100014331B68241D2360524B18331B68524C39
:10102000203423604F4B1C331B68241D23604D4B21
:1010300020331B68241D23604A4B24331B68241D66
:101040002360484B28331B68241D2360454B2C33F9
:101050001B68241D2360434B30331B68424C4034D3
:101060002360404B34331B68241D23603D4B3833D1
:101070001B68241D23603B4B3C331B68241D2360ED
:10108000384B40331B68241D2360082904D103001A
:1010900002D1374C354B2360082904D1030002D11B
:1010A000344CFB232360082908D1030006D1324BBE
:1010B00092F858521C6865F303041C60082904D197
:1010C000030002D12D4C8B012360082906D12C4846
:1010D0000168C90702D06FF0010101602948016869
:1010E00041F470010160BFF34F8FBFF36F8FD2E9FE
:1010F0004C104FF01022082906D1032804D9D2F849
:101100000802174920310860D2F80002002803DBEA
:10111000D2F8040200281FDA012008F0D9FC1221BD
:10112000C2F8001218480368002BFCD0C2F8041261
:1011300001680029FCD0002008F0CAFCBFF34F8FE3
:1011400010487C380168114A01F4E06111430160E4
:10115000BFF34F8F00BFFDE70E490D48086030BD5B
:10116000380500400404001020C5004048810300F9
:101170008C56004018F50040E40E004040960240B6
:101180000004004088ED00E000E401400400FA059E
:101190000090D00370030020014800680047000061
:1011A000500100202DE9F0411A48D0F804530026E0
:1011B00001240FE095FAA5F0B0FA80F7B80000F529
:1011C000807007F097FA10B104FA07F0064304FAAA
:1011D00007F08543002DEDD1C6F3C05726F4000576
:1011E000DFF834800AE000BF95FAA5F0B0FA80F687
:1011F00058F82600804704FA06F08543002DF3D105
:1012000009F0DCFD002F03D0BDE8F04103F08EB9FA
:10121000BDE8F08100700240CCB50000C11700EBC2
:10122000D161074B4A1153F8222021F01F01411AC6
:1012300001208840024201D0012070470020704701
:1012400000E100E002E008C8121F08C1002AFAD13C
:1012500070477047002001E001C1121F002AFBD136
:101260007047022001F0ACBA70B50024064D06E0CC
:101270006868012110F8340007F010FB641C28781E
:101280008442F5D3002070BD68010020F8B51646F1
:101290000C4605460A2A01D20720F8BD07F0F6FBE6
:1012A00018B907F0B7FB0028F7D1134F20211348D6
:1012B0007D603C70BE60FFF7E3F90020C7E90400E1
:1012C0000F4E0DE005EBC4003168009181788DF878
:1012D000011000780B4A694607F02CFB0028DCD18E
:1012E000641EE4B2EED2BDE8F84005480021064A8B
:1012F000001D00F067B8000068010020B00B00205E
:1013000068B60000D54800006540000072B606F0DF
:10131000D3FD00BF06F06CFB0028FBD1144D15492E
:1013200015486A88081AC4082AB1012000EB044055
:1013300012A106F097FC14480068C00700D000BE58
:101340006888022805D3022000EB04400FA106F0B4
:1013500089FCBFF34F8F0C48E43801680F4A01F451
:10136000E06111430160BFF34F8F00BFFDE7000054
:101370000004002094CC0000BCCB000046617461E6
:101380006C206572726F7200F0ED00E05379737437
:10139000656D207265736574000000000400FA0535
:1013A0000EB500210091CDE901106A4644F201001A
:1013B000FFF7ACFF0EBD0000014802F0BABE00000E
:1013C000A801002010B55AB100684FF0FF34012980
:1013D0004261C0E9024400D000210161002010BD3B
:1013E000072010BD38B511480823582241680091E4
:1013F0000F49006805F028F8002815D10D4A694604
:101400000D4802F09BFE04000ED101210A4802F0B3
:101410001AFF0123094A1946074802F062FE0649ED
:10142000012008390870204638BD000070B6000061
:10143000D00B0020A99D0000A8010020FFFF7F0025
:1014400070B5044616460D46002001F0D7F8D4E9E1
:101450000201C04370EA010004D0002001F0D0F87E
:10146000002070BD03F01CFA401941F10001C4E9ED
:101470000201002001F0C4F8A661206900B12561D5
:101480002146BDE87040002009F092B910B504462D
:10149000002001F0B3F8D4E90201C04370EA010072
:1014A0000CD04FF0FF30C4E90200002001F0A8F892
:1014B0002146BDE81040012009F07AB9002001F072
:1014C0009FF8002010BD000070B50546054804696E
:1014D00005E02946204601F0B1FD20680468002C93
:1014E000F7D170BDEC01002070B5094804690CE02B
:1014F000267A002505E02946204600F0EAFE6D1C0C
:10150000EDB2B542F7D320680468002CF0D170BD6D
:10151000EC01002070B50A4804690DE0267A002528
:1015200006E000222946204600F012FF6D1CEDB2B5
:10153000B542F6D320680468002CEFD170BD0000DE
:10154000EC01002070B50849054606200C6907E04B
:101550002946204601F072FD062803D121680C6857
:10156000002CF5D170BD0000EC010020F8B5044658
:1015700000250FE0002705E0007800F0BDFA08B173
:101580001120F8BD3946781CC7B2304600F09CF8EF
:101590000028F1D12946681CC5B2204600F0AFF8FA
:1015A0000600E7D100250DE0002703E00078214682
:1015B00000F0A7FA3946781CC7B2304600F084F82C
:1015C0000028F3D12946681CC5B2204600F097F8E0
:1015D0000600E9D1074800E0086801680029FBD14E
:1015E000046005486946806900906068026820468A
:1015F0009047F8BDFC01002084B600002DE9F04FB3
:1016000087B04FF000081D46934689460446DDF832
:1016100040A04646CDF80C8000E0761C60680123AF
:1016200000224768214603A8B8470028F5D1404664
:101630008DF800800027B84601903BE060680123E8
:101640006A46D0F804C0214601A8E047606801233B
:1016500005AAD0F804C0214601A8E0479DF814105F
:1016600049451AD1D84514D19DF80000CAF80000A8
:1016700005F8010B6A1C85F8009060689DF8003041
:101680002146456801A89B1EA847002007B0BDE879
:10169000F08F08F1010000F0FF0860689DF800304D
:1016A0000022D0F804C0214601A89B1EE0479DF807
:1016B00000000744B742C1D30520E7E701480069AD
:1016C00070470000EC01002042788A4201D80020D7
:1016D0007047827810440844704742788A4201D8A3
:1016E00000207047827810440844704742788A424C
:1016F00001D8002070478278104408447047027A6D
:101700008A4201D80020704701EB410109300844AA
:101710007047027A8A4201D80020704701EB4101EC
:10172000093008447047027A8A4201D80020704785
:1017300001EB41010930084470470000024840783D
:10174000002800D001207047EC01002002484178B9
:10175000491C417000207047EC010020024841788C
:10176000491E417000207047EC010020084901E04B
:101770000968091D09680029FAD10549091F01E016
:101780001168091D0A68002AFAD108600020704714
:101790000402002009490BE0824207D10268526826
:1017A0000A60006800214160084670471168091D01
:1017B0000A68002AF0D105207047000000020020CE
:1017C00010B500210A464FF400634418227200EB62
:1017D0008104491CC9B263610429F6D380F8292029
:1017E00080F8282010BD10B5002000F05DF9BDE89C
:1017F0001040802000F058B910B5002000F056F9D4
:10180000BDE81040802000F051B9000070B50D46D1
:101810000146287806240B2813D007DC07284CD271
:10182000DFE800F04B0D0F114B2739000C2825D0B5
:101830000D2825D00E282CD085283ED110E003207D
:1018400014E0002439E0244804F040FE0028F8D0D9
:10185000224801210160BFF36F8FBFF34F8FF0E784
:101860001D48001F0078032827D1042009F00AFA38
:1018700023E0084600F058F804461EE0002005E08A
:101880001748006810F0010F03D0022009F0FAF9A0
:10189000D7E70120FAE7EB78032B0ED00E48001DA6
:1018A00002683AB10021016041681846904704007F
:1018B00005D000E00E2408F037F8204670BD09F08E
:1018C000D9F928B1A8780028F7D108F002F8F4E790
:1018D00007F0FCFFF1E70000140200205C700240FA
:1018E0003804004002494978C14001F001007047C6
:1018F00010020020024A0146D2E90002104700000F
:10190000780D002070B50C46054607F0D9FFA842B7
:1019100001D0102070BD0348D4E90012C0E90212C2
:10192000002070BD100200207FB5054605208DF80F
:10193000000006240DF1010007F0CEFF09F09AF92E
:101940002949002008609DF8010010F01F0006D012
:1019500001280FD0022826D0032833D106E069469B
:10196000284608F0DDFB044606282AD16846FFF722
:10197000E9FD25E09DF8050003A900F0C7FC05007E
:1019800008D06A469DF80C1000F09FFC044606281B
:1019900002D016E0102415E06A469DF80C10284687
:1019A00008F0C6FC0CE09DF80500010705D069466B
:1019B00000F058F80446062803D1684608F02EFCCB
:1019C000044624B107F0B0FF04B0204670BD09F012
:1019D00051F930B107F074FF0028F5D107F079FF15
:1019E000F2E707F073FFEFE718020020FEB5C088AA
:1019F00014460E46A04201D2054600E01546844238
:101A000007D2802007F09CFDB4FBF0F100FB1140F1
:101A100068B100200096CDE90150002000F0EEFDF5
:101A20006946802000F07AF8040002D006E0012028
:101A3000F0E705498020FFF765FF0446002000F02D
:101A4000DFFD2046FEBD0000CCB6000008B14021FD
:101A50000160014870470000CC0D002007F06CBC0D
:101A600007F086BC10B50C46010600F00F02092AEB
:101A700009D200F00BF8006828B141680A682146D5
:101A8000BDE810401047102010BD0000010600F016
:101A90000F0001D5034901E00249483101EBC000C4
:101AA00070470000300D002007F0A2BC10B50446BE
:101AB00000F00F00082805D2204607F0BBFC2046A6
:101AC00007F06EFD2046BDE8104007F0C1BC0000E5
:101AD00070B50C46054607F0FBFC18B105480078C8
:101AE000022801D0082070BD21462846BDE870407C
:101AF00007F0F0BCEC01002010B5FFF7C7FF00684D
:101B000010BD10B50C46FFF7C1FF04601CB1616841
:101B10000968416010BD0021FBE7000070B50C466C
:101B2000054607F0D5FC18B105480078022801D019
:101B3000082070BD21462846BDE8704007F060BD12
:101B4000EC010020F8B5044600782A4D05280BD199
:101B5000294800682849C0B2091F096811F0FF0F21
:101B600004D1052802D1254C207818B3234F6946AB
:101B7000243F386A04F07BFC06001AD020683060ED
:101B8000002000F03BFD6888E968401A401CF080A6
:101B9000184800210C3004F0B8FCB080002000F0A0
:101BA0002FFD6946386A04F083FC0146204609F09F
:101BB00077FBF8BDAE6905E03168608889688847C1
:101BC00030684668002EF7D1002000F017FDE86865
:101BD00008B960886880074801210C3004F07FFC58
:101BE000002000F00DFD0121204609F059FBE868B6
:101BF000F8BD0000EC01002084740240A8B600008B
:101C000070B5774C05460178207809297BD008DC2F
:101C1000092979D2DFE801F06A84B28D9FBBC283C3
:101C2000D700822927D017DC0A296ED00F296DD062
:101C300080293BD0812972D16A48FFF75BFE694851
:101C4000FFF742FC0D2009F039FBFFF74DFCFFF7D1
:101C5000CAFD606950B906E0832931D0842937D0A4
:101C600085295CD193E06048007A00B1012007F03B
:101C70005FFE01207EE0FFF737FC07F07FFE0020CB
:101C800008F0A8FC5748401CFFF71EFC5548401CB4
:101C9000FFF730FE0E2009F011FB207800F084FCE5
:101CA00000283CD0BDE8704005F020BA052803D0DC
:101CB000062803D0072832D102205BE0082059E033
:101CC00003282CD107F07EFE002828D0042051E004
:101CD000032805D107F076FE10B1042008F07AFC45
:101CE00007F0CCFE00281AD0062043E0032801D0DC
:101CF000082803D13B48801CFFF782FF002009F031
:101D0000DDFA646909E060E009E060E044E029464A
:101D1000204601F093F920684468002CF7D170BD8B
:101D2000FFF7E2FBFFF768FD022008F053FC0120FB
:101D300005E0082809D0052008F04CFC032009F034
:101D4000BDFA2846FFF7D6FD44E0022008F042FC29
:101D500007F060FDF2E7032009F0B0FA2148C01C4B
:101D6000FFF7C8FD1F48C01CFFF7AEFB2078062810
:101D7000A2D10720BDE8704008F02CBC032008F079
:101D800029FC022009F09AFA2846FFF79DFB284615
:101D9000BDE87040FFF7AEBD0F2019E0A878FFF74F
:101DA00075FED0E900232946104698470028B6D092
:101DB000A8780107B3D000F00F010829AFD2BDE821
:101DC000704007F0C9BB082002E0092000E00A20AB
:101DD00009F074FA2846BDE87040FFF775BB0000B3
:101DE000EC01002095B60000C00D0020FFF7AABE50
:101DF000F8B5214C00250095204EA0684FF40067EF
:101E000028B9211D306A04F048FBA060C0B1818868
:101E100069B1C188B94200D3C580C188ADF802104C
:101E2000C188491CC1808188491E81801FE0FFF75D
:101E3000E7FE1149306A091D04F024FBA56019E092
:101E4000E068002817D0002000F0D8FB6088B84276
:101E500000D365806088ADF80200401C60800648B1
:101E600001210C3004F062FB002000F0C9FB684641
:101E7000FFF7C6FE0120F8BDEC01002084B600008B
:101E80000148FFF75FBE000084B6000010B5001DDA
:101E900004F01FFBBFF34F8F10BD10B5001D04F001
:101EA00018FBBFF34F8F10BD10B5001D04F00BFBE6
:101EB000BFF34F8F10BD10B5001D04F004FBBFF33E
:101EC0004F8F10BD10B50021FFF723FC0021FFF755
:101ED00004FC007810BD10B50021FFF724FC0021A0
:101EE000FFF704FC007810BD2DE9F0478046002480
:101EF00018780E461F461546A2464FF001090F28D6
:101F00006AD2DFE800F0082B767869353A696969AA
:101F1000698092A4A7007988104603F0EAFA014686
:101F2000A0F57F40FF3822D0002053462A1892F8AF
:101F3000244034B105EB800C7C88CCF8144082F846
:101F4000243095F829201AB1401CC0B20428EDD3E2
:101F5000B069C9B2C2694046904748E003211046C3
:101F600000F059F985F80C902846FFF729FC6BE042
:101F70003146404608F09CF939E0B87844460006FE
:101F800024D5D87820B903223146404609F090F98B
:101F9000686828B10321284600F03DF9002453E089
:101FA00000204FF40062494605EB80035B699342D1
:101FB00002D12B1883F8241095F829301BB1401C4E
:101FC000C0B20428F0D3B06981680EE0B069C0687F
:101FD00010B1D87810B106E0062435E0022231466F
:101FE000404609F065F9B069C16820468847044653
:101FF0002AE002212CE00221104600F00CF9B06921
:1020000081684046F2E74046FFF7B0FB04001BD171
:102010004046FFF79BFB040016D12846FFF7D0FB94
:102020000021284600F006F90EE04046FFF7B2FB1B
:10203000040009D14046FFF791FB040004D10021C0
:102040004FEA050000F0E7F82046BDE8F0870121DF
:102050001046E7E701211046F4E7C26952680A60BA
:10206000C069006870472DE9F041056880464FF06F
:10207000000417000E4605F10C05204614D029185F
:1020800091F82E20B2422CD014B90AB901F12E04D5
:10209000401C0628F3D324B12846FFF7F7FE7FB98A
:1020A0000DE01120BDE8F081291891F82E10B14201
:1020B00014D12C182E3414D02846FFF7E7FE002642
:1020C00026702846FFF7F0FE284600F0D8F80028D2
:1020D000E8D04046BDE8F04102F0D7BE401C0628DB
:1020E000E2D30020DEE7006890F84800084000D006
:1020F000012070472DE9F041046807460D4694F829
:1021000038000C341646284000D00120B04202D1DD
:102110000020BDE8F0812046FFF7B8FE94F82C00BF
:102120000EB1284300E0A84384F82C002046FFF7B6
:10213000BBFE204600F0A3F80028EAD03846BDE8F0
:10214000F04102F0A2BE026A52680A60006A0068AA
:1021500070472DE9F0410746046890F834000D46B9
:102160000C341646A84202D80720BDE8F08120466C
:1021700000F076F840B194F83200E84000F0010039
:10218000B04203D10020F0E70820EEE72046FFF739
:1021900084FE012094F83210A8400EB1014300E003
:1021A000814384F832102046FFF785FE204600F078
:1021B0007BF80028D9D03846BDE8F04103F031B9AA
:1021C00070B5046806460C340D46204600F048F809
:1021D00040B14DB1B4F92E00294602F09CFE28B161
:1021E000112070BD082070BD002070BD2046FFF793
:1021F00054FEA08D2844A0852046FFF75CFE2046B3
:1022000000F052F80028F0D03046BDE8704003F0EE
:1022100008B9C068704701228A40D14304F065B90B
:1022200001228A40D14304F060B901228A40D1439F
:1022300004F05BB9012202FA01F104F06BB901224A
:1022400002FA01F104F066B9012202FA01F104F088
:1022500061B90068C840C04340F30000401C7047AB
:1022600010B504460021FFF7F4FF30B101212046EC
:10227000FFF7EFFF08B1012010BD002010BD10B521
:1022800001686FEA910141F30001491C03D000F09D
:10229000A5F9002010BD00686FEAD00040F30000EF
:1022A000401C80F0010010BD10B504460221FFF76C
:1022B000D0FF18B100F092F9002010BD0321204694
:1022C000FFF7C7FF80F0010010BD11464268136898
:1022D000184770B5044640680D46C2680AB12046EA
:1022E000904720462946FFF70AFA0546467800241B
:1022F00008E021462846FFF7E7F9007807F078F86C
:10230000641CE4B2B442F4D370BD00002DE9F04186
:1023100080460E480E46056914E02F7A00240DE031
:1023200021462846FFF7EBF90178414504D106B173
:1023300034702846BDE8F081641CE4B2BC42EFD39F
:1023400028680568002DE8D10020F3E7EC010020A3
:1023500070B50446406815460E4683681BB120469A
:102360009847062803D1204631460DB1072070BD9D
:10237000FFF7C5F905464678002408E021462846BF
:10238000FFF7A2F90078FFF791FB641CE4B2B442B6
:10239000F4D3002070BD034600205A681269002A59
:1023A00001D01846104770472DE9F8432E4C0546DA
:1023B00008234FF484722B49206A04F045F810B1C9
:1023C0000320BDE8F883294807F02AFA0028F8D14D
:1023D000274908700861486148212648FEF750F9EE
:1023E000244848214830FEF74BF9224878307DB127
:1023F00095E80E00183080E80E00002004F0FAFE88
:1024000018B1852801D0FEF7CBFF1B4D002611E047
:1024100004F138010EC9EDE7002703E000782946F2
:10242000FFF76FFB3946781CC7B24046FFF74CF9FF
:102430000028F3D13146701CC6B22846FFF75FF979
:102440005FEA0008E8D1606800906946284600F01D
:10245000F5FD040003D007F009FB2046B1E700209A
:10246000AFE70000280C002084B60000ED1D00003E
:10247000EC010020300D00200CB7000030B1012825
:1024800007D0022808D10548FFF75CBB034808388D
:10249000FAE70248001FF7E770470000B4B60000F3
:1024A00010B507F005FA10B107F0F8F908B10820E7
:1024B00010BD044804F0B2FE08B1FEF771FF002021
:1024C00010BD0000B8B6000070B50C460F4901EB16
:1024D000800555F82400017831B10020FFF7B6FAE5
:1024E000002255F8241006E0801C70BD521CD2B2A8
:1024F000491C20F812300B78002BF7D1022101EB98
:102500004201C9B241F44071018070BD4002002017
:10251000074803E0016811F0010F07D00168C1F31B
:1025200040010029F6D00348FFF70CBB70470000BC
:102530003804004089B60000034808B58068009060
:102540006846FFF7FFFA08BD84B6000030B44FF0CC
:10255000000180B10D4B002213F8124084420ED1CD
:1025600003EB4200407870B1094A02EB800252F856
:10257000212042B100E0002030BCFFF7A5BF521C73
:10258000D2B2062AE8D330BC00207047F6B700006C
:1025900040020020034808B5C06800906846FFF775
:1025A000D1FA08BD84B60000092808D2DFE800F09F
:1025B00007070507070505050500012070470020EE
:1025C0007047092808D2DFE800F00707050707076A
:1025D00007070500012070470020704708B501205B
:1025E000FFF780F9002806D003480069009068468C
:1025F000FFF7A8FA012008BD84B6000000F002B879
:1026000000F008B872B602480168491C01607047C2
:102610005802002003490868401E086000D162B6D5
:10262000704700005802002070B5054608680C4647
:10263000411C04D005F07FF8206804F0DFFF6068DB
:10264000411C02D0002104F0C7FF2968A069C1F82D
:102650002405607D227D29681043C1F86C05D4E90A
:1026600000122868C0F81425C0F80C15207D012838
:1026700014D1A068411C02D0002104F0ADFFE06835
:10268000411C04D005F057F8E06804F0B7FFD4E926
:1026900002122868C0F80825C0F8101570BD70B582
:1026A000054608680C46411C04D005F04EF8206829
:1026B00004F0AEFF6068411C02D0002104F095FFD9
:1026C0002968A069C1F82405607D217D2A68084336
:1026D000C2F86C05D4E900122868C0F80C15C0F8DF
:1026E0001425207D012814D1A068411C02D00021AE
:1026F00004F07BFFE068411C04D005F026F8E06898
:1027000004F086FFD4E902122868C0F80825C0F852
:10271000101570BDF0B500220D4BCA60C1E9012350
:102720000C4B0D4D1446EE1A0A600CE003EB02153B
:10273000EF683F79FF2F05D0A04202D1A86808605A
:10274000F0BD641C521CB2EB161FEFD3F0BD0000AD
:1027500098BA00009CCB0000BCCB0000102802D32C
:102760001038C0B2704740F0800070472DE9FC413E
:102770000646C0074FF000050ED0104F002401227E
:10278000385D009500231146019504F0AFFE641CEE
:10279000042CF4D300F04EF8B0070DD5074E0024FA
:1027A000361D0022305D032300951146019504F08B
:1027B0009DFE641C042CF4D3BDE8FC8108B5000028
:1027C000094908B5085C0090684604F05BFFD0F842
:1027D0000425009B0121994021EA0203C0F8083535
:1027E0001140C0F80C1508BD08B500000249085C8E
:1027F000012104F0B4BF000008B500000249085CE4
:10280000002104F0ACBF000008B50000084908B57D
:10281000085C0090684604F035FFD0F80405009984
:10282000C84010F0010000D0012080F0010008BD78
:1028300008B5000010B500242046FFF7D7FF641C40
:10284000042CF9D310BD10B500242046FFF7D6FFA5
:10285000641C042CF9D310BD10B50246064B4FF092
:10286000FF3000215C5C944201D1084610BD491C38
:102870000429F7D310BD00000CB500002DE9F04786
:102880000D468146FFF7E8FF0446042836D2DFF8FC
:1028900074801B481C4EA8F10C0725B3012D0ED0E7
:1028A000022D2BD104EB440030444578002D25D077
:1028B000B968002922D02846BDE8F047084704EB54
:1028C0004401755C0E44717849B10E4A4FF4804161
:1028D000093A8068FEF7B4FD08B987F80390B1782B
:1028E00008F80410E2E78068FEF7D0FD04EB44012D
:1028F000314418F804008D78A842D7D0BDE8F0879D
:1029000010B50000B00000209C08002001490860BC
:10291000002070471801002010B51E4C0E380C28FE
:1029200036D2DFE800F00617212B35353535121980
:10293000232D184803211C30FFF742FC2068002299
:10294000BDE810405221FEF77BBD2068BDE8104075
:10295000FEF79CBD012200E000220E480021BDE8E8
:1029600010401C30FFF7F5BB012200E000220948AF
:102970000221BDE810405430FFF7BCBB012200E04B
:10298000002204480A21BDE810405430FFF76BBB19
:1029900010BD0000C0B3000070B50023042810D2A1
:1029A0000D4D00EB4004012A02D101290CD0002278
:1029B000094E00EB4000304461B1012906D00229E4
:1029C00006D00723184670BD0E30C2B22A55F9E76B
:1029D0004270F7E78270F5E79C08002070B5064664
:1029E0001E480024C0E90161B00720D5002501225E
:1029F00011462846FFF7D0FF6D1C0446042D02D275
:102A0000002CF4D013E094B940F23332042114487E
:102A1000FEF73CFC04000AD1FEF726FC040006D1B8
:102A20000F48104A0021001FFEF7CCFC0446F007B7
:102A300012D00120FFF79AFE74B909480A4A002112
:102A40000C38FEF7BFFC040006D10548074A0121F7
:102A50000838FEF7B7FC0446204670BDA4000020ED
:102A60001CB50000352D0000DD5A00006312000087
:102A70002DE9F05F6E4C054600266078B34618B12C
:102A800084F801B003F012F86A4F4FF47A694FF4FA
:102A9000C87A4FF00108182D69D2DFE805F00C1351
:102AA00013384754696E727B727BC5848484848436
:102AB000B3B6B9BCC5C502F0F9FF3868FEF7E6FC4D
:102AC00006465CE00020FFF7A1FE00284FF0000062
:102AD00008D0FFF78BFE022D02D14FF4E16008E031
:102AE000484606E0FFF78AFE022D01D1C82000E02B
:102AF0005046410CC0034FF47A72801841F1000136
:102B0000257052000023FDF7F9FC01462AE0002061
:102B1000FFF77CFE00284FF0000004D0FFF766FEB0
:102B20004FF44870E5E7FFF769FEDFE70020FFF7A5
:102B30006DFE00284FF0000002D0FFF757FECFE7F0
:102B4000FFF75CFED4E70020FFF760FE00284FF09F
:102B5000000002D0FFF74AFE01E0FFF74FFE2570AC
:102B600040F6CD4100223868FEF76AFC064646E092
:102B70000020FFF725FE257008E0002051E02570B9
:102B80003DE084F801800120FFF71AFE002240F2A8
:102B90006661E8E784F801800120FFF711FE00225A
:102BA0004FF40051DFE77868FEF770FC0646D5F178
:102BB000110000D02EB10220FFF718FE84F802B0F9
:102BC0001DE0012816D980B2C8214843C117C903A6
:102BD00041EA5041C0034FF47A72801841F100017C
:102BE00052000023FDF78AFC014600227868FEF7B8
:102BF00027FC06460220FFF701FE84F802803046DB
:102C0000BDE8F09F02F052FFB9E702F04FFFB4E7D2
:102C100002F04CFF04E002F049FF0020FFF7EEFD58
:102C20000120FFF7EBFDAAE7FFF70DFEA7E7000085
:102C3000A400002010B500002DE9F0470546861CD1
:102C400091460F464FF0010A0020FFF7D7FC1B4CBE
:102C500004F21C4860683860D4E90101184F401A3A
:102C60003968081A0EE00121404603F038FC03F0F1
:102C70002FF90146404603F032FCD4E90101401A25
:102C80003968081A401C8642EDD8B9F1000F03D00C
:102C9000052065F3891002E0062065F39F50616806
:102CA0003A68114004EB8101C8606068304460609C
:102CB0000020FFF7A5FC5046BDE8F087C80F0020B4
:102CC000F402002070B50D4604460A2902D10D21F8
:102CD000FFF7F8FFA0682268411CA1601554D4E9F1
:102CE0000101814204D32046BDE8704004F005BBD9
:102CF00070BD0000044881684068814201D1012014
:102D00007047002070470000C80F0020034630B510
:102D1000074800210478426806E000BF02EBC100CA
:102D200005789D4203D0491CA142F7DB002030BD4D
:102D30006801002000780221FFF7A0BD05494FF08F
:102D4000FF32082841F8202002D3084480F8582098
:102D500070470000BC080020F0B54FF0FF3512B1FD
:102D60000023082601E008230C260C4C05E000BFD8
:102D700054F823707F1C04D05B1CB342F8D3284660
:102D8000F0BD26185DB286F8305044F82310002AB2
:102D9000F5D1E11881F85800F1E70000BC080020E7
:102DA0000249084490F9300070470000BC08002038
:102DB00070B5816804468A7F002A4DD0C87F0028FC
:102DC0004AD0121A0844D5B200F120016A1C1F3003
:102DD000FDF72FFCA068C17F491EC177A068817FE5
:102DE000491E81778DB308221C49206904F078FAC6
:102DF000204603F001FB8178C078814211D1A068A0
:102E000017A2C17F431808212046203303F016FF84
:102E1000204600F017F929462046BDE8704001F031
:102E20002FB8204600F022F9204600F00BF9A068E8
:102E30000BA2C17F431808212046203303F0FEFE79
:102E40002046BDE8704000F007B92069BDE8704039
:102E5000044A03A104F044BA70BD000038300000F9
:102E600025730000D1B9000070B504468068827FE8
:102E7000C17F521A12F0FF053AD0084400F1210137
:102E80002A462030FDF7D5FBA068817F491E817757
:102E9000204603F0B1FA8178C078814214D1A0684D
:102EA00014A2C17F431808212046203303F0C6FE38
:102EB000114A10A1206904F013FA6D1EE9B22046F0
:102EC000BDE8704000F0DCBF204600F0CFF820469F
:102ED00000F0B8F8A06807A2C17F43180821204677
:102EE000203303F0ABFE2046BDE8704000F0B4B8DC
:102EF00070BD000025730000D5B900002DE9F04138
:102F0000044680680F46D0F84811C27F11F00106D0
:102F1000817FA1EB0203DDB20BD07F2901D3002D0D
:102F20007ED0A068C17F0844002180F8207066B17F
:102F300013E07F297CD2002DF3D0831803F1200108
:102F40002A46481CFDF775FBEBE7A068827F521C00
:102F5000D2B28277A068203281544DB3204603F06C
:102F60004BFA8178C07881420ED1A06831A2C17F2E
:102F7000431808212046203303F060FEA81BC1B28D
:102F8000204600F07DFF21E0204600F06FF8A068A9
:102F900028A2C17F431808212046203303F04EFEAB
:102FA000204600F059F80121204601F043F80DE0D9
:102FB0003EB1A068827F521CD2B28277A0682032D4
:102FC00081543A461CA1206904F08AF9A168C87F9F
:102FD000401CC877204600F040FF0028204603D060
:102FE000BDE8F04100F058BF01F047FC00281FD0B9
:102FF000204603F001FA0546C078A978401A401E21
:10300000C1B2204600F0CAFE204600F045FFE87835
:10301000A978401AC1B2204601F018F8287800E0DB
:1030200006E0401EC1B22046BDE8F04101F002B802
:10303000BDE8F08125730000256300004268126836
:10304000104700000069024A02A104F049B90000DB
:10305000C9B90000257300000069024A024904F062
:103060003FB90000C3B90000543000000069024AB3
:10307000024904F035B90000C0B900005430000026
:103080002DE9F04F4FF0000995B005464F464C46EC
:1030900000F0E0FD284602F081FB284600F08AFEA1
:1030A000284600F0DAFE10B9284600F0F5FEAA68BE
:1030B0000C2301A90EA8203203F072F803460E98E3
:1030C00040B15BB149A20221284603F0B7FD15B01B
:1030D000BDE8F08F284600F0DFFEF8E74948484990
:1030E0000026A1EB00080DF1040A834613E008D383
:1030F00045A0009049A202212846019B03F09EFDB5
:10310000E5E70BEBC604606801685AF82900FDF793
:10311000C9FA18B1761CB6EBD80FE8D94FF0000009
:103120000F90A96848608860C86008616168C868D5
:1031300028B14AC9AA68C2E90360C2E901136068FC
:1031400009F101044FF00006D0F808800E9884427F
:1031500035D25AF8240033A1FDF7A4FA40B35AF847
:10316000240031A1FDF79EFA10B310A8324600905A
:10317000761C0FAB2146404600F028FDFEB10F98AB
:10318000E8B101685AF82400FDF78CFA0028DDD177
:103190000F98C16839B190E84810AA682746C2E97B
:1031A00003C1C2E901360026641CD0F80880CDE7CF
:1031B000A868D0F8481141F00201C0F84811A86889
:1031C000036933B10E980AEB8702C11B2846984762
:1031D00004E017A20221284603F030FDA868D0F8C9
:1031E000481121F00201C0F8481170E76E6F742099
:1031F0007465726D696E617465643A2025630A00B6
:103200009CCB00005CCB00003A20636F6D6D616E5B
:1032100064206E6F7420666F756E6400257325736D
:103220000A0000002D6800002D2D68656C700000FC
:10323000506C6561736520737065636966792061A0
:1032400020737562636F6D6D616E642E0A000000FD
:103250008068D0F84801C0F3C00070472DE9F04104
:103260000446C0688EB00D464068002632460068AD
:1032700001A904F00DFF18B100200EB0BDE8F081E7
:103280006DB1019804F0D6FEA168D1F83801401C58
:10329000C1F8380100F0070001287AD10126204644
:1032A00003F0AAF805468078012804D9401EC1B26F
:1032B000204600F0CBFE2878012804D9401EC1B278
:1032C000204600F0DDFD2046FFF7BCFE2EB132A205
:1032D0000221204603F0B2FC5BE04FF0000800231F
:1032E000082202A9019804F0B4FE04980590BDF8E4
:1032F0000C00ADF81800BDF80E00ADF81A008DF8FE
:103300001D800298082700F00300012802D002283F
:1033100018D032E002983B46860AC0F3C2008DF80E
:103320001C00029808A9C0F38315AA00019804F0B4
:1033300090FE2069009005AB2A4608A9304604F0AB
:10334000CFFD1AE00298850DC0F3C2008DF81C0075
:10335000082D01D22E4600E008263B46324608A939
:10336000019804F076FE3744AD1B05AA314608A843
:10337000236904F095FC002DEAD1019804F05AFE6F
:10338000E068002201A94068006804F081FE00287E
:10339000A5D0012071E700004C6F7374206C6F673B
:1033A00073202D20696E637265617365206C6F6791
:1033B000206261636B656E6420717565756520734D
:1033C000697A652E0A00000030B4406804682469F8
:1033D000A44630BC60472DE9FC4100260446012785
:1033E000019601AB012269462046FFF7EDFF0198E7
:1033F000002836D09DF800007F28F2D804F047FE60
:10340000A068417821B101296FD002296ED18DE0E9
:103410009DF800500D2D09D00A2D07D0D0F8482175
:10342000002161F38D12C0F8482122E0D0F8481144
:10343000C1F3871129B1D0F84811C1F38711A9420E
:1034400017D1D0F8481165F38D11C0F84811A06864
:10345000817F41B12046FFF713FE0221204600F094
:10346000F5F8BDE8FC81C0F84461204600F014FD89
:10347000F3E7092D1ED004DC002DB2D0082D04D1B5
:1034800021E01B2D12D07F2D26D0FDF777F80068A4
:10349000405D10F03E0FA4D02046FFF7D9FE30B3B8
:1034A0009DF800102046FFF729FD9AE7A16801204A
:1034B000487096E72046FFF7CBFE002891D02046C3
:1034C00000F0DEF88DE72046FFF7C2FE002888D026
:1034D0002046FFF76DFC84E72046FFF7B9FE002881
:1034E000E3D02046FFF7C0FC7BE716E019E0A168B7
:1034F0009DF80020887F7F28D7D2C87F0B18401CFA
:10350000C87783F82020A068C17F084480F8206035
:10351000A168887F401C887763E79DF800105B29CD
:1035200001D0002100E0022141705AE700214170E2
:103530002046FFF78DFE002893D09DF8000042281A
:1035400040D01BDC33287CD012DC312872D03228EA
:10355000ABD1A16803204870A068D0F84811D0F81A
:10356000482127EA010161F30002C0F8482138E749
:10357000342856D0412898D1012124E0462853D040
:103580001BDC432823D044288FD1204602F034FF8F
:1035900005460078A979491C884202D1A9780129F9
:1035A00087D001284FF0010120462FD000F068FCA1
:1035B000A168C87F401EC87713E748283DD04C2833
:1035C00089D1C9E70021204601F0D6FF09E720464E
:1035D00002F012FF054600786978884203D1A97885
:1035E000EA78914298D0697988424FF001012046EB
:1035F00006D100F0D3FB6979204600F041FC01E0E0
:1036000000F018FDA168C87F401CD4E700F01EFD43
:103610006979204600F00EFDA068C17F491EC17780
:10362000DFE6A16803204870204600F0C3FBD8E61F
:1036300007E0FFE7A16803204870204600F0E3FBA5
:10364000CFE6A1680320487046E70000826802299F
:1036500011700CD18268002182F820108268D17725
:103660008268917702A20321036803F0E7BA7047EA
:1036700025730000002801D0FDF70DB87047000049
:103680002DE9F04F05460020A7B0074615900646E5
:1036900020900690A868817FC1F17F01C9B25FEADE
:1036A000010970D0C27F00F12001A030FCF7C1FFFA
:1036B000A8680024C17F084480F8A040FCF75EFFA2
:1036C00021900168A8680C23C27F0244D27F895CE4
:1036D000C0F84441AA6801F0010A07A916A8A0325F
:1036E00002F05EFD0798FFF7C5FF00F0FF08A34654
:1036F00017941894169818B15044401EB0426CD8D4
:10370000BAF1000F01D0002005E007A850F826000C
:10371000FFF7B0FFC0B28046002419A822460090EF
:10372000641C17AB3146584600F050FA1798002831
:103730006CD0016807A8424650F8260002F082F9D2
:103740000028EAD018987F1CF0B117980068FFF79E
:1037500091FF0699C0B2884200D90690B9F1000FD6
:103760002ED022A8009018AB31465846159A00F08A
:103770002DFA17980168189801EB080201680020DB
:1037800001EB080316E08DE0601E2090179800689A
:10379000FFF770FFC0B20690A0EB080048450FDAB3
:1037A000C0B20CE013F800C0614506D1401C10F017
:1037B000FF0010D0115C0029F4D1814500D9814669
:1037C000601E159017981890A7D266A2042128466B
:1037D00003F034FA1AE0FF20EFE7002419A822468C
:1037E0000090641C17AB3146584600F0EFF9ECB37B
:1037F0001798002856D0016807A850F82600FCF753
:1038000051FF0028EAD11798D0F808B0BBF1000F9B
:1038100009D0179838B11699761CF6B201EB0A0058
:103820008642FFF467AF002F3CD0012F43D0002128
:103830002846069A06F058F9209C0DF11C0A19A892
:1038400022460090641C17AB3146584600F0BEF982
:103850001798424601685AF8260002F0F3F840B182
:1038600017987F1E069A0168284600E01DE006F0C2
:103870003BF9002FE3D146A2032128462B6803F031
:10388000DDF9AB6843A208212846203303F0D6F9BE
:10389000284600F099FB18984A460168284641449A
:1038A00000F032FA27B0BDE8F08F2EA2042128469E
:1038B00003F0C4F9F6E79BF8000038B119A80090AE
:1038C00018AB31465846159A00F080F918980068F0
:1038D000FFF7D0FE404506D018984A4601682846B2
:1038E000414400F011FA2198A9680268C87F0B18BA
:1038F00093F82030D25CD20715D0897F8842D1D28C
:10390000284602F079FD8478A868C17F491CC177F8
:10391000284602F071FD8078A0421FD1012128467F
:1039200000F088FBBEE7D1F84801C00711D0D1F8FC
:10393000480120F00100C1F8480120212846FFF786
:10394000DDFAA868D0F8481141F00101C0F848112B
:10395000A8E720212846FFF7D1FAA3E7284600F080
:103960009BFA9FE75461622066756E6374696F6E9F
:103970003A20636F6D6D616E647320636F756E7452
:103980006572206F766572666C6F7765642E0A00CB
:103990000A25730025730000002806D08868D0F837
:1039A000481141F02001C0F84811704770B5044635
:1039B00040680D4690F8280030B1A0680068FDF717
:1039C00065FD08B108280CD1012685B1606903F0B6
:1039D0007BFC616800220831606903F031FC08B1AA
:1039E000062070BD606880F82960002070BD6068A6
:1039F00090F8280048B9074A0021A068FDF7E2FCCA
:103A00006168002881F82860F0D12046BDE8704048
:103A100006F0B4BA15A7000070B5044640680D461C
:103A20000260606800224360606880F82820606857
:103A300080F82920606820220830FCF7FAFD2C610C
:103A4000074A2946606903F0FBFB050005D1E068E1
:103A500004F05AFD206904F057FD284670BD0000AF
:103A600055A800001A60C0681A4604F087BC10B55B
:103A70000446406903F028FCA0680068BDE81040D7
:103A8000FDF704BD7CB51A60044600691A4604F0CF
:103A9000B5FC050025D16069134A0178515C19B164
:103AA000001D05F095FB02E00C3005F0F5F9C0B9FA
:103AB000FF20009001236A4601A9206904F0ECFC74
:103AC00078B900980199C2B2606903F0EDFB054630
:103AD000606890F8290020B11DB92069009904F0B0
:103AE000C8FC28467CBD0000200100202DE9F843D9
:103AF0001E4615468846074600241BE0786808EBFA
:103B000004016B460268D2F80CC02A46E0470098D0
:103B100004442D1A70B9B868017803290AD000BF8F
:103B2000D0F848118906FBD5D0F8481121F02001C2
:103B3000C0F84811002DE1D1002E01D0009830606E
:103B4000BDE8F88370B5084C050009D01034216831
:103B5000002907D008682060496828468847F6E7AA
:103B60000834F4E770BD0000A8080020054A0121D0
:103B700020B1012805D19170FFF7E4BF51700020FA
:103B8000FAE77047A808002008B550686A4605A102
:103B9000FCF7BCFD044900980E300968C0B28847A4
:103BA00008BD0000257500001801002008B5506808
:103BB0006A4604A1FCF7AAFD034900980968C0B24F
:103BC000884708BD25750000180100202DE9F05F29
:103BD0001C460A9E15464FF0000959B180B3017882
:103BE00039B342683146284690473068D8B12660DC
:103BF000BDE8F09F14491548A1EB0008B5EBD80FBC
:103C000011D2DFF84CA00026834609E00BEBC60773
:103C1000786801685AF82500FCF744FD30B1761C3D
:103C2000B6EBD80FF2D3C4F80090E1E778682060D3
:103C3000DEE7406800EB0210016809B11860D7E7C1
:103C4000FFE7C3F80090D3E79CCB00005CCB0000FB
:103C5000740300202DE9F04185680646002495F89C
:103C60002000002811D0A046FCF788FC0746006819
:103C700004F1200104F10104695CE4B2415CC9076C
:103C800005D0002CF4D185F82080BDE8F081641EB9
:103C900014F0FF040FD0A87F021B04F120002918A4
:103CA00005F12000521CFCF7C4FCB168887F001BA2
:103CB0008877B168C877B2683D68937FD0181F30A5
:103CC0000446002102E0491CC9B2401E0778EF5D9E
:103CD000FF07F8D18442D8D05B1A203302F8038062
:103CE000B268907F401A9077B168C877CDE710B579
:103CF000D0E90234D1E90220D11AA04101D3012038
:103D000010BD002010BD00002DE9F0410446806880
:103D100015460F46827FC17F531A2A44DEB27F2A9E
:103D200037D8002D35D0084400F1200105F12002DC
:103D30001044721CFCF77DFCA0682A46C17F084431
:103D400039462030FCF775FCA0682030FFF792FC64
:103D5000A16811A28877A068C17F43180821204676
:103D6000203302F06BFFA068C17F2944C177204651
:103D700000F073F818B9204600F07FFD10B120461E
:103D800000F08AF8002E04D02046BDE8F04100F093
:103D90001BB9BDE8F081000025730000002904D0A4
:103DA0000A46006901A103F09BBA70471B5B2564BA
:103DB0004200000070B5054602F01EFB0446007884
:103DC0006178884203D1A078E17888421AD0E178FE
:103DD000A078814204D9081AC1B22846FFF7DEFF55
:103DE00020786178884205D9401AC1B2284600F08F
:103DF00047F804E0081AC1B2284600F01BF9A86889
:103E0000817FC17770BD70B5054602F0F5FA0446B2
:103E100001788079401C814202D1A07801281BD012
:103E2000A078012804D9401EC1B2284600F00EF93E
:103E30002078A179884206D9401A401EC1B228468E
:103E400000F01EF805E0081A401CC1B2284600F038
:103E5000F1F8A9680020C87770BD10B50446006865
:103E6000FFF708FC0146A068C27F407E1144B1FB09
:103E7000F0F200FB121008B1002010BD012010BDAF
:103E8000002904D00A46006901A103F029BA70474D
:103E90001B5B256444000000006901A103F020BA07
:103EA0000A0000002DE9FC47002604468DF8046056
:103EB00080683546B146B0468021A030FCF7E0FB73
:103EC0004049206903F00CFA206903F016FA002734
:103ED0006B46012201A92046FFF776FA0098D8B177
:103EE0009DF804001B2806D0A16891F8A0101B299A
:103EF000EED152281FD0A26808F1A001505408F159
:103F0000010000F0FF08B8F1090F0AD9A1680420E8
:103F100081F8A090BDE8FC872A494FF6C010103107
:103F2000884700980028D3D17F1CBFB2B7F57A7FAD
:103F3000CED30D20EEE7A16808F1A0004A4601F8B3
:103F40000090A16891F8A1005B2803D081F8A0201F
:103F50000B20DFE702206FF02F0309E005EB85055A
:103F600003EB4505401C3D44C0B2ADB2802808D2E9
:103F700000F1A007CF5D3B2FF0D1401CC0B28028DC
:103F800009D30C20C6E700BF06EB860603EB460606
:103F90003E44B6B2F1E700F1A007CF5D002FF3D1A8
:103FA000FA20FA2E01D9087500E00E75FA2D02D913
:103FB000A168887501E0A0688575A06880F8A020D8
:103FC0000020A7E7E1B9000070B5054602F014FA39
:103FD00004468078E178884201D1012600E000267D
:103FE0002846FFF73AFF18B9284600F046FC10B102
:103FF0002846FFF751FF1EB160782178401A12E081
:10400000E078A178401AC1B2284600F01FF8207865
:104010006178884206D9401AC1B22846BDE870408E
:1040200000F008B8081AC1B22846BDE87040FFF792
:1040300027BF0000002904D00A46006901A103F04F
:104040004FB970471B5B256443000000002904D072
:104050000A46006901A103F043B970471B5B256460
:104060004100000070B500240F4D10E0686800EBBF
:10407000C406307804F0C6FC7178012901D0012112
:1040800000E000214140307800F008FB641C2878F3
:104090008442EBDBD5E90401084303D0BDE870405E
:1040A00006F0A2BB70BD00006801002010B5002121
:1040B000024802F02AFA80F3100010BDE413002039
:1040C0004FF480328A400168C1F848230068C0F884
:1040D000082370474FF4A07202EB810189B200F00F
:1040E00049BB2DE9F04105460E464FF4A07000EBA8
:1040F000860081B228684FF48034B440984622F09C
:104100007F47C0F808432868C0F84843286804F08F
:1041100021FA286800EB8600C0F840752868C0F8CE
:104120004443B8F1000F02D02868C0F80443BDE84A
:10413000F0810068D0F804057047000070B543793D
:10414000274C2A4D44F823204279231D03EBC20259
:10415000254C1679234A121BD40846B168880826D4
:1041600002283AD3022000EB044021A133E0066884
:104170000A88C6F8082590F904208978002A4FEAB1
:10418000411104DB02F1E02282F8001405E002F0A4
:104190000F0202F1E02282F8141D90F904100122AE
:1041A000002909DB01F01F0602FA06F64909890019
:1041B00001F1E021C1F800614179002603EBC10162
:1041C0000A71417943F831006888032805D3032038
:1041D00000EB04400FA103F045FD304670BD000028
:1041E0005C0200203CCC0000BCCB0000D4030020CB
:1041F00052544320696E7374616E636520616C7202
:104200006561647920696E697469616C697A656455
:104210002E0000005254433A20696E697469616C43
:10422000697A65642E00000090F90400002809DB1B
:1042300000F01F02012191404009800000F1E020C0
:10424000C0F8001270470A46022100F01DBA4FF470
:10425000827100F08FBA0068012101607047006828
:104260000121416070472DE9F05F07460C464FF48D
:10427000A07000EB84001FFA80FA38684FF4803693
:10428000A6409B4622F07F45C0F848633868C0F8D6
:1042900008633868D0F8048500EB8402D2F84095B2
:1042A000C2F840855146386804F054F9A9EB08007B
:1042B00020F07F40012806D1102004F0E7FA514693
:1042C000386804F047F93868D0F80485C0F84463CA
:1042D000A5EB080121F07F413868012900EB84003B
:1042E00010D0C0F840553868D0F804156FF07F4CF6
:1042F0006A1A521E22F07F42ACEB0B03934217D393
:1043000062B118E06D1CC0F84055102004F0BEFAF0
:104310003868D0F8040540450AD10CE000EB840071
:104320006D1CC0F840553868D0F80405884202D0AA
:104330000D20BDE8F09F01223146384600F0A4F977
:104340000020F6E76FEA0061C90F61F31F107047A4
:104350000106044900D5903100F00F0001EB001078
:10436000704700007809002004F040B9812004F073
:104370006BB9822004F068B9832004F065B9842009
:1043800004F062B9852004F05FB9862004F05CB9BE
:10439000872004F059B9000038B5882506F000FDE3
:1043A0002846FFF7D5FF817B0124032915D000683B
:1043B000002811D12846FFF7C5FF8440E1430C488F
:1043C00004F0CEF90B480A49806800900C398DF84A
:1043D000025049686846884738BD2846FFF7B2FF53
:1043E0008440E143BDE83840014804F0B9B9000019
:1043F0006401002098B5000038B506F0D1FC00201B
:10440000FFF7A6FF817B0124032906D0006870B165
:10441000BDE838404C2004F08FB90020FFF792FF30
:104420008440E143BDE83840094804F099B90020D0
:10443000FFF788FF8440E143054804F091F90548FF
:104440000349C0680C39009049686846884738BD00
:104450006401002098B50000012004F011B9022089
:1044600004F00EB9032004F00BB9042004F008B9DD
:10447000052004F005B9062004F002B9072004F075
:10448000FFB8000038B5082406F08AFC2046FFF784
:104490005FFF817B032915D00068002812D12046D8
:1044A000FFF750FF01218140C943074804F058F944
:1044B00006480549406900900C398DF8024049686A
:1044C0006846884738BD00006401002098B50000A8
:1044D00070B50E4804680460BFF36F8FBFF34F8F51
:1044E00001260CE094FAA4F0B0FA80F52846FEF715
:1044F00035F906FA05F18C43294606F0F9FD002C42
:10450000F0D1BDE8704006F059BC00006C74024068
:1045100010B5054CA078FFF715FF0146A078BDE85F
:10452000104006F0E5BD000058010020F8B51A481B
:1045300000681A4DC6B2A878FFF704FF012404FAF8
:1045400000F12889EA68C04380B21043014202D0DA
:10455000A87806F027FD06F08000A8700020FFF77D
:10456000F1FE04FA00F68020FFF7ECFE04FA00F0FA
:1045700006430A48F1430C3004F0F2F88020FFF7BC
:10458000E1FE8440A86804430548AC60006A0090DE
:10459000696868468847F8BD807402405801002069
:1045A00098B5000038B5002000900F480068ADF8BD
:1045B00002008820FFF7C6FE012505FA00F40A482C
:1045C0006038006840B1C10301D4401C04D0082009
:1045D000FFF7B8FE85402C43044988682043886073
:1045E00049686846884738BD207502405801002058
:1045F00070470000F8B518480568284604F08AF8A6
:10460000BFF36F8FBFF34F8F144E154CE80506D5DF
:1046100001206070706A0090616868468847A8054C
:104620004FF0000705D56770B06A00906168684672
:10463000884768050ED5607800280BD06770094957
:1046400001200860582004F077F8F06A0090616853
:1046500068468847F8BD00000074024098B5000025
:104660005801002008750240054908B5002048702F
:10467000887004484068009049686846884708BDCB
:104680005801002098B500000368C3F84413002ABD
:1046900002D00068C0F80413704700002DE9F0470D
:1046A0000E463249804601EB5001C007097801D01F
:1046B0000F0901E001F00F07424601200021FBF73E
:1046C0004EFFDFF8AC9004460D46052F4BD2DFE8D5
:1046D00007F0031419262A00002E44D00121404679
:1046E00005F010FF0020FDF789FF4846D0E90412CD
:1046F0000C431543C9E9044530E00EB1022114E032
:10470000002112E04EB10321404605F0FBFE404679
:10471000BDE8F047012106F0D9BD012105E0002EDA
:1047200021D1042101E02EB103214046BDE8F0472C
:1047300005F0E8BE0021404605F0E4FE00214046B9
:1047400006F0C4FD0020FDF759FF4A46E043D2E9D8
:104750000434184024EA0501C9E90401BDE8F04722
:104760000020FDF74DBFBDE8F0870000B00B002032
:104770006801002010B5006842581AB103F0EAFE43
:10478000012010BD002010BD2DE9F05F17460E007E
:10479000814670D013B1F9B2FFF74CFC0024FBF74F
:1047A000EDFE8246006800E0641C315D415CC90793
:1047B000FAD100253046FEF75DFFD9F80810001B3E
:1047C0004A7ED11B814228D306EB040805E000BFD6
:1047D00018F805100A290CD06D1C8542F8D3311940
:1047E000D9F8100002F07CFD4846BDE8F05FFFF705
:1047F00053BBD9F8100002F080FD414600232A4641
:104800004846FFF773F92C444846641CFFF744FB05
:10481000F9B24846FFF70EFCE1E78B46DAF80010E4
:1048200006EB040818F805000B5CDB0702D0AB466A
:104830000A2804D0E819904201D26D1CF2E7D9F899
:10484000100002F05AFD414600235A464846FFF741
:104850004DF95C44DAF8000000E0641C315D415C15
:10486000C907FAD14846FFF717FBF9B24846FFF7E8
:10487000E1FB9EE7FFE7BDE8F09F10B50446006846
:10488000FEF7F8FE0146A068827F407E1144B1FB2E
:10489000F0F200FB121008B1002010BD012010BD85
:1048A00010B50B48FFF745FC094A083AD2E9043431
:1048B000C018D2E9063244F10001C31A71EB0202BA
:1048C00004D24FF08072801841F1000110BD000049
:1048D000A801002010B5C0B2FEF718FA044600780F
:1048E00004F090F801466078012801D0012000E032
:1048F000002090EA010F08D00449D1E904010843DF
:1049000003D1BDE8104005F06FBF10BD6801002065
:1049100070B5056804460C3500F092FA0646D6E9F3
:104920000001FBF7ADFE05F134007168FBF7A8FE4E
:1049300005F12C007168FBF7A3FE0020FDF75EFE79
:104940002046FDF7BFFA010601D504F04FFD032113
:104950002846FDF765FC0020FDF752FE002070BDE3
:1049600000F093BA30B400F110040B4602682146FF
:1049700030BC0C32FDF7B8BA2DE9F05FDFF8A88340
:104980000C7A054688F80040006816468A464FF0C3
:10499000000940F2FF124C461F46A0F2FF114FF0F3
:1049A000090B90426FD021DCB0F5FB7F6CD013DC9B
:1049B000B0F5F97F5CD007DC90B3A0F58070ED38DE
:1049C00039D0012879D141E0B0F5FA7F5DD0A0F56A
:1049D0008070F538F6D165E0A0F2F71008286CD2A7
:1049E000DFE800F07D89946B6B9FAAB5192971D01F
:1049F0000EDC0E296FD006DC01296DD002296CD0A7
:104A00000B29DFD1DDE00F2968D01829DAD119E1AF
:104A10001D390529E3D2DFE801F0F6F5F4F3F200E1
:104A200088F8019071E100BF85F804B0BC4202D360
:104A300040F2ED1053E10EB1287930550420641C8A
:104A40002871BC4202D34FF4F77048E10EB12879C7
:104A5000305598F801105046641CFCF75AFEC8F80F
:104A6000080000782871BC4202D34FF4F97036E197
:104A70000EB128793055641C85F80490BC4204D3EB
:104A80004FF4FA702BE16DE018E00EB12879305543
:104A9000D8F80800641CBC424078287102D340F268
:104AA000F5101CE10EB1287930550320641C2871E3
:104AB000BC4203D34FF4FB7011E130E10EB1287911
:104AC00030559AF81800641C2871BC4207D340F294
:104AD000F71004E1C1E085E04FE05BE094E00EB147
:104AE000287930559AF81900641C2871BC4202D309
:104AF0004FF4FC70F3E00EB128793055641C85F852
:104B00000490BC4202D340F2F910E8E00EB12879DB
:104B10003055641C85F804B0BC4202D34FF4FE70DB
:104B2000DDE00EB1287930552120641C2871BC428B
:104B300002D340F2FD10D2E00EB128793055112099
:104B4000641C2871BC4202D34FF4FF70C7E00EB161
:104B5000287930550120641C2871BC4202D340F2F0
:104B6000FF10BCE00EB128793055641C85F8049024
:104B7000BC4202D34FF40070B1E00EB12879305539
:104B80005046641C00F0D2F82871BC4202D340F2B7
:104B90000120A4E00EB1287930555046641C00F085
:104BA000C5F888F8020088F8039036E0DAF81000BB
:104BB000BC4250F821000079287102D340F20A204B
:104BC0008DE00EB12879305598F803105046641CDA
:104BD00000F0B4F8A8F806002871BC4202D340F2F5
:104BE0000D207CE00EB128793055B8F80600641C21
:104BF000000A2871BC4207D340F20E206FE072E039
:104C00005FE053E047E03BE00EB12879305598F87B
:104C10000310491C88F80310641C98F8031098F8D6
:104C2000022040469142C1D38168497801714946CA
:104C300088F8039061E007202871BC4202D340F25B
:104C400017204CE00EB1287930550520641C2871DE
:104C5000BC4202D34FF4067041E00EB128793055C2
:104C600098F80310641CD8F80800FCF736FDC8F863
:104C70000C0000782871BC4202D34FF407702EE07C
:104C80000EB1287930550320641C2871BC4202D330
:104C900040F21D2023E00EB1287930554020641CDD
:104CA0002871BC4202D340F21E2018E00EB12879D0
:104CB0003055641C85F80490BC4202D340F21F209A
:104CC0000DE00EB12879305598F80300DAF830106D
:104CD000641CBC42085C287105D34FF4087028603E
:104CE0000120BDE8F09F0EB12879305598F80310E7
:104CF0004046491C88F80310641C0279C9B29142ED
:104D000099D34178491C88F8011098F8011098F857
:104D100000008142FFF488AE4FF40970DFE7002005
:104D2000C5F80090DDE7000020020020007D7047FC
:104D3000006950F82100806810447047006950F8FD
:104D400021000068704708B50B46002100911979D1
:104D5000012903D0022905D0062008BD6946FDF7C8
:104D60007CF902E06946FDF7EEF9009A411C581CF7
:104D7000521EFCF73BFE08BDFEB5056804460C3527
:104D8000FDF7A0F8064603212846FDF749FA20461C
:104D900000F056F800210091019102910168009104
:104DA00040680190204600F05BF80020FDF726FCEB
:104DB00069463046FCF7B2FE18B903212846FDF7D4
:104DC0003EFA0020FDF71CFC0020FEBD30B5044675
:104DD000006A85B000210268117000910191029172
:104DE0000168491C00914068401E01900020FDF7B9
:104DF00005FC69460020FCF791FE050008D1074834
:104E000003A90068CDE903040020FCF77BFD0546FB
:104E10000020FDF7F5FB05B0284630BD54B7000073
:104E200010B508B1032010BD0A6A08460968126867
:104E3000527881F84820C26A02219047002010BDB4
:104E400070B500F1100405682046FDF7E2F908216D
:104E50004035C0E900512046BDE87040FDF7D9B9A2
:104E600070B50546FFF7ECFF04462968D4E9000257
:104E700038310D46FBF724FC002805D0D4E90002A8
:104E80002946FBF7D6FB012070BDFEB50568044638
:104E90000C35FDF717F8064603212846FDF7C0F943
:104EA0002046FFF7DDFF00281BD02046FFF7C8FF94
:104EB00000210091019102910168009140680190E8
:104EC0000020FDF79BFB69463046FCF727FE0400F7
:104ED00003D103212846FDF7B2F90020FDF790FB2E
:104EE0002046FEBD10B589B101290FD0022906D098
:104EF00003290FD1BDE810400220FDF761BC02205C
:104F0000FDF75EFCBDE8104000F0B0BDBDE810400C
:104F1000FFF7FEBC10BD0844B0F5004F02DA10F5F3
:104F2000004F01DA01207047002070477F2801DD23
:104F30007F2070476FF07F01884201DA0846704792
:104F400040B2704770B50546006800F10C04284671
:104F500000F057FA0646D6E90001FBF791FB04F191
:104F600033007168FBF78CFB0021A185E185218668
:104F700084F832100846FDF741FB2846FCF7ABFFEA
:104F8000010601D504F032FA03212046FDF74DF960
:104F90000020FDF735FB002070BD00F042BA30B4B0
:104FA00000F110040B460268214630BC0C32FCF7BD
:104FB0009BBF00002DE9F05FDFF8A8838A46097ADD
:104FC000054688F80010006816464FF0000940F2C8
:104FD00041224C461F46A0F241214FF0090B90425E
:104FE0006FD021DCB0F50E7F6CD013DC40F23521A0
:104FF000A0F23522884259D007DC78B3A0F50070C2
:105000002F3836D0012876D13EE0012A5BD0022A23
:10501000F9D165E0A0F2392008286CD2DFE800F071
:105020007D89946B6B9FAAB5192971D00EDC0E296E
:105030006FD006DC01296DD002296CD00B29E2D19A
:10504000DDE00F2968D01829DDD119E11D390529C6
:10505000E3D2DFE801F0F6F5F4F3F20088F801900E
:1050600071E100BF85F804B0BC4202D340F22F20AA
:1050700053E10EB1287930550420641C2871BC42DC
:1050800002D34FF40C7048E10EB12879305598F8EE
:1050900001105046641CFCF746FBC8F80800007875
:1050A0002871BC4202D340F2352036E10EB1287996
:1050B0003055641C85F80490BC4204D340F236207D
:1050C0002BE16DE018E00EB128793055D8F80800D2
:1050D000641CBC424078287102D340F237201CE1A6
:1050E0000EB1287930550320641C2871BC4203D3CB
:1050F0004FF40E7011E130E10EB1287930559AF875
:105100001800641C2871BC4207D340F2392004E126
:10511000C1E085E04FE05BE094E00EB128793055C6
:105120009AF81900641C2871BC4202D340F23A205C
:10513000F3E00EB128793055641C85F80490BC4228
:1051400002D340F23B20E8E00EB128793055641CD0
:1051500085F804B0BC4202D340F23E20DDE00EB13F
:10516000287930552120641C2871BC4202D340F2BA
:105170003F20D2E00EB1287930551120641C2871EF
:10518000BC4202D34FF41070C7E00EB128793055FD
:105190000120641C2871BC4202D340F24120BCE0D3
:1051A0000EB128793055641C85F80490BC4202D3B6
:1051B00040F24220B1E00EB1287930555046641CCF
:1051C00000F0D2F82871BC4202D340F24320A4E0A0
:1051D0000EB1287930555046641C00F0C5F888F8A7
:1051E000020088F8039036E0DAF81000BC4250F86C
:1051F00021000079287102D34FF413708DE00EB1B5
:105200002879305598F803105046641C00F0B4F823
:10521000A8F806002871BC4202D340F24F207CE07F
:105220000EB128793055B8F80600641C000A2871C0
:10523000BC4207D34FF414706FE072E05FE053E0BC
:1052400047E03BE00EB12879305598F80310491C2F
:1052500088F80310641C98F8031098F80220404660
:105260009142C1D3816849780171494688F8039019
:1052700061E007202871BC4202D340F259204CE083
:105280000EB1287930550520641C2871BC4202D328
:1052900040F25A2041E00EB12879305598F80310B9
:1052A000641CD8F80800FCF721FAC8F80C00007854
:1052B0002871BC4202D340F25E202EE00EB1287964
:1052C00030550320641C2871BC4202D340F25F2099
:1052D00023E00EB1287930554020641C2871BC426F
:1052E00002D34FF4187018E00EB128793055641CC1
:1052F00085F80490BC4202D340F261200DE00EB16B
:105300002879305598F80300DAF83010641CBC4254
:10531000085C287105D340F2622028600120BDE8B6
:10532000F09F0EB12879305598F803104046491C7B
:1053300088F80310641C0279C9B2914299D341786C
:10534000491C88F8011098F8011098F80000814273
:10535000FFF488AE40F26620DFE70020C5F8009039
:10536000DDE7000030020020007D7047006950F842
:105370002100806810447047006950F821000068DF
:10538000704710B50C460979012901D0062010BDDF
:1053900000F037F8D0E90012601CBDE81040FCF7BF
:1053A00025BBFEB50646FCF796FD346805460C3471
:1053B00003212046FCF739FF304600F022F801684F
:1053C00094F832200A7000224A708A70CA700092E3
:1053D0000192029201680091406801901046FDF729
:1053E0000DF969462846FCF799FB18B903212046B8
:1053F000FCF72AFF0020FDF703F90020FEBD062080
:10540000704770B500F1100405682046FCF701FFF5
:1054100004213F35C0E900512046BDE87040FCF74B
:10542000F8BE2DE9FE4F0168074601F10C0AFCF7B2
:1054300052FD834603215046FCF7F7FE38463C6890
:10544000FFF7DFFF066894F83E0096F80090307092
:10545000B4F93800FFF76AFD0546208F401B20870E
:105460007570B4F93A00FFF761FD8046608FA0EBDC
:105470000800608786F80280B4F93C00FFF756FD0B
:10548000A18F45EA0805091AA187F07005434FF07E
:10549000000405D13178494502D10020BDE8FE8FD6
:1054A0003846FFF7AEFF0094019402940168009122
:1054B000406801900020FDF7A1F869465846FCF7C6
:1054C0002DFB040003D103215046FCF7BDFE002054
:1054D000FDF796F82046E1E741B1012906D00229FF
:1054E00006D0032904D10220FDF76AB9FFF72ABDCF
:1054F00070472DE9FC41024690F828004FF6FF74F2
:1055000000B30020009040F2FF7C6F46019013181A
:105510001B7A9B0027F8103061450DD102EB800605
:105520007569B5F5006F07D005F2FF75B5FBF3FEA1
:1055300003FB1E556D1C7561556825B1032110468E
:10554000FCF769FE14E002EB80056D690D44B5FBC4
:10555000F3F603FB16550A26B3FBF6F39B1C9D429C
:1055600007D392F829301BB1401CC0B20428CED317
:105570002046BDE8FC810000FEB5002604460096EA
:10558000019602968068E9B3D0E950128A4272D03F
:10559000D0F83C0100286ED02046FEF734FCA0680D
:1055A000D0F84451002D69D00023092269462846CD
:1055B00002F04FFDA1689DF808500098C1F8440121
:1055C000A06800230922D0F84401694602F041FD99
:1055D000A1689DF808200923D1F844012031521C0C
:1055E00002F037FDA1689DF80800C877A1689DF812
:1055F000080088779DF80800A84202D22046FDF7EF
:1056000021FD00E00BE0A3682BA2082120462033F7
:1056100001F014FB2046FEF720FC68BB43E0D0F805
:105620004401002847D02046FEF7EDFBA068002388
:105630000922D0F84401694602F00BFDA0680199E7
:10564000C0F84411A0680029857FB9D1A030FEF7C9
:1056500011F80028A06805D000F1A0012030FBF768
:105660003CF801E080F82060A0682030FEF702F8E6
:105670008DF80800B6E71EE01AE0FFE72030FDF7DE
:10568000F9FF10F0FF05A068D0F83C11C0F84411F4
:10569000A06805D000F12001A030FBF71EF88FE7CD
:1056A00080F8A0608CE72046FFF7E7F8002802D0DA
:1056B0002046FEF7F1FBFEBD25730000FEB50D464A
:1056C000816804460026D1F83C0138B30023092242
:1056D000694602F0BEFC0195A06800230922D0F8BB
:1056E0003C01694602F0BDFC0196A068D0F83C116F
:1056F0000091807F8DF80800A068C0F83C5100231D
:1057000009226946284602F0ACFCA1680923284614
:105710008A7F2031521C02F0A4FCFEBDC1F83C512E
:10572000A068C0F8405100960196A068807F8DF86F
:105730000800E4E7FEB504468068D0F84061002E1A
:1057400028D0002309226946304602F082FCA16875
:1057500001980025C1F84001009501952B460922CA
:1057600069463046029502F07CFC304602F043FC6C
:10577000A168D1F8400170B100230922694602F006
:1057800068FC0095A06800230922D0F84001694612
:1057900002F067FCFEBDC1F83C51FEBDFEB50446FB
:1057A00080682030FDF766FF10F0FF05A0684FF01D
:1057B0000006C0F8446133D0A068D0F83C01E0B1E5
:1057C00000230922694602F044FC9DF80820AA4201
:1057D00013D1A068092300F1A001D0F83C01521CAC
:1057E00002F037FCA06800F1A0012030FAF75AFF60
:1057F0000028A06880F8A06012D000260A3529464B
:10580000606902F0C8FB0100204604D003B0BDE887
:10581000F040FFF753BFFFF78DFF761C082EEED345
:10582000FEBD000010B516490220FDF7D7F808B1FB
:10583000FBF7B6FD002116220846FDF7ADF808B1CA
:10584000FBF7AEFD172200210120FDF7A5F808B1F6
:10585000FBF7A6FD182200210220FDF79DF808B1F4
:10586000FBF79EFD192200210320FDF795F808B1F2
:10587000FBF796FDBDE810400120FCF777BF000064
:105880001929000000B589B01348FDF73FF808B1A9
:10589000FBF786FD2022114901A8FAF7CAFE06206F
:1058A00001900820029000208DF81800032000903D
:1058B0000A4801231A4601A9843801F02BFB08B1DC
:1058C000FBF76EFD0548843801F0DCFB002801D0B1
:1058D000FBF766FD09B000BD1929000048B40000BF
:1058E0002DE9FC5F0E008346DDE90C47C6F10000A0
:1058F00098469246814600D40846012503E000BF41
:1059000090FBFAF06D1C5045FADAA84500D94546DF
:1059100024B1002E01DB780700D5641EB80702D53C
:10592000B8F1000F0AD0F80708D13CB1A54205D262
:1059300020215846641EFDF7C5F9F6E7002E02DA6D
:105940004E462D2102E0780703D52B215846FDF75E
:10595000B9F907F0030002280BD1B8F1000F08D104
:105960003CB1A54205D230215846641EFDF7AAF984
:10597000F6E7CDE90047434652463146584605F022
:105980001FF9BDE8FC9F000070B50D460446006895
:105990004FF4887102F024FE4FF49071206802F0F9
:1059A0001FFE4FF49271206802F01AFE4FF4A271AC
:1059B000206802F015FE4FF4AC71206802F010FE72
:1059C00020681249C0F804132068690740F30730C3
:1059D000090E002804DB00F1E02080F8001405E047
:1059E00000F00F0000F1E02080F8141D206840F363
:1059F0000730002809DB00F01F0201219140400917
:105A0000800000F1E020C0F8001170BD10034200DA
:105A1000024600201268530713D502F00300012844
:105A200002D002280CD105E0C2F383100B68801C61
:105A3000184404E00223086803EB92521044086003
:105A40000120704710B5FAF751FE08B1002010BDD3
:105A5000012010BD0268134602E08A4204D0126899
:105A6000002AFAD10B6001607047000010B50121D7
:105A70000D48FCF738FB00284FF0010002D0FCF77E
:105A8000BDFE01E0FCF7B2FE02210748FCF72BFB4C
:105A900000284FF0000003D0BDE81040FCF7AEBE78
:105AA000BDE81040FCF7A2BE14B400000A4810B5CF
:105AB000807860B1002401E0022C06D02046FCF77B
:105AC00095FE641C042CF7D310BD0324F6E7BDE853
:105AD0001040FCF7AFBE0000A4000020034801798D
