:020000040000FA
:10000000A8270020F90200000103000003030000FC
:1000100005030000070300000903000000000000C2
:100020000000000000000000000000000B030000C2
:100030000D030000000000000F030000110300008A
:100040001303000013030000E90400001303000081
:100050001303000013030000130300001303000048
:100060001303000013030000130300001303000038
:100070001303000013030000130300001303000028
:100080001303000013030000130300001303000018
:100090001303000013030000130300001303000008
:1000A00013030000130300001303000013030000F8
:1000B0001303000013030000000000000000000014
:1000C00013030000130300001303000013030000D8
:1000D00013030000130300001303000013030000C8
:1000E00013030000130300001303000000000000CE
:1000F00000000000130300000000000013030000D4
:1001000000000000000000000000000000000000EF
:1001100000000000000000000000000000000000DF
:1001200000000000000000000000000000000000CF
:1001300000000000000000000000000000000000BF
:1001400000000000000000000000000000000000AF
:10015000000000000000000000000000000000009F
:10016000000000000000000000000000000000008F
:10017000000000000000000000000000000000007F
:10018000000000000000000000000000000000006F
:10019000000000000000000000000000000000005F
:1001A000000000000000000000000000000000004F
:1001B000000000000000000000000000000000003F
:1001C000000000000000000000000000000000002F
:1001D000000000000000000000000000000000001F
:1001E000000000000000000000000000000000000F
:1001F00000000000000000000000000000000000FF
:10020000DFF80CD000F09CF8004800473D0B0000E0
:10021000A827002030B4044654E8000F0D4644E8F7
:100220000053002BF8D1156030BC704730B4044641
:1002300054E8000F40EA010544E80053002BF7D1D1
:10024000156030BC704730B4044654E8000F00EA33
:10025000010544E80053002BF7D1156030BC70470E
:1002600030B4044654E8000F80EA010544E8005326
:10027000002BF7D1156030BC704730B4044654E809
:10028000000F00EB010544E80053002BF7D1156087
:1002900030BC704730B4044654E8000FA0EB0105B1
:1002A00044E80053002BF7D1156030BC704770B4A0
:1002B00004464FF0000054E8006F0D68AE4207BFDF
:1002C00044E80023012044E800630E60002B1CBFBB
:1002D0000020F0E770BC704730B4044654E8000FCB
:1002E00088422CBF451A054644E80053002BF5D13F
:1002F000156030BC7047000006488047064800473C
:10030000FEE7FEE7FEE7FEE7FEE7FEE7FEE7FEE7C5
:10031000FEE7FEE7650300000102000040EA01037A
:100320009B0703D009E008C9121F08C0042AFAD2AB
:1003300003E011F8013B00F8013B521EF9D270476F
:10034000064C074D06E0E06840F0010394E8070022
:1003500098471034AC42F6D3FFF756FF381D000023
:10036000581D000030B54FF080520023D2E94C10E8
:10037000082906D1CC06C4F80C31C4F810314E4C13
:100380002360082955D14D4B1B684D4C23604B4BC6
:100390001B1D1B68241D2360484B08331B68241D4C
:1003A0002360464B0C331B68241D2360434B1033E2
:1003B0001B68241D2360414B14331B68241D2360DC
:1003C0003E4B18331B683E4C203423603B4B1C33A0
:1003D0001B68241D2360394B20331B68241D2360B8
:1003E000364B24331B68241D2360344B28331B6891
:1003F000241D2360314B2C331B68241D23602F4B9D
:1004000030331B682E4C403423602C4B34331B6834
:10041000241D2360294B38331B68241D2360274B80
:100420003C331B68241D2360244B40331B68241D70
:100430002360082904D1030002D1234C214B2360FF
:10044000082904D1030002D1204CFB232360082992
:1004500008D1030006D11E4B92F858521C6865F370
:1004600003041C60082904D1030002D1194C8B013C
:100470002360082906D118480168C90702D06FF027
:10048000010101601548016841F470010160BFF38A
:100490004F8FBFF36F8FD2E94C10082908D1032882
:1004A00006D94FF01020D0F8080203492031086027
:1004B0000C490B48086030BD3805004004040010AA
:1004C00020C50040488103008C56004018F50040CC
:1004D000E40E0040409602400004004088ED00E039
:1004E0000090D0035400002001480068004700003D
:1004F00014000020014A024900F013B8CB090000A3
:100500003C00002002E008C8121F08C1002AFAD1EE
:1005100070477047002001E001C1121F002AFBD183
:1005200070472DE9F04116460F460446002503E0CA
:100530003946B047641C6D1C20780028F8D1284645
:10054000BDE8F08172B600F02DFE00BF00F00CFD9A
:100550000028FBD111481249401AC408012000EBC1
:10056000044010A100F01AFE11480068C00700D036
:1005700000BE022000EB04400EA100F00FFEBFF30E
:100580004F8F0B48E43801680E4A01F4E0611143D3
:100590000160BFF34F8F00BFFDE70000701D00003A
:1005A000581D0000466174616C206572726F7200A4
:1005B000F0ED00E053797374656D207265736574B6
:1005C000000000000400FA050EB500210091CDE9FD
:1005D00001106A4644F20100FFF7B4FF0EBD10B5EA
:1005E0008268C368934203D000F0DCF9002010BD9C
:1005F000052010BD29B112B1531E134203D00920AA
:1006000070470E2070470160838000218160C160C7
:100610000846704710B58268C3689A1A83889A4260
:1006200003D800F0C9F9002010BD042010BD00005F
:1006300070B50A4E01460A48B578FFF7D0FF044668
:100640004DB10020B070711C0122C81D00F0A8FB44
:1006500008B1FFF7B9FF204670BD00001C00002064
:10066000A8020020F0B5244E89B01F460D000446B4
:1006700072603FD0A888296882B22048FFF7BAFF8D
:10068000002835D1A889A96882B21C481030FFF72C
:10069000B1FF00282CD1202219496846FFF73EFE01
:1006A00060690690207C00B101208DF814008DF85F
:1006B0001C70607C00B10E208DF81500E06802907F
:1006C000A068039020680190606800900A480D4A75
:1006D0006946083000F030FB002809D1B07020686E
:1006E000401C05D004490122491CC81D00F058FBDC
:1006F00009B0F0BD0720FBE71C000020A802002085
:10070000001D00008519000010B501461048FFF7D4
:1007100081FF040019D10F480F4A0178515C19B1CB
:10072000001D01F055F802E00C3000F02BFF60B91D
:10073000084907480839FFF752FF30B90549012237
:100740000839044800F03CFB0446204610BD000078
:10075000B8020020240000200000002000F002B8B1
:1007600000F008B872B602480168491C0160704781
:100770003800002003490868401E086000D162B6B6
:10078000704700003800002070B5054608680C4628
:10079000411C04D000F0C0FB206800F07EFB6068C4
:1007A000411C02D0002100F066FB2968A069C1F855
:1007B0002405607D227D29681043C1F86C05D4E9C9
:1007C00000122868C0F81425C0F80C15207D0128F7
:1007D00014D1A068411C02D0002100F04CFBE0685D
:1007E000411C04D000F098FBE06800F056FBD4E90F
:1007F00002122868C0F80825C0F8101570BD70B541
:10080000054608680C46411C04D000F08FFB2068A8
:1008100000F04DFB6068411C02D0002100F034FB69
:100820002968A069C1F82405607D217D2A680843F4
:10083000C2F86C05D4E900122868C0F80C15C0F89D
:100840001425207D012814D1A068411C02D000216C
:1008500000F01AFBE068411C04D000F067FBE06880
:1008600000F025FBD4E902122868C0F80825C0F87A
:10087000101570BD2DE9FC410646C0074FF000057C
:100880000ED0104F00240122385D00950023114640
:10089000019500F0A5FA641C042CF4D300F01CF8B8
:1008A000B0070DD5074E0024361D0022305D03230E
:1008B00000951146019500F093FA641C042CF4D3C2
:1008C000BDE8FC81F01C00000249085C012100F039
:1008D00037BB0000F01C000010B500242046FFF7D5
:1008E000F3FF641C042CF9D310BD00002DE9F04780
:1008F0000546861C91460F464FF0010A0020FFF77F
:100900002DFF1B4C04F21C4860683860D4E90101DB
:10091000184F401A3968081A0EE00121404600F0CD
:10092000BAF900F0B9F80146404600F0B4F9D4E94C
:100930000101401A3968081A401C8642EDD8B9F105
:10094000000F03D0052065F3891002E0062065F34F
:100950009F5061683A68114004EB8101C86060688B
:10096000304460600020FFF7FBFE5046BDE8F08792
:1009700088030020400000200448816840688142CC
:1009800001D101207047002070470000880300203B
:1009900010B50021024800F089F980F3100010BD65
:1009A000A4070020826883881A4003689A5C0A7052
:1009B0008168491C81607047C26883881A40036857
:1009C0009954C168491CC160704710B50446C0B253
:1009D000FFF79AFE204610BD70B50D46044600682C
:1009E0004FF4887100F06CFC4FF49071206800F0B7
:1009F00067FC4FF49271206800F062FC4FF4A27122
:100A0000206800F05DFC4FF4AC71206800F058FCE9
:100A100020681249C0F804132068690740F30730C2
:100A2000090E002804DB00F1E02080F8001405E046
:100A300000F00F0000F1E02080F8141D206840F362
:100A40000730002809DB00F01F0201219140400916
:100A5000800000F1E020C0F8001170BD10034200DA
:100A6000024600201268530713D502F00300012844
:100A700002D002280CD105E0C2F383100B68801C61
:100A8000184404E00223086803EB92521044086003
:100A900001207047704700002DE9FF4100262448DF
:100AA00000F0F6F82248001F074600F0F1F8214C4C
:100AB0002149A06800900D6800E000986946284030
:100AC00004EB80000C30FFF7CBFF0028F5D101AA22
:100AD000009901EA050304EB8303491CDB6842F833
:100AE0002030401C00910228F2D3019800F003004E
:100AF00001280BD0022810D10198032101EB90505E
:100B00000099BDF80A6001EB900005E00198BDF87E
:100B10000A60C0F3831008440090384600F0B5F82E
:100B200008B10098A06004B03046BDE8F081000034
:100B3000A007002088030020400000208AB0012088
:100B4000FFF798FE182221496846FFF7E7FB204887
:100B5000069020494FF48070CDE9070109900723E2
:100B60001D4A06A96846FFF77DFD08B1FFF72CFD79
:100B70001AA0FFF7BFFC06A8FFF75AFD0028FAD11C
:100B80009DF81800FFF7C0FD0028F9D19DF8180066
:100B9000712801D05128EED117A0FFF7ABFC0B4E06
:100BA0004FF47A75083EAF01741C3846A0476D1E9D
:100BB000FAD1BFF34F8F13480168134A01F4E06183
:100BC00011430160BFF34F8F00BFFDE7D81C000049
:100BD0005800002058010020711900000D0A5541ED
:100BE0005254206578616D706C6520737461727405
:100BF00065642E0D0A000000200D0A4578697421F5
:100C00000D0A00000CED00E00400FA052DE9F047A4
:100C1000C5881E1DB6FBF5F78946B6FBF5F10446FF
:100C200005FB176C407916686843DDF820A0F718BB
:100C3000001F874200D9C61A166001E02468491EC9
:100C40000029FBD1A5EB0C078846B74216D818E05F
:100C500004EB0C00001D09EB0803BAF1000F3A4643
:100C600002D00146184600E01946FFF757FB2468FA
:100C7000F61B4FF0000CB844B54201D9374600E0EE
:100C80002F46002EE4D1BDE8F087002100F009B81E
:100C9000012100F010B808B56A46FFF7EEFA009897
:100CA00008BD08B56A46FFF7CEFA08BD08B56A4622
:100CB000FFF7B0FA08BD08B56A46FFF7B7FA009823
:100CC00008BD08B56A46FFF7E5FA009808BD70B59B
:100CD000044600252846FFF741FD21686268086840
:100CE00090420ED9401E08600178238AE26801FB19
:100CF0000325227A2168101AC0B20A79824200D2F2
:100D000008710020FFF72CFD284670BD70B5054620
:100D10000C460020FFF722FDE868298A201AB0FB64
:100D2000F1F12A681068431C13600170BDE870403F
:100D30000020FFF715BD0000F0B505460478154802
:100D400089B0164640F82420124A08690832A2F1F8
:100D50000C0742F82400487F385520226846FFF7E8
:100D6000DDFA04942878385C48B10EB10A4A00E0F4
:100D700000226946281D00F01DFC09B0F0BD0EB12F
:100D8000064A00E00022694605F10C0000F0C6FAB0
:100D9000F3E7000004000020851B0000291A000072
:100DA00030B40378054CE35C1BB130BC001D00F08F
:100DB00037BC30BC0C3000F01BBB00000000002032
:100DC00030B40378054CE35C1BB130BC001D00F06F
:100DD000A9BC30BC0C3000F081BB0000000000203A
:100DE0002DE9FF411C46DDE90A7815460E466846A6
:100DF00000F068F846EA450141EA840141EA072229
:100E000042EA0841009A00EB8200C0F80017BDE8F2
:100E1000FF812DE9FF411C46DDE90A7815460E46A3
:100E2000684600F05DF846EA450141EA840141EA7E
:100E3000072242EA0841009A00EB8200C0F800173E
:100E4000BDE8FF812DE9FF411C46DDE90A78154622
:100E50000E46684600F052F846EA450141EA840130
:100E600041EA072242EA0841009A00EB8200C0F8FA
:100E70000017BDE8FF811CB500220B460092114609
:100E80000192FFF7C6FF1CBD1CB500220B46009265
:100E900011460192FFF7D6FF1CBD1CB50021009141
:100EA0000B46012201911146FFF7B3FF1CBD1CB593
:100EB000002100910B46012201911146FFF7C2FF6C
:100EC0001CBD00000168202902D24FF0A0407047ED
:100ED00001F01F010160014870470000000300504D
:100EE0000168202902D24FF0A040704701F01F0195
:100EF000016001487047000000030050016820298C
:100F000002D24FF0A040704701F01F01016001487C
:100F1000704700000003005001B56846FFF7E0FF8E
:100F2000009A01219140C0F8081508BD01B5684636
:100F3000FFF7E4FF009A01219140C0F8081508BDB1
:100F400038B501240090684631B1FFF7BBFF009926
:100F50008C40C0F8084538BDFFF7B4FF00998C40BD
:100F6000C0F80C4538BD00002DE9F0478CB0FFF704
:100F700003FD18B100200CB0BDE8F0877D4C0020C7
:100F8000C4F81804BFF34F8F7B49A06802900D6826
:100F90004FF00008284004EB80000BE0D4F8180460
:100FA00070B961680298814201D8A160E2E72840E7
:100FB00004EB80000C3002A9FFF752FD0028EDD1B0
:100FC000002003AA029901EA050304EB8303491CEC
:100FD000DB6842F82030401C02910228F2D30398CB
:100FE00000F00300022802D001284DD0A7E00398AA
:100FF0005022810D8946B2EB905F00D850210E46F9
:1010000066F39F50039008315C4800F0DFF807005A
:1010100078D000F024F94346082203A9384600F0AE
:1010200031F9029908F1080A2940681A8000001D68
:10103000864222D94F4D0C3530B1C2B204EB81014A
:10104000301A90460C3104E02946F2B20025904651
:101050002846C6B25346384600F014F90AEB080396
:1010600025B132462946384600F00CF9029909F1BB
:10107000030001EB900002903BE004EB810153463A
:10108000324638460C31EFE70398C0F38310062848
:1010900000D30620039960F38911C1F38310801CEB
:1010A00003918100354800F091F8070047D000F027
:1010B000D6F84346082203A9384600F0E3F808F1C1
:1010C000080800260FE00298434600EA0501401C8C
:1010D00004EB81010290042238460C3100F0D2F872
:1010E00008F10408761C0398C0F38310B042EAD8D4
:1010F00047B1D4F81054D4F8180478B1384600F049
:10110000B2F831E01BE0E8684079012804D12A6890
:101110002846394612689047E8680568002DF2D1E4
:10112000384600F0A0F80020FFF718FBD4F81804A8
:1011300008B90298A0600020FFF712FB14E0D4F871
:10114000104405E02168204689688847E068046803
:10115000002CF7D10A480B49401AC008022101EBC4
:10116000004009A100F01AF8FFF706FC80F001002A
:1011700001E700008803002040000020781D0000E7
:10118000701D0000581D00004261636B656E647342
:1011900020666C75736865640000000000231A46C1
:1011A00000F070BB70B508480125D0F810440570F8
:1011B00007E0E06845712168204649688847E06893
:1011C0000468002CF5D170BD880300202DE9F041A2
:1011D000058A80462D1F4819C01CB0FBF5F0C6B229
:1011E0004046FFF774FD041E19D000202071012035
:1011F0006071E58000272546761EC4F800800BE06C
:101200004046FFF764FD60B16179491C6171286057
:1012100005467F1CC0F80080B742F1D32046BDE8E8
:10122000F081204600F002F80020F8E72DE9F041B7
:10123000457901466B1E002201E00968521C9A4262
:10124000FBD30F680146002605E038460C68FFF71F
:101250005DFD2146761CAE42F7D3BDE8F081012149
:10126000001DFFF718BD10B504460121001DFFF752
:1012700028FD10F0FF0F04D12046BDE81040FFF715
:10128000D5BF10BD1CB501920022009201AAFFF744
:10129000BDFC1CBD4058002800D00120704708B597
:1012A000002242504058009008BDD0F80403084086
:1012B00000D0012070474058002800D0012070471E
:1012C00008B5002242504058009008BD0121B1EB02
:1012D000507F01D1012070470020704770B50D4646
:1012E00000F084FA04000FD00020FFF737FA2079CD
:1012F00020B10020FFF734FA112070BD01202560D5
:1013000020710020FFF72CFA002070BD014902482F
:1013100000F0A2BB58020020002000402DE9F0415F
:101320000546007916460F4600EB40012D4A01EBB9
:10133000C00102EB810494F82A1011B10820BDE825
:10134000F081294951F820102868FFF7C7FF08B13C
:101350001120F4E739462846FFF716FA6660386927
:10136000206030004FF001062FD03F7F4FF48E7188
:101370002868FFF794FF4FF4A2712868FFF78FFFEA
:1013800028681A49C0F8041328684FEA471140F347
:101390000730002804DB00F1E02080F8001405E0AD
:1013A00000F00F0000F1E02080F8141D286840F3E1
:1013B0000730002809DB00F01F0106FA01F140099F
:1013C000800000F1E020C0F8001128680421C0F876
:1013D00000150020A061E06184F8290044F8140F92
:1013E000A675ACE758020020F81C0000800002003F
:1013F0002DE9F05F054600794FF4017600EB4003DC
:1014000003EBC000344B03EB80040020636813B18E
:101410002B68C3F80863A3694FF000096BB1E0695A
:1014200038B1606810B12868C0F804631120BDE8C5
:10143000F09FE2610120216105E0C4F82490A261DF
:10144000E160C4F81C9094F82910014302D12846A9
:1014500000F007FA60680028286803D0C0F8046329
:101460000020E4E74FF4A2763146FFF718FFB246BA
:101470004FF4927B59462868FFF70CFF06464FF45D
:1014800084712868FFF706FF804651462868FFF7F9
:1014900001FF074648EA07003043EBD056EA070051
:1014A00007D12146286800F0ADF9A169606A814240
:1014B000E0D8C4F818900EB10320B8E70FB10F20A0
:1014C000B5E794F8291001200029296801D00860A7
:1014D000C6E74860C4E70000580200202DE9F05F2D
:1014E000054600790B4600EB400101EBC0002449A2
:1014F00001EB8004284600F045F810B11120BDE84A
:10150000F09F62614FF00009C4F82090A36084F856
:1015100028904FF48E784E4641462868FFF7BFFE6C
:1015200028684FF0010AC0F808A02146286800F09A
:10153000F5F9606808BBD5F800B067690FE000BF37
:1015400094F8280008B10F2615E041465846FFF7E9
:10155000A1FE0028F4D02146584600F0DFF9206AA9
:10156000B842F2D3574641462868FFF793FE002859
:10157000F9D02868C760C4F814903046BFE700006F
:1015800058020020007900EB400101EBC000044943
:1015900001EB80004069002800D001207047000066
:1015A000580200200149024800F004BB84020020D8
:1015B000002000402DE9F0410546164600790F460F
:1015C000154A00EBC00102EB810494F8201011B120
:1015D0000820BDE8F081114951F820102868FFF774
:1015E0007DFE08B11120F4E739462846FFF707F9D8
:1015F0006660386920601EB1397F2846FFF7ECF934
:1016000028680821C0F800150020A061E061606131
:10161000012184F82010DCE784020020FC1C00007B
:101620002DE9F05F044600790E4600EBC001DFF8BB
:10163000F0A017460AEB81053046FFF747FEB0B130
:1016400068684FF000084FF4047910B12168C1F8C0
:101650000893A8694FF0000B80B1E86948B1686849
:1016600010B12068C0F804931120BDE8F09F10204D
:10167000FBE7EF614FF001082E6102E0EE60C5E983
:10168000067B00254FF488712068FFF719FE4FF4A0
:10169000A2712068FFF714FE2068C0F83465C0F816
:1016A00038752068B8F1000F12D0D0F8001241F060
:1016B0002001C0F800122079D04600EBC0010AEBEF
:1016C0008100406838B12068C0F804932846CCE710
:1016D00001210160EFE74FF4887A4FF4A279514677
:1016E0002068FFF7E8FD074649462068FFF7E3FD5D
:1016F00006464FF492712068FFF7DDFD014647EA88
:1017000006000843EBD0227902EBC20308EB830208
:10171000C2F818B001B10325002ED7D00F25D5E7A8
:10172000840200202DE9F04704460E46007927493F
:1017300000EBC00001EB800517463046FFF7C6FD01
:1017400030B1204600F044F820B11120BDE8F08708
:101750001020FBE76F61AE604FF490774FF0000808
:1017600039462068FFF7ACFD4FF4AC76314620686F
:10177000FFF7A6FD2068AA686969C0F84425C0F88B
:10178000481520684FF00109C0F808906868D0B982
:10179000BA4651462068FFF78EFD0746314620685D
:1017A000FFF789FD0743F4D010B14FF00F0808E0B0
:1017B0002068C0F80C9031462068FFF77CFD0028B7
:1017C000F9D0002068614046C0E700008402002094
:1017D0000079054900EBC00001EB8000406900285A
:1017E00000D0012070470000840200200349884295
:1017F00001D10348704700207047000000200040DE
:101800001400002070B5054688690C4600284FF486
:10181000847128460AD0FFF742FDD5F81805626AA0
:10182000E1688854606A401C606270BDFFF737FD54
:10183000D5F8180570BD1FB501238DF80030CDE92E
:101840000121D0E90012684690471FBD1FB5012352
:101850008DF80030CDE90121D0E9001268469047AB
:101860001FBD10B5044600684FF49271FFF717FDD5
:101870004FF484712068FFF712FD20680121016098
:1018800010BD00002DE9F84F0746224891468846D2
:1018900005681E46012269461846FFF727F8DFF85B
:1018A00078A060B3009800210446801C0AE000BFC5
:1018B00000EA050259F821C00AEB8202401C491CCB
:1018C000C2F80CC0B142F3D34FEA1749FFF760F8F2
:1018D000611C29400AEB810149EA00422C40CA60A0
:1018E0000AEB8401C86867F3C50066F3891068F3E2
:1018F0009F2020F00300401C20F00400C8609AF8EC
:10190000000001E0FFF730FB0028FBD1FFF7C2F831
:10191000BDE8F88F400000208803002070B50C4619
:1019200005464FF48E71FFF7BAFC216AA068415C4E
:10193000206A401C2062C5F81C1570BD1FB500222E
:101940008DF800200291816801914261D0E9001276
:10195000684690471FBD1FB500228DF800200291F8
:10196000816801914261D0E90012684690471FBD2D
:101970000178022901D0012902D14068FEF724BE76
:10198000704700007CB50178254DA1B301290BD02B
:1019900002291DD18DF80010C068691C0190012238
:1019A000C81DFFF7FDF930E0017A59B140680178B0
:1019B0001C48FEF72FFE1B4C012650B18DF800602D
:1019C00001900DE016490122491CC81DFFF7E8F9F6
:1019D0007CBDA068E168814205D000208DF8000040
:1019E000696868468847A068E168081AA188884243
:1019F000E8D9AE707CBDFFE70A4809491030FEF710
:101A0000EEFD30B103208DF8000069686846884714
:101A1000F0E70349012201F10800FFF7D1F9E9E7F6
:101A20001C000020A80200201FB50A4601788DF88E
:101A3000001041680191017A8DF80810C068039088
:101A4000044850F82210083850F822206846904781
:101A50001FBD00000C0000202DE9FF470C46054685
:101A60004FF40071FFF721FC01274FF401780026A5
:101A700018B34FF4927949462846FFF70BFCE0B1C2
:101A800049462846FFF70BFCC5F8088394F829005F
:101A900000B96F6002208DF80000D5F88004C5F809
:101AA00080040390A0690290E0680190A661E6615D
:101AB000D4E900126846904728E004212846FFF741
:101AC000F4FB18B34FF484712846FFF7E3FBE8B149
:101AD00021462846FFF796FE616AA069884215D123
:101AE000E06938B1E268616AA0612069E661666216
:101AF000E06008E094F8290000B96F60C5F8088339
:101B0000A661E268616A2046FFF795FE4FF48E7881
:101B100041462846FFF7BEFB80B16069216A8142D9
:101B200002D294F8280028B341462846FFF7B7FBB5
:101B3000606918B161692046FFF700FF4FF4A27891
:101B400041462846FFF7A6FB002818D04146284604
:101B5000FFF7A5FB94F8290000B12F60A0690028C9
:101B60000DD0A661E268616A04B02046BDE8F04786
:101B7000FFF761BE21462846FFF7D0FEDEE7BDE84D
:101B8000FF8700001FB50A4601788DF800104168F4
:101B90000191017A8DF80810C0680390044850F84C
:101BA0002210083850F82220684690471FBD0000D8
:101BB0000C0000202DE9FF410C464FF492770546BA
:101BC0003946FFF778FB0026B8B139462846FFF7BB
:101BD00077FB02208DF80000D5F88004C5F880045A
:101BE0000390D5F83C050290E0680190A661E6619B
:101BF000D4E900126846904723E04FF488773946CD
:101C00002846FFF758FBE0B139462846FFF758FB56
:101C1000D5F83C15A069884213D1E06960B1E2684B
:101C2000D5F8000220F02000C5F80002E069A061AC
:101C30002069E661E06001E0A661E2682046FFF706
:101C400005FE4FF4A27739462846FFF734FB68B10A
:101C500039462846FFF734FBA06938B1A661E66132
:101C6000D5F83C152046E268FFF7F0FD4FF490767A
:101C700031462846FFF71FFB60B131462846FFF783
:101C80001FFB0120E860606920B1D5F84C152046A3
:101C9000FFF761FE4FF4AC7631462846FFF70BFBA9
:101CA00000280ED031462846FFF70AFB606900285D
:101CB00007D0D5F84C1504B02046BDE8F041FFF739
:101CC0004ABEBDE8FF8100000000000000000000E7
:101CD0000338FDD870470000140000000D0000001C
:101CE00005000000070000000000000000E0D70130
:101CF000070E0F100B0C18190D130000A51500008E
:101D0000FFFFFFFFFFFFFFFFFFFFFFFFFFFFFFFFE3
:101D100000000000000000000000D60106010000E5
:101D20005052530055415254000000005541525446
:101D300045000000617070008C1D00000000002054
:101D40005800000004050000E41D000058000020B9
:101D50005027000014050000201D000000000000B6
:101D6000241D0000000000002C1D000000000000E9
:101D7000341D0000000003034C000020440000203C
:101D80004C000020C80200201800000000000000E5
:101D90000000000000000000000000000000000043
:101DA0000000000000000000000000000000000033
:101DB0000000000000200040000000000020004063
:101DC000000000000000000000000000FF00000014
:101DD0000000000000000000000000000000000003
:041DE0000090D0039C
:0400000500000201F4
:00000001FF
