:020000040002F8
:10700000E0600020D9740200E1740200F97202000D
:10701000E5740200E7740200E97402000000000059
:10702000000000000000000000000000EB740200FF
:10703000ED74020000000000EF740200F174020021
:1070400011790200F3740200B97A0200F3740200AD
:10705000F3740200F374020079760200F374020004
:10706000F3740200F3740200F3740200F37402007C
:10707000F3740200F3740200F3740200F37402006C
:10708000F374020021790200F3740200F374020029
:10709000F3740200F374020031790200F374020009
:1070A000F3740200F3740200F3740200F37402003C
:1070B000F3740200F37402000000000000000000FE
:1070C000F3740200F3740200F3740200F37402001C
:1070D000F3740200F3740200F3740200C57A020034
:1070E000F3740200F3740200F37402000000000065
:1070F00000000000F374020000000000F3740200BE
:10710000000000000000000000000000000000007F
:10711000000000000000000000000000000000006F
:10712000000000000000000000000000000000005F
:10713000000000000000000000000000000000004F
:10714000000000000000000000000000000000003F
:10715000000000000000000000000000000000002F
:10716000000000000000000000000000000000001F
:10717000000000000000000000000000000000000F
:1071800000000000000000000000000000000000FF
:1071900000000000000000000000000000000000EF
:1071A00000000000000000000000000000000000DF
:1071B00000000000000000000000000000000000CF
:1071C00000000000000000000000000000000000BF
:1071D00000000000000000000000000000000000AF
:1071E000000000000000000000000000000000009F
:1071F000000000000000000000000000000000008F
:10720000DFF80CD000F0FAF900480047D1BD0200C9
:10721000E060002030B4044654E8000F0D4644E816
:107220000053002BF8D1156030BC704730B40446D1
:1072300054E8000F40EA010544E80053002BF7D161
:10724000156030BC704730B4044654E8000F00EAC3
:10725000010544E80053002BF7D1156030BC70479E
:1072600030B4044654E8000F80EA010544E80053B6
:10727000002BF7D1156030BC704730B4044654E899
:10728000000F00EB010544E80053002BF7D1156017
:1072900030BC704730B4044654E8000FA0EB010541
:1072A00044E80053002BF7D1156030BC704770B430
:1072B00004464FF0000054E8006F0D68AE4207BF6F
:1072C00044E80023012044E800630E60002B1CBF4B
:1072D0000020F0E770BC704730B4044654E8000F5B
:1072E00088422CBF451A054644E80053002BF5D1CF
:1072F000156030BC70470000094B1EF0040F1CBF26
:10730000EFF309801847EFF308800649064A8842E0
:1073100001D8904202D88D464FF000001847000077
:107320001D770200E0600020E040002030B450E80B
:10733000012F93B2C48923448489A34228BF1B1B15
:107340000489A34202BFBFF32F8F002007E0C3EAE6
:10735000020340E80134002CE9D14FF001000A603B
:1073600030BC704750E8012FC2EA024240E80121D8
:107370000029F7D1704730B450E8022F1FFAA2F36A
:10738000C488A34202BFBFF32F8F00200DE0C48941
:1073900023448489A34228BF1B1BC2EA034340E85D
:1073A0000234002CE8D14FF001000A6030BC704775
:1073B00050E8022FC2EA224240E802210029F7D118
:1073C0007047034653E8022FD988B2EB324F4FF093
:1073D000000017BF92B241EA014142EA014104E0D4
:1073E0005A68B2EB324F08BF012043E80212002A6C
:1073F000E8D1704730B4044654E8000F0D4644E825
:107400000053002BF8D1156030BC704730B40446EF
:1074100054E8000F40EA010544E80053002BF7D17F
:10742000156030BC704730B4044654E8000F00EAE1
:10743000010544E80053002BF7D1156030BC7047BC
:1074400030B4044654E8000F80EA010544E80053D4
:10745000002BF7D1156030BC704730B4044654E8B7
:10746000000F00EB010544E80053002BF7D1156035
:1074700030BC704730B4044654E8000FA0EB01055F
:1074800044E80053002BF7D1156030BC704770B44E
:1074900004464FF0000054E8006F0D68AE4207BF8D
:1074A00044E80023012044E800630E60002B1CBF69
:1074B0000020F0E770BC704730B4044654E8000F79
:1074C00088422CBF451A054644E80053002BF5D1ED
:1074D000156030BC704700000648804706480047EA
:1074E000FEE7FEE7FEE7FEE7FEE7FEE7FEE7FEE774
:1074F000FEE7FEE735790200017202002DE9F05F38
:107500000546002092469B46884606468146402412
:107510001BE0284641464746224600F05EF85346A7
:107520005A46C01A914110D311461846224600F01F
:1075300016F82D1A67EB01084F462246012000215C
:1075400000F00DF817EB00094E41201EA4F10104D4
:10755000DFDC484631462A464346BDE8F09F202AF4
:1075600004DB203A00FA02F1002070479140C2F19A
:10757000200320FA03F319439040704700487047F6
:10758000340E030040EA01039B0703D009E008C959
:10759000121F08C0042AFAD203E011F8013B00F8D8
:1075A000013B521EF9D27047D2B201E000F8012B24
:1075B000491EFBD270470022F6E710B513460A4673
:1075C00004461946FFF7F0FF204610BD421C10F894
:1075D000011B0029FBD1801A7047202A04DB203AC6
:1075E00021FA02F00021704721FA02F3D040C2F1E3
:1075F000200291400843194670470000064C074D91
:1076000006E0E06840F0010394E807009847103472
:10761000AC42F6D3FFF7F8FDF41A0300141B030085
:1076200070B58C1810F8015B15F0070301D110F844
:10763000013B2A1106D110F8012B03E010F8016B71
:1076400001F8016B5B1EF9D12B0705D40023521EF4
:107650000DD401F8013BFAE710F8013BCB1A921C5C
:1076600003E013F8015B01F8015B521EF9D5A1425A
:10767000D8D3002070BD00002DE9FC410025DFF8C3
:10768000948000954FF4807601242F460195304672
:1076900005F006FB38B1D8F80403204203D0304689
:1076A00005F0F4FA2543361D64007F1CB6B2082F9E
:1076B000EDD34FF4BE74204605F0F2FA48B12046EF
:1076C00005F0E4FA45F000456A460221002005F085
:1076D00045FA15F0FF0F16D0012600242E420ED0D9
:1076E00008EB8401D1F81005D1F81015C0F305207E
:1076F000094AC1F3014152F8242002B190477600B3
:10770000641C082CEAD3002D02DA684607F040FC1E
:10771000BDE8FC8100600040783500201CB5814642
:1077200005F06AFD05F0A2FB0028FBD12D485FEAB9
:10773000090507682C482D494FF00106A0EB010010
:107740004FEAD00006EB004417D0204628A1AA69D2
:1077500005F0ACFCD5E90201CDE90001D5E9002333
:10776000204629A105F0BAFCE8690090D5E9042378
:10777000204633A105F0A9FC03E020463AA105F01C
:1077800091FC1848001D0068800703D52046434936
:1077900005F088FCDFF80881002500BF06FA05F037
:1077A000384206D058F825201AB120463DA105F0F0
:1077B0007DFC6D1C1A2DF1D3380606D509480C3016
:1077C000026820463AA105F071FC380406D5054848
:1077D0001030026820463EA105F068FC484600F0E3
:1077E00085F8000028ED00E0941B0300241B030033
:1077F00048415244204641554C5420617420307811
:107800002530385800000000202052303A20203027
:107810007825303858202052313A202030782530D1
:107820003858202052323A202030782530385820DD
:107830002052333A2020307825303858000000009C
:1078400020205231323A2030782530385820204CD0
:10785000523A202030782530385820205053523A60
:107860002030782530385800537461636B20766976
:107870006F6C6174696F6E3A20737461636B207012
:107880006F696E746572206F7574736964652073B7
:107890007461636B20617265612E0000B40F030098
:1078A000F02C002043617573653A2025732E00008B
:1078B0004D656D4D616E616765204661756C742024
:1078C000416464726573733A20307825303858000B
:1078D000427573204661756C7420416464726573EF
:1078E000733A20307825303858000000BFF34F8FAE
:1078F00005480168054A01F4E06111430160BFF3E6
:107900004F8F00BFFDE700000CED00E00400FA051A
:1079100010B506F06FFABDE8104006F0EFB80000B1
:1079200002490248091F096800680847E82C00203E
:1079300005F006BF30B54FF080520023D2E94C105D
:10794000082906D1CC06C4F80C31C4F810314E4CCD
:107950002360082955D14D4B1B684D4C23604B4B80
:107960001B1D1B68241D2360484B08331B68241D06
:107970002360464B0C331B68241D2360434B10339C
:107980001B68241D2360414B14331B68241D236096
:107990003E4B18331B683E4C203423603B4B1C335A
:1079A0001B68241D2360394B20331B68241D236072
:1079B000364B24331B68241D2360344B28331B684B
:1079C000241D2360314B2C331B68241D23602F4B57
:1079D00030331B682E4C403423602C4B34331B68EF
:1079E000241D2360294B38331B68241D2360274B3B
:1079F0003C331B68241D2360244B40331B68241D2B
:107A00002360082904D1030002D1234C214B2360B9
:107A1000082904D1030002D1204CFB23236008294C
:107A200008D1030006D11E4B92F858521C6865F32A
:107A300003041C60082904D1030002D1194C8B01F6
:107A40002360082906D118480168C90702D06FF0E1
:107A5000010101601548016841F470010160BFF344
:107A60004F8FBFF36F8FD2E94C10082908D103283C
:107A700006D94FF01020D0F80802034920310860E1
:107A80000C490B48086030BD380500400404001064
:107A900020C50040488103008C56004018F5004086
:107AA000E40E0040409602400004004088ED00E0F3
:107AB0000090D003D02D002001480068004700004E
:107AC000142C00202DE9F0411A48D0F80453002668
:107AD00001240FE095FAA5F0B0FA80F7B80000F5A0
:107AE000807005F07BFF10B104FA07F0064304FA3A
:107AF00007F08543002DEDD1C6F3C05726F40005ED
:107B0000DFF834800AE000BF95FAA5F0B0FA80F6FD
:107B100058F82600804704FA06F08543002DF3D17B
:107B200008F07CFB002F03D0BDE8F04103F01CBE41
:107B3000BDE8F0810070024088090300C11700EB26
:107B4000D161074B4A1153F8222021F01F01411A3D
:107B500001208840024201D0012070470020704778
:107B600000E100E00FB41CB50246002007AC00297C
:107B70000BD0491ECDE90021054B6A4621460698E7
:107B800000F02AF8009A002111701CBC5DF814FB6B
:107B90003B80020002E008C8121F08C1002AFAD187
:107BA00070477047002001E001C1121F002AFBD17D
:107BB000704700000121202803DA81400548014078
:107BC00003E0402802DA2038814009B101207047E3
:107BD00000207047FC06FFBD2DE9FF4F8DB00F461A
:107BE0000546002606E025280BD0DDE90F12904758
:107BF0006D1C761C28780028F5D111B03046BDE800
:107C0000F08F0024A246A1460122EC4900E0044383
:107C100015F8013F203B02FA03F00842F7D128781B
:107C20002A2810D06FF02F022878A0F130010929FE
:107C300014D80AEB8A0102EB410144F0020400EB84
:107C4000010A6D1CF0E701CF5FEA000A03D544F496
:107C50000054CAF1000A44F002046D1C28782E2852
:107C600017D115F8010F44F004042A280ED06FF044
:107C70002F022878A0F1300109290AD809EB8901DF
:107C800002EB410100EB01096D1CF2E757F8049B80
:107C90006D1C28786C280FD006DC4C2817D068287B
:107CA0000DD06A2814D104E0742810D07A280FD19E
:107CB0000DE044F400140AE044F4801401E044F4BC
:107CC00040146978814202D104F580146D1C6D1C4A
:107CD0002A786E2A1FD00CDC632A31D004DC002AFB
:107CE0008BD0582A11D1A3E0642A68D0692A0CD11C
:107CF00065E0732A2ED004DC6F2A73D0702A04D179
:107D00009BE0752A6FD0782A6ED01046DDE90F12FD
:107D10009047761C50E1C4F30250022806D0032895
:107D200009D0042801CF09D0066045E101CFF11741
:107D3000C0E9006140E101CF06803DE106703BE112
:107D400017F8040B8DF8000000208DF80100EB46B9
:107D5000012003E057F804BB4FF0FF3061074FF0FC
:107D6000000102D40DE008F10101884649450FDA0F
:107D70008045F8DB1BF808100029F4D108E008F171
:107D8000010188468142FADB1BF808100029F6D170
:107D9000DDE90F23AAEB08008146214600F036F901
:107DA000304400EB080604E0DDE90F121BF8010B7C
:107DB0009047B8F10108F7D221464846F7E00A217A
:107DC000C4F302534FF0000B0891022B04D001CFF3
:107DD000C117032B09D00AE0FF1D27F00707F7E8BA
:107DE000020108E032E01FE020E000B2C117042BDE
:107DF00001D140B2C117031E71F1000307DA4FF041
:107E0000000CD0EB0C006CEB01012D2302E02305EC
:107E100004D52B238DF82430012303E0E30701D0A0
:107E20002023F7E7984658E00A2110E010210EE0E1
:107E300010204FF0000B08900CE010214FF0000BC9
:107E400044F004044FF00809089103E008214FF0C2
:107E5000000B0891C4F30253022B04D001CF002180
:107E6000032B06D006E0FF1D27F00707F7E8020105
:107E700003E080B2042B00D1C0B24FF0000823070A
:107E80002BD5702A07D0DDF820C08CF0100C5CEAEE
:107E90000B0C05D00EE040238DF82430012308E0C0
:107EA00050EA010306D030238DF824308DF82520C8
:107EB00002239846DDF820C08CF0080C5CEA0B0C1D
:107EC0000BD150EA010301D1630706D530238DF8A9
:107ED00024304FF00108A9F10109582A04D038A232
:107EE0000B9208AA0A920BE03AA2F9E75B46089ABD
:107EF000FFF704FB0B9B9B5C0A9A521E0A921370BD
:107F000050EA0102F2D10A98ADEB000000F1200B1B
:107F1000600702D524F4803401E04FF00109D9450F
:107F200002DDA9EB0B0000E0002000EB0B01414457
:107F30000890AAEB010AE00306D4DDE90F232146ED
:107F4000504600F063F806444FF0000908E009A924
:107F500011F80900DDE90F12904709F10109761CBB
:107F6000C145F4DBE0030CD5DDE90F232146504683
:107F700000F04CF8064404E0DDE90F123020904791
:107F8000761C0899481E08900029F5DC08E00A983C
:107F90000A990078491C0A91DDE90F129047761C76
:107FA000BBF10001ABF1010BF1DC21465046DDE9EC
:107FB0000F2300F019F806446D1C1BE60928010088
:107FC000303132333435363738396162636465664F
:107FD0000000000030313233343536373839414211
:107FE00043444546000000002DE9F04104460025C9
:107FF0001E461746880404D405E039462020B047C1
:108000006D1C641EF9D52846BDE8F0812DE9F041CC
:10801000044600251E469046C80301D5302700E0DF
:108020002027880404D505E041463846B0476D1C3A
:10803000641EF9D52846BDE8F0814A68002A06D0BA
:108040000A68531C0B6010704868401E48607047F7
:1080500090F82400012801D01F207047EE207047BF
:1080600010B501220221002002F002F808B1072811
:1080700010D107220221012001F0FAFF08B10728E0
:1080800008D100210A22084601F0F2FF08B10728B2
:1080900000D1002010BD000010B50321044801F0FC
:1080A00074FA002803D0BDE8104000F09BB810BD62
:1080B000DC2E0020022001F0F7BE000070B5002485
:1080C000064D06E06868012110F8340005F062FDF5
:1080D000641C28788442F5D3002070BD302C002029
:1080E000F8B516460C4605460A2A01D20720F8BD07
:1080F00005F048FE18B905F009FE0028F7D1134F26
:10810000202113487D603C70BE60FFF754FA0020C8
:10811000C7E904000F4E0DE005EBC4003168009183
:1081200081788DF8011000780B4A694605F07EFDD4
:108130000028DCD1641EE4B2EED2BDE8F840054868
:108140000021064A001D00F05FB80000302C00201E
:108150006C380020240A0300C1BA0200B5B2020044
:1081600072B605F049F800BF04F080FE0028FBD18C
:1081700011481249401AC408012000EB044010A124
:1081800004F090FF11480068C00700D000BE022034
:1081900000EB04400EA104F085FFBFF34F8F0B48A6
:1081A000E43801680E4A01F4E06111430160BFF355
:1081B0004F8F00BFFDE70000AC1B0300241B030032
:1081C000466174616C206572726F7200F0ED00E0C0
:1081D00053797374656D20726573657400000000D7
:1081E0000400FA050EB500210091CDE901106A46A0
:1081F00044F20100FFF7B4FF0EBD0000014803F098
:10820000C0B80000702C002010B55AB100684FF0C3
:10821000FF3401294261C0E9024400D0002101611C
:10822000002010BD072010BD38B511480823582282
:10823000416800910F49006803F0B3FF002815D191
:108240000D4A69460D4803F0A1F804000ED1012142
:108250000A4803F016F90123094A1946074803F0B2
:1082600068F80649012008390870204638BD00002A
:108270002C0A03009C3800205DF10200702C0020C5
:10828000FFFF7F00F8B50446002617460D468DF81F
:108290000060684600F0DCFED4E90201C04370EAE9
:1082A000010005D09DF8000000F0F6FE0020F8BDAA
:1082B00003F0ECFB40197141C4E902019DF8000094
:1082C00000F0EAFEA761206900B125612146BDE802
:1082D000F840002007F09CBC38B5044600208DF81B
:1082E0000000684600F0B4FED4E90201C04370EA21
:1082F00001000DD04FF0FF30C4E902009DF80000EE
:1083000000F0CAFE2146BDE83840012007F080BCDD
:108310009DF8000000F0C0FE002038BD70B5054695
:108320000548046905E02946204602F08DFE2068D4
:108330000468002CF7D170BD8C2C002070B5094862
:1083400004690CE0267A002505E02946204600F065
:10835000DDFC6D1CEDB2B542F7D320680468002C3B
:10836000F0D170BD8C2C002070B50A4804690DE076
:10837000267A002506E000222946204600F004FD6A
:108380006D1CEDB2B542F6D320680468002CEFD125
:1083900070BD00008C2C002070B5084905460620F1
:1083A0000C6907E02946204602F04EFE062803D15C
:1083B00021680C68002CF5D170BD00008C2C0020C9
:1083C0007CB504680B46154694F820100C34C90798
:1083D00005D0A16929B1206AA0B311207CBD082075
:1083E0007CBDE16EA9420CD31846A16EFFF7CAF816
:1083F000E06E401BE066A06E65672844A066002022
:108400007CBDC4E9063202F0ECFE05460F48006967
:10841000CDE90004E26E6AB1A16EA069FFF7B2F87F
:10842000E16EE069401AE061A0690844A0610020A3
:10843000C4E91B016946284600F076FA0028DFD11E
:1084400092207CBDFFE7C4E90832F9E7980A0300EF
:108450000068D0F8800070473EB50D4601681446AC
:1084600091F8201011F0010F0BD002F0B1FEA1061F
:1084700009D000210095CDE90141694600F07AFA62
:108480003EBD08203EBD0149896AF3E7980A030012
:10849000F8B5044600250FE0002705E0007800F05D
:1084A00057FA08B11120F8BD3946781CC7B23046DA
:1084B00000F09CF80028F1D12946681CC5B220467E
:1084C00000F0A6F80600E7D100250DE0002703E044
:1084D0000078214600F041FA3946781CC7B2304690
:1084E00000F084F80028F3D12946681CC5B2204664
:1084F00000F08EF80600E9D1074800E0086801683E
:108500000029FBD1046005486946806900906068D5
:10851000026820469047F8BD9C2C0020400A0300CA
:108520002DE9F04F87B04FF000081D46934689466D
:108530000446DDF840A04646CDF80C8000E0761CED
:108540006068012300224768214603A8B847002835
:10855000F5D140468DF800800027B84601903BE0F9
:10856000606801236A46D0F804C0214601A8E047AC
:108570006068012305AAD0F804C0214601A8E0479D
:108580009DF8141049451AD1D84514D19DF8000022
:10859000CAF8000005F8010B6A1C85F800906068B5
:1085A0009DF800302146456801A89B1EA847002081
:1085B00007B0BDE8F08F08F1010000F0FF08606827
:1085C0009DF800300022D0F804C0214601A89B1E6F
:1085D000E0479DF800000744B742C1D30520E7E714
:1085E00001480069704700008C2C002042788A42C4
:1085F00001D80020704782781044084470474278C0
:108600008A4201D80020704782781044084470479D
:10861000027A8A4201D80020704701EB41010930FB
:1086200008447047027A8A4201D80020704701EB63
:10863000410109300844704702484078002800D0C2
:10864000012070478C2C002010B5002000F058F954
:10865000BDE81040802000F053B910B5002000F0B4
:1086600051F9BDE81040802000F04CB970B50D46BE
:108670000146287806240B2813D007DC07284CD2A3
:10868000DFE800F04B0D0F114B2739000C2825D0E7
:108690000D2825D00E282CD085283ED110E00320AF
:1086A00014E0002439E0244803F0DAFD0028F8D073
:1086B000224801210160BFF36F8FBFF34F8FF0E7B6
:1086C0001D48001F0078032827D1042007F00AFD69
:1086D00023E0084600F050F804461EE0002005E0C4
:1086E0001748006810F0010F03D0022007F0FAFCD1
:1086F000D7E70120FAE7EB78032B0ED00E48001DD8
:1087000002683AB1002101604168184690470400B0
:1087100005D000E00E2406F087F9204670BD07F072
:10872000D9FC28B1A8780028F7D106F052F9F4E76F
:1087300006F04CF9F1E70000C02C00205C7002400C
:1087400038040040024A0146D2E900021047000006
:10875000543A002070B50C46054606F031F9A8429F
:1087600001D0102070BD0348D4E90012C0E9021204
:10877000002070BDBC2C00207FB5054605208DF87B
:10878000000006240DF1010006F026F907F0A2FC16
:108790002949002008609DF8010010F01F0006D054
:1087A00001280FD0022826D0032833D106E06946DD
:1087B000284606F019FF044606282AD16846FFF726
:1087C000EBFD25E09DF8050003A900F0BBFA0500CC
:1087D00008D06A469DF80C1000F094FA044606286A
:1087E00002D016E0102415E06A469DF80C102846C9
:1087F00007F00EF80CE09DF80500010705D069466A
:1088000000F05CF80446062803D1684606F06AFFCB
:10881000044624B106F008F904B0204670BD07F004
:1088200059FC30B106F0CCF80028F5D106F0D1F8AB
:10883000F2E706F0CBF8EFE7C42C00207FB5C08844
:1088400014460E46A04201D2054600E01546844279
:1088500007D2802005F0F0FEB4FBF0F100FB1140E0
:1088600080B100200096CDE9015000208DF80C0069
:1088700003A800F0EDFB6946802000F07BF80400BF
:1088800002D006E00120EDE705498020FFF762FFF6
:1088900004469DF80C0000F0FFFB04B0204670BDBC
:1088A000D40A030008B1402101600148704700006C
:1088B000A83A002005F0B4BD05F0CEBD10B50C46B9
:1088C000010600F00F02092A09D200F00BF8006837
:1088D00028B141680A682146BDE8104010471020C1
:1088E00010BD0000010600F00F0001D5034901E0B2
:1088F0000249483101EBC000704700000C3A0020EB
:1089000005F0EABD10B5044600F00F00082805D2B6
:10891000204605F003FE204605F0BEFE2046BDE8D9
:10892000104005F009BE000070B50C46054605F084
:1089300045FE18B105480078022801D0082070BD16
:1089400021462846BDE8704005F03ABE8C2C002038
:1089500010B5FFF7C7FF006810BD10B50C46FFF754
:10896000C1FF04601CB161680968416010BD00214D
:10897000FBE7000070B50C46054605F01FFE18B178
:1089800005480078022801D0082070BD21462846FD
:10899000BDE8704005F0B0BE8C2C00202DE9FC41F4
:1089A000044600782E4D4FF0000805280BD12D48C5
:1089B00000682C49C0B2091F096811F0FF0F04D1EB
:1089C000052802D1284C207838B3274F6946243F28
:1089D000386A03F0F9FB06001DD0206830608DF87E
:1089E000048001A800F034FB6888E968401A401C44
:1089F000F0801B4800210C3003F049FCB0809DF84A
:108A0000040000F049FB6946386A03F0FEFB0146AA
:108A1000204607F097FEBDE8FC81AE6905E03168AD
:108A200060888968884730684668002EF7D18DF8DD
:108A3000048001A800F00CFBE86808B96088688031
:108A4000074801210C3003F011FC9DF8040000F0F0
:108A500023FB0121204607F075FEE868DBE70000F4
:108A60008C2C002084740240640A030070B5774C9B
:108A700005460178207809297BD008DC092979D2BC
:108A8000DFE801F06A84B28D9FBBC283D7008229E0
:108A900027D017DC0A296ED00F296DD080293BD052
:108AA000812972D16A48FFF74DFE6948FFF736FC0D
:108AB0000D2007F055FEFFF741FCFFF7C5FD60698B
:108AC00050B906E0832931D0842937D085295CD17B
:108AD00093E06048007A00B1012005F0A9FF012071
:108AE0007EE0FFF72BFC05F0C9FF002006F0D8FF61
:108AF0005748401CFFF712FC5548401CFFF722FE68
:108B00000E2007F02DFE207800F088FA00283CD0D7
:108B1000BDE8704003F002BD052803D0062803D04D
:108B2000072832D102205BE0082059E003282CD12D
:108B300005F0C8FF002828D0042051E0032805D103
:108B400005F0C0FF10B1042006F0AAFF06F01AF8E5
:108B500000281AD0062043E0032801D0082803D1BA
:108B60003B48801CFFF782FF002007F0F9FD646995
:108B700009E060E009E060E044E02946204602F0B8
:108B800063FA20684468002CF7D170BDFFF7D6FB6C
:108B9000FFF763FD022006F083FF012005E00828AF
:108BA00009D0052006F07CFF032007F0D9FD2846F8
:108BB000FFF7C8FD44E0022006F072FF05F0AAFEB0
:108BC000F2E7032007F0CCFD2148C01CFFF7BAFDF7
:108BD0001F48C01CFFF7A2FB20780628A2D107205F
:108BE000BDE8704006F05CBF032006F059FF02208C
:108BF00007F0B6FD2846FFF791FB2846BDE8704018
:108C0000FFF7A0BD0F2019E0A878FFF76BFED0E9B1
:108C100000232946104698470028B6D0A8780107B7
:108C2000B3D000F00F010829AFD2BDE8704005F0C5
:108C30000FBD082002E0092000E00A2007F090FDA7
:108C40002846BDE87040FFF769BB00008C2C00206F
:108C5000510A03009C3A0020FFF7A0BE2DE9FC4119
:108C6000234C00250095234EA0684FF4006728B9D7
:108C7000211D306A03F0BEFAA060C0B1818869B1DD
:108C8000C188B94200D3C580C188ADF80210C1883F
:108C9000491CC1808188491E818022E0FFF7E6FEE1
:108CA0001349306A091D03F09AFAA5601CE0E068D8
:108CB00000281AD08DF8045001A800F0C9F9608886
:108CC000B84200D365806088ADF80200401C608027
:108CD000074801210C3003F0EBFA9DF8040000F086
:108CE000DBF96846FFF7C2FE0120BDE8FC81000009
:108CF0008C2C0020400A03000148FFF74FBE000003
:108D0000400A0300114642681368184770B50446CC
:108D100040680D46C2680AB1204690472046294661
:108D2000FFF776FC05464678002408E021462846F1
:108D3000FFF75CFC007805F0CFFB641CE4B2B442A2
:108D4000F4D370BD2DE9F04180460E480E4605690A
:108D500014E02F7A00240DE021462846FFF758FC46
:108D60000178414504D106B134702846BDE8F08150
:108D7000641CE4B2BC42EFD328680568002DE8D13A
:108D80000020F3E78C2C002070B50446406815469F
:108D90000E4683681BB120469847062803D120461B
:108DA00031460DB1072070BDFFF732FC054646780D
:108DB000002408E021462846FFF718FC0078FFF75A
:108DC000A1FD641CE4B2B442F4D3002070BD03469C
:108DD00000205A681269002A01D0184610477047CF
:108DE0002DE9F8432E4C054608234FF484722B4995
:108DF000206A03F0D6F910B10320BDE8F8832948B2
:108E000005F08EFD0028F8D12749087008614861F7
:108E100048212648FEF7CFFB244848214830FEF77A
:108E2000CAFB224878307DB195E80E00183080E802
:108E30000E00002003F0F6FB18B1852801D0FFF7E3
:108E4000D1F91B4D002611E004F138010EC9EDE700
:108E5000002703E000782946FFF77FFD3946781C9C
:108E6000C7B24046FFF7C2FB0028F3D13146701C61
:108E7000C6B22846FFF7CCFB5FEA0008E8D160687D
:108E800000906946284602F0DFF8040003D005F0A0
:108E900071FE2046B1E70020AFE700000439002052
:108EA000400A0300598C02008C2C00200C3A002050
:108EB000140B030030B1012807D0022808D105485F
:108EC000FFF76CBD03480838FAE70248001FF7E7D0
:108ED00070470000700A030010B505F069FD10B17D
:108EE00005F05CFD08B1082010BD044803F010FC3B
:108EF00008B1FFF777F9002010BD0000740A0300E5
:108F000070B50C460F4901EB800555F82400017837
:108F100031B10020FFF7C6FC002255F8241006E00E
:108F2000801C70BD521CD2B2491C20F812300B7844
:108F3000002BF7D1022101EB4201C9B241F440718B
:108F4000018070BDCC2C002070B54FF0805086B0F1
:108F5000D0F8A810D0F8A40089B241F440430090A2
:108F600009A20D2101A8FEF7FDFD01AD0024094E67
:108F700002E0285D3055641C2846FEF727FBA0421E
:108F8000F7D806B070BD0000253034582530385869
:108F9000000000000C3B0020074803E0016811F0CE
:108FA000010F07D00168C1F340010029F6D0034842
:108FB000FFF7F4BC7047000038040040450A030086
:108FC000034808B5806800906846FFF7E7FC08BDD5
:108FD000400A030030B44FF0000180B10D4B002275
:108FE00013F8124084420ED103EB4200407870B176
:108FF000094A02EB800252F8212042B100E0002031
:1090000030BCFFF77DBF521CD2B2062AE8D330BC79
:1090100000207047730B0300CC2C0020092808D2D5
:10902000DFE800F007070507070505050500012033
:10903000704700207047092808D2DFE800F00707D2
:109040000507070707070500012070470020704744
:1090500030B5EFF3108172B60D4A9468012324B144
:109060000370002900D162B630BD93604FF0E02359
:10907000D3F88051074C25401560C3F88041D3F8E0
:10908000844154605A17C3F8842100220270E8E733
:109090001C3B0020FC06FFBD0B498A68002A11D04A
:1090A00000280FD1EFF3108072B60B684FF0E0226A
:1090B000C2F800314B68C2F8043100228A600028EF
:1090C00000D162B6704700001C3B002070B5054619
:1090D00008680C46411C04D003F0B1FD206803F081
:1090E00011FD6068411C02D0002103F0F9FC2968E1
:1090F000A069C1F82405607D227D29681043C1F86C
:109100006C05D4E900122868C0F81425C0F80C15C5
:10911000207D012814D1A068411C02D0002103F059
:10912000DFFCE068411C04D003F089FDE06803F037
:10913000E9FCD4E902122868C0F80825C0F8101527
:1091400070BD70B5054608680C46411C04D003F09C
:1091500080FD206803F0E0FC6068411C02D0002123
:1091600003F0C7FC2968A069C1F82405607D217D52
:109170002A680843C2F86C05D4E900122868C0F8D0
:109180000C15C0F81425207D012814D1A068411CBD
:1091900002D0002103F0ADFCE068411C04D003F0D4
:1091A00058FDE06803F0B8FCD4E902122868C0F862
:1091B0000825C0F8101570BD102802D31038C0B2B1
:1091C000704740F08000704770B51500044609D024
:1091D0000020286034B1206820B1A079800703D036
:1091E000072070BD0E2070BD084600F01BFBC0B20A
:1091F000142804D02179814203D8042070BD0520B1
:1092000070BDE288216800FB02102860002070BD5C
:109210002DE9FC47002517880646158090F82D009B
:109220001446894630B13A462146484600F00EFBC6
:10923000051E09D1B0784FF00C0A18B32088C84633
:10924000001DB84202D95046BDE8FC87684679DF68
:109250000028F9D12088032108F80010208819215E
:10926000401C80B2208008F800102088401C80B28A
:10927000208000EB0801BDF8000006F098FE218870
:1092800008442080F0780222C8B1218896F9033082
:1092900001F1030C4846BC45D5D8425421884FF013
:1092A000010C491C89B2218000F801C02188491CA9
:1092B00089B2218009F801302088401C2080706824
:1092C000B8B1218890F9003001F1030C4846BC4543
:1092D000B9D8425421880A22491C89B221804254BB
:1092E0002188491C89B2218009F801302088401C5E
:1092F0002080308950B1CDE900474B46062202213B
:1093000006F1080007F044FA051E9DD1308A50B1DD
:10931000CDE900474B460722032106F1100007F074
:1093200037FA051E90D1308B50B1CDE900474B463E
:109330001522142106F1180007F02AFA051E83D120
:10934000306A30B13B462246494601F0D7FE051E41
:10935000DBD1706A30B13B462246494602F044FEFA
:10936000051ED2D196F82C0038B13B46224649461C
:10937000304606F04FF8051EC7D1307838B13B466D
:1093800022464946304602F0B9FE051EBDD12846A8
:109390005AE718B504460020ADF8000013466A46A7
:1093A000204600F006F8002802D0BDF80000204456
:1093B00018BD70B5E0B1DAB1002402E0045D2C44C0
:1093C000A4B2651C8D4206D21688A642F6D80619AC
:1093D00076789E42F2D18C420AD2A31C005D9BB2E9
:1093E00000B1401E0004000C02D01C188C4201D9B0
:1093F000002070BD138070BD80F8301070472DE9DB
:10940000F0410D00044606D02CB195F87A000026F4
:10941000012803D006E00E20BDE8F08195F8980001
:10942000012821D04FF00108A6702C2205F1780107
:10943000201DFEF7A7F884F83060D5F8A40060631B
:10944000D5F8A800A0634FF6FF70A4F8240404F533
:109450008260C4F82004C4F82664A4F82A6484F85E
:109460002C64207810B104E00720D5E7FF2084F8B1
:10947000540004F155072046C4F81074FEF7E8FDC7
:10948000A4F8140404F2144239462846FFF7C0FE3B
:109490000028C1D104F23120C4F818042046FEF798
:1094A000D7FDA4F81C0404F21C4205F13C00D4F8DA
:1094B0001814FFF7ADFE0028AED184F85180208B40
:1094C000A4F8480084F83C80266484F85060606901
:1094D00000216064454604F13C02781E72DF0028DA
:1094E0009AD1257098E710B50288102A1BD0112A4E
:1094F00020D0262A1DD1007A0C46012801D002284E
:1095000017D1A0780521401CB0FBF1F201FB12013C
:10951000204600F03AF800280BD0A16B002908D0B3
:10952000BDE810400847C27B012A02D18088A1F81B
:10953000240410BD0C46002184F82E148088B4F851
:1095400024148842F5D120790028F2D10121DFE7E7
:1095500010B5044690F8540074DF012084F82E04FE
:10956000002084F8300484F850000621204602F0E0
:1095700032FA002808D1A178204600F006F810B190
:10958000A16B01B18847002010BD2DE9F05F0446B2
:1095900000780F4698B1A7700025C4F82654A4F8A7
:1095A0002A5484F82C54A079012608B1012F09D03F
:1095B000E07980B1012F05D0022F03D00BE0082005
:1095C000BDE8F09F616B21B184F82D6408208847C5
:1095D00001E084F82D5404F2274100200A5C0AB10E
:1095E000304603E0401C0628F8D300204FF0020864
:1095F0004FF0030B012F06D0022F0CD0032F0FD0FA
:10960000042F15D110E0A17929B194F8241011B9D3
:1096100008B130460DE0E17911B108B1404608E0EB
:10962000207A08B1584604E0607A08B1042000E0CE
:109630002846A070616B41B1032801D0042804D1F1
:10964000607910B194F82E0498B184F82F5404F185
:109650003C0018210746FDF7AEFF84F83C6004F19A
:109660002C0005F063FC58B194F82C0084F85100EC
:1096700008E084F8305484F82F6407208847E6E730
:1096800084F8516094F8240058B104F1280005F0E2
:109690004DFC20B194F8280084F8520001E084F8D1
:1096A000526084F85050A27804F2264104F5826991
:1096B0004FF0060A052A64D2DFE802F07C030F228D
:1096C000420084F83160C4F82054C4E9101584F8CD
:1096D0003C808020A4F8480055E084F8318094F85C
:1096E0002420384612B10722027001E080F800B051
:1096F000228A8281C4F820544160E168B96042E066
:109700006069B860208BB88194F824003D46002839
:10971000204602D084F83CA001E084F83C6007F0C9
:1097200005F850B185F814800421204602F053F961
:1097300038BB052184F8311021E084F831B01EE0F7
:10974000E069B860208CB88194F824003D46002878
:10975000204602D084F83CA001E084F83C6006F08A
:10976000E5FF48B185F814800421204602F033F962
:1097700038B984F831A002E0042084F83100C4F83C
:109780002094A07878B13A4604F15400D4F820141B
:1097900072DF00287FF414AF94F8301094F854006E
:1097A00073DF0028F6D1616B11B194F8310088475E
:1097B000002005E784F83150F5E7000070B504009B
:1097C00012D001461C221448FDF7DCFE1248134D4E
:1097D0000560206850B17ADF002806D12068016852
:1097E00029604068686005E00E2070BD0B487BDF93
:1097F0000028FAD108484FF6FF711438084A20F8BB
:10980000041B0549343901600021FEF7FDFC0028E6
:10981000EBD0032070BD0000CC340020D82B0020FA
:109820006D00030010B5044600F006F808B12046AC
:1098300010BD142010BD0000142801D30020704773
:109840000146014802F0F7BCEC3400207CB5054627
:1098500008880C460930904201D90C207CBD68462E
:109860006DDF0028FAD121880820685420881B2148
:10987000401C80B2208029542088401C80B2208067
:109880002844DDF801100160BDF8051081802088B2
:10989000801D80B220809DF80010490800D0012171
:1098A00029542088401C208000207CBD70B5464D86
:1098B000018800226E8888B00446232947D02ADC1C
:1098C0004248434B1129A0EB03004FEAD0004FF070
:1098D000030303EB00402AD014DC012950D01029E7
:1098E0000ED13CA103F0DEFB3F480068FEF7F4FC1C
:1098F00008B1FEF777FC002000F0F4FAA088688039
:1099000008B070BD13291CD02129F9D10092A0887C
:1099100069468FDF21E03B292ED0512934D05229CE
:109920001ED05629ECD18088132176DF1DE02FA1AF
:1099300003F0B8FB4FF6FF70E1E700BFFEF752FC03
:10994000DEE700231A46852130467FDF0DE00092D6
:10995000019280880022694690DF0028EED1CFE78F
:1099600000231A4619463046B1DF0028C8D008B097
:10997000BDE87040FEF736BC8088132176DFF4E73F
:10998000A088002166DFF0E71022A11D04A8FDF7E2
:10999000F9FD9DF810100029B2D09DF81800042898
:1099A00003D0062801D00528AAD102290AD0012017
:1099B0008DF800004FF4C170ADF80400A08869462E
:1099C000B0DFCAE70220F3E7342B0020AC1B030012
:1099D000241B0300424C45204E555320636F6E6E8E
:1099E0006563746564000000AC080300424C4520C8
:1099F0004E555320646973636F6E6E65637465645E
:109A00000000000010B51A4C0188606810290ED0C3
:109A100011292BD1401E606028D1FEF721FB0028C0
:109A200024D02168002921D0BDE810400847D0B9D2
:109A300000210122084600F01BFB08B107280FD1C6
:109A400007220221012000F013FB08B1072807D1EB
:109A500004220221002000F00BFB20B1072802D0D5
:109A6000216801B188476068401C606010BD00003B
:109A7000D02B00202DE9F04701883B4E40F2F3192E
:109A80004FF6FF7510291BD011293ED0122954D052
:109A9000502946D1C188F289841D914241D1618902
:109AA00002293ED18688304602F028F8050038D0D9
:109AB00004F10C0000F0C1F9A8B3294630464EE08D
:109AC000C17B8788044601292BD1A846284602F08D
:109AD00015F8050017D02F80002028722348434630
:109AE0004A460168C5F80A104068C5F80E0004F13E
:109AF000100105F10A0002F0BDF86872F089002833
:109B00000FD129462AE0042013E0808801F0F6FFF7
:109B1000040006D06068FEF7DFFB08B105F052FCD8
:109B20002580BDE8F087FFE76868FEF7D5FB0028D1
:109B3000F7D0BDE8F04705F045BC878806463846B3
:109B400001F0DCFF0400ECD02B464A4606F1080188
:109B500004F10A0002F08EF8607221463846BDE832
:109B6000F04701F011BB0000CC340020D82B0020BE
:109B70002DE9F04F044686880188424897B0834615
:109B800010290CD0112950D0103019296AD01A2967
:109B900074D1217A0C09042C4DD301224CE0394DAB
:109BA000083DA868C0430B9069680BA802F064FBED
:109BB0000B990CA801F083FA2C220CA96846FDF73A
:109BC000E1FC0027E946A84610E000BF09EB47008A
:109BD0005FF00005B0F804A008EB85005146001DB9
:109BE00002F01EFB6D1C1E2DF6D37F1C0098B842A0
:109BF000ECD8142E05D317B00420BDE8F04FFEF7C3
:109C0000F1BA3146584602F021FB314608F1040012
:109C100002F01CFBE07B022830D117B03146BDE8D2
:109C2000F04F1848001D02F011BB17B03146BDE8D7
:109C3000F04F02F0F5BA0022314601F0C7FE032CC6
:109C400001D3012200E000220E4831460C3001F021
:109C5000BDFE022C01D3012200E00022094831465A
:109C6000083006E0217A002908D1617AC1F3C002E8
:109C7000314617B0BDE8F04F01F0A8BE17B0BDE8FF
:109C8000F08F0000F0340020F0B585B016460F4686
:109C900004001D4614D004AA19466069FFF794FA1F
:109CA00000280BD1A5F57F40FF380BD0049848B1B0
:109CB000007848B13088F42808D9072005B0F0BDF5
:109CC0000E20FBE70520F9E70820F7E700200090C9
:109CD000019002900390A088ADF8000001208DF85B
:109CE0000200CDE9026769462846AEDFE6E70000DC
:109CF00070B5334D04008EB02DCD08AE86E82D0032
:109D00005BD0E9B30868A061214608A862DF00289B
:109D100051D1207801258DF83200ADF83050A21CC9
:109D20000CA92846A8DF002845D120216846FDF768
:109D300042FC0220ADF8000020788DF802008DF87A
:109D40000C509DF80D00F426ADF8046040F00C00B6
:109D50008DF81150ADF806508DF80D008DF81250A9
:109D6000608804F10C02694601F0A6F8002822D1AF
:109D700020216846FDF71FFC0320ADF8000000E03D
:109D80001BE020788DF802008DF80C509DF80D0036
:109D90008DF81150ADF8046040F010008DF81250AD
:109DA000ADF806508DF80D008DF813506088221D17
:109DB000694601F081F80EB070BD0E20FBE700008F
:109DC0003009030070B588B00446002927D0002C64
:109DD00025D008462188102923D0502927D057297B
:109DE0001DD10546A188406906AAFFF7EDF90028B4
:109DF00015D1069E3078002811D0A86900280ED011
:109E000018216846FDF7D7FB01208DF80000019569
:109E1000A088ADF808000396A9696846884708B08D
:109E200070BD08B02146BDE8704004F05DBF08B0C9
:109E30002146BDE8704005F037B8007800F0010019
:109E4000704700F031B800000149085C704700001D
:109E5000E80803002DE9FC410646C0074FF0000565
:109E60000ED0104F00240122385D009500231146CA
:109E7000019502F0BFFD641C042CF4D300F04EF8F1
:109E8000B0070DD5074E0024361D0022305D032398
:109E900000951146019502F0ADFD641C042CF4D32D
:109EA000BDE8FC81E4080300094908B5085C00909E
:109EB000684602F06BFED0F80425009B0121994012
:109EC00021EA0203C0F808351140C0F80C1508BD9E
:109ED000E40803000249085C012102F0C4BE00004E
:109EE000E40803000249085C002102F0BCBE000047
:109EF000E4080300084908B5085C0090684602F0D1
:109F000045FED0F804050099C84010F0010000D0CB
:109F1000012080F0010008BDE408030010B5002412
:109F20002046FFF7D7FF641C042CF9D310BD10B5F1
:109F300000242046FFF7D6FF641C042CF9D310BD83
:109F400010B50246064B4FF0FF3000215C5C944296
:109F500001D1084610BD491C0429F7D310BD0000EB
:109F6000E808030010B5002000F0DEF908B106286B
:109F700006D1012000F0D8F908B1062800D1002050
:109F800010BD00002DE9F0470D468146FFF7D8FFD0
:109F90000446042836D2DFF874801B481C4EA8F112
:109FA0000C0725B3012D0ED0022D2BD104EB44005C
:109FB00030444578002D25D0B968002922D02846A4
:109FC000BDE8F047084704EB4401755C0E44717826
:109FD00049B10E4A4FF48041093A8068FEF752F9C0
:109FE00008B987F80390B17808F80410E2E78068B0
:109FF000FEF772F904EB4401314418F804008D783F
:10A00000A842D7D0BDE8F087EC0803006C2B0020F5
:10A010008C3400200146144810B54088042910D023
:10A02000072917D00A291ED1002000F043F808B1F3
:10A03000FEF7D8F8FFF796FF08B1FEF7D3F833DF45
:10A0400002E0132176DF0CE000280CD0BDE81040C0
:10A05000FEF7C8B8A0F57F41FF3904D10348FFF7E8
:10A0600077FA0828F0D110BD342B0020DC2E002018
:10A0700070B50023042810D20D4D00EB4004012AD6
:10A0800002D101290CD00022094E00EB40003044DF
:10A0900061B1012906D0022906D00723184670BDF8
:10A0A0000E30C2B22A55F9E74270F7E78270F5E741
:10A0B0008C340020044A014600201279D20702D0D5
:10A0C000084600F04DB87047602B002070B506467A
:10A0D0001E480024C0E90161B00720D500250122F7
:10A0E00011462846FFF7C4FF6D1C0446042D02D21A
:10A0F000002CF4D013E094B940F233320421144818
:10A10000FDF7EEFF04000AD1FDF7D8FF040006D1E9
:10A110000F48104A0021001FFEF776F80446F007AA
:10A1200012D00120FFF796FE74B909480A4A0021AF
:10A130000C38FEF769F8040006D10548074A0121EA
:10A140000838FEF761F80446204670BD602B0020F9
:10A15000F808030035A4020001BD0200B58002002A
:10A160002DE9F05F6E4C054600266078B34618B1C5
:10A1700084F801B001F0ACFD6A4F4FF47A694FF4F6
:10A18000C87A4FF00108182D69D2DFE805F00C13EA
:10A1900013384754696E727B727BC58484848484CF
:10A1A000B3B6B9BCC5C501F093FD3868FEF794F8A5
:10A1B00006465CE00020FFF79DFE00284FF00000FF
:10A1C00008D0FFF787FE022D02D14FF4E16008E0CE
:10A1D000484606E0FFF786FE022D01D1C82000E0C8
:10A1E0005046410CC0034FF47A72801841F10001CF
:10A1F000257052000023FDF781F901462AE0002076
:10A20000FFF778FE00284FF0000004D0FFF762FE51
:10A210004FF44870E5E7FFF765FEDFE70020FFF742
:10A2200069FE00284FF0000002D0FFF753FECFE791
:10A23000FFF758FED4E70020FFF75CFE00284FF040
:10A24000000002D0FFF746FE01E0FFF74BFE25704D
:10A2500040F6CD4100223868FEF714F8064646E085
:10A260000020FFF721FE257008E0002051E0257056
:10A270003DE084F801800120FFF716FE002240F245
:10A280006661E8E784F801800120FFF70DFE0022F7
:10A290004FF40051DFE77868FEF71EF80646D5F167
:10A2A000110000D02EB10220FFF714FE84F802B096
:10A2B0001DE0012816D980B2C8214843C117C9033F
:10A2C00041EA5041C0034FF47A72801841F1000115
:10A2D00052000023FDF712F9014600227868FDF7CD
:10A2E000D1FF06460220FFF7FDFD84F802803046CC
:10A2F000BDE8F09F01F0ECFCB9E701F0E9FCB4E740
:10A3000001F0E6FC04E001F0E3FC0020FFF7EAFDC9
:10A310000120FFF7E7FDAAE7FFF709FEA7E7000026
:10A32000602B0020EC080300012106F099BA000020
:10A330002DE9F84F0546861C00208DF80000914657
:10A340000F464FF0010A6846FEF782FE1B4C04F2EE
:10A350001C4860683860D4E90101194F401A396817
:10A36000081A0EE00121404601F080FF01F0DEFCFA
:10A370000146404601F07AFFD4E90101401A3968EC
:10A38000081A401C8642EDD8B9F1000F03D0052011
:10A3900065F3891002E0062065F39F5061683A6812
:10A3A000114004EB8101C8606068304460609DF832
:10A3B0000000FEF771FE5046BDE8F88FC03C00205B
:10A3C000782D002070B50D4604460A2902D10D21D2
:10A3D000FFF7F8FFA0682268411CA1601554D4E97A
:10A3E0000101814204D32046BDE8704002F009BA61
:10A3F00070BD0000044881684068814201D101209D
:10A400007047002070470000C03C0020034630B574
:10A41000074800210478426806E000BF02EBC10053
:10A4200005789D4203D0491CA142F7DB002030BDD6
:10A43000302C002000780221FFF7A4BD4360CA69D8
:10A440009A420DD38A690260886918448861086F4E
:10A4500018440867C869C01AC86100D00120704755
:10A4600001F12802026000208B67704770B5064634
:10A47000087800240D460F2838D2DFE800F03808AD
:10A480003838370C113737323738383838003046DB
:10A4900000F075FB2BE02946304605F06DF90FE022
:10A4A000304600F0F7FD0146A878002481421ED016
:10A4B0000106E9784FF0030004D531B901210CE021
:10A4C000044614E021B1012911D00329F8D10EE08E
:10A4D000304600F063FB04460021304606F03AF9AE
:10A4E00005E00321304606F035F9D0E70624204682
:10A4F00070BD00002DE9F05FDFF858960C7A054634
:10A5000089F800400068164688464FF0000A40F27D
:10A51000463254461F46A0F246314FF0020B90429D
:10A5200073D056DCB0F54A7F70D02BDC4FF4467206
:10A5300090426CD013DC40F21531A0F21533884202
:10A5400073D007DCA8B3A0F5407013386ED0012893
:10A5500071D18BE0012B6BD0022B6CD1ACE040F2BF
:10A560002131A0F22132884271D006DCA0F5407082
:10A5700019386DD001285ED1C5E0012A69D0062ABC
:10A5800059D1EBE040F23632A0F23631904278D029
:10A5900015DC40F22F31A0F22F32884271D009DC55
:10A5A000A0F5407029386DD004286CD0052842D120
:10A5B0001AE145E0052A67D0062A3CD141E1C91FCE
:10A5C000092938D2DFE801F0F837373737F7F6F5E1
:10A5D000F40013296FD00DDCA1F1030110292AD258
:10A5E000DFE801F0F6F5F4F3F22929F1F0EFEE29B6
:10A5F00029EDECEB37290FD00FDC292973D007DCCC
:10A60000142971D0282916D117E263E1B1E05EE088
:10A610002D296AD032290ED13FE2442971D008DCBD
:10A620003E296FD03F2906D158E22EE012E002E029
:10A6300036E04929F2D00020C5F800A0BDE8F09F1F
:10A6400008202871002F05D840F213300CE068E094
:10A650004CE071E00EB1287930700B200124287194
:10A66000012F03D84FF4457028602EE00EB12879F1
:10A67000305598F81400641C2871BC4205D3296039
:10A6800023E0BDE082E0A4E0D0E00EB128793055AF
:10A69000641C85F804B0BC4202D340F21630E3E7F4
:10A6A0000EB128793055641C85F804B0BC4203D340
:10A6B00040F21730D8E79FE10EB128793055641C7D
:10A6C00085F804B0BC4202D32A600120B6E70EB17F
:10A6D0002879305598F81900641C2871BC4205D3BC
:10A6E00040F21930C0E7B3E192E1C4E10EB128793C
:10A6F0003055641C85F804A0BC4204D340F21A30E3
:10A70000B2E7FFE1DFE10EB12879305589F801A009
:10A71000641C09E209202871BC4202D340F22130B6
:10A72000A2E70EB1287930550420641C2871BC4280
:10A7300002D340F2223097E70EB12879305599F8CC
:10A7400001104046641CFDF76DFFC9F80400007855
:10A750002871BC4202D340F2273085E70EB1287938
:10A760003055641C85F804A0BC4202D34FF44A70F3
:10A770007AE70EB128793055D9F80400641CBC4240
:10A780004078287102D340F229306DE70EB1287964
:10A790003055D9F8040098F81410641C00788142F0
:10A7A00039D185F804B0BC4213D340F22D305BE7B9
:10A7B00085E079E06DE061E04EE011E105E1F9E06E
:10A7C000EDE0E1E0D5E0C9E0BCE0AFE0A3E097E078
:10A7D0008BE00EB128793055641C85F804B0BC427A
:10A7E00002D340F22E303FE70EB12879305598F869
:10A7F0001900641C2871BC4202D340F22F3033E7A9
:10A800000EB128793055641C85F804A0BC4223D3CE
:10A8100040F23D3028E798F816108142F4D10A2022
:10A820002871BC4202D34FF44D701DE70EB1287958
:10A830003055641C85F804A0BC4202D340F2353088
:10A8400012E70EB128793055641C85F804A0BC428B
:10A85000D6D340F2363007E70EB128793055D9F813
:10A86000040098F81410641C0078814275D105200A
:10A870002871BC4202D340F24230F5E60EB128798D
:10A8800030552420641C2871BC4202D340F243306E
:10A89000EAE60EB128793055641C85F804A0BC4264
:10A8A00002D34FF45170DFE60EB1287930551020F5
:10A8B000641C2871BC4202D340F24530D4E60EB18C
:10A8C000287930550120641C2871BC4202D340F223
:10A8D0004630C9E60EB1287930550520641C287130
:10A8E000BC4202D340F24930BEE60EB12879305561
:10A8F0002420641C2871BC4202D340F24A30B3E6E3
:10A900000EB1287930550120641C2871BC4202D355
:10A9100040F24B30A8E60EB1287930550320641C74
:10A920002871BC4202D34FF453709DE60EB12879D2
:10A93000305598F81600641C2871BC4202D340F2CE
:10A940004D3091E60EB1287930550420641C2871F1
:10A95000BC4203D34FF4547086E65DE00EB1287913
:10A9600030552420641C2871BC4202D340F251307F
:10A970007AE60EB128793055641C85F804B0BC42E3
:10A9800002D340F252306FE60EB128793055641C84
:10A9900085F804B0BC4202D340F2533064E60EB1F5
:10A9A000287930550520641C2871BC4202D340F23E
:10A9B000563059E60EB1287930552420641C287190
:10A9C000BC4202D340F257304EE60EB128793055E2
:10A9D0000620641C2871BC4202D34FF4567043E633
:10A9E0000EB12879305598F81400641C2871BC42C7
:10A9F00002D340F2593037E60EB12879305598F835
:10AA00001600641C2871BC4202D340F25A302BE677
:10AA10000EB128793055641CD9F80410484649789D
:10AA200089F80210514689F803A075E007202871C3
:10AA3000BC4202D340F26E3016E60EB12879305592
:10AA40000520641C2871BC4202D340F26F300BE633
:10AA50000EB12879305599F80310641CD9F8040018
:10AA6000FDF7CDFDC9F8080000782871BC4202D37B
:10AA700040F27330F8E50EB128793055D9F804006A
:10AA800098F81410641C0078814211D103202871B9
:10AA9000BC4202D34FF45E70E6E50EB12879305522
:10AAA000641C40202871BC420DD34FF46170DBE57B
:10AAB00098F816108142F4D185F804B0BC42ECD36A
:10AAC00040F27D30D0E50EB128793055641C85F810
:10AAD00004A0BC4202D340F28530C5E50EB128790E
:10AAE0003055D9F8040098F81410641C007881429D
:10AAF00024D1D8F82000BC420078287102D340F25B
:10AB00008A30B1E50EB128793055641C99F80310EC
:10AB10004846491C89F803108278C9B2914285D30E
:10AB20004178491C89F8011099F8011099F8000042
:10AB30008142FFF4EFAD40F29A3095E598F8161097
:10AB40008142E3D185F804A0BC42DBD340F28F30D0
:10AB50008AE50000B02C002008B103207047086887
:10AB600010F80C1F202901D006207047D0F80210E1
:10AB7000C160C1880182017A817400207047026837
:10AB8000002102F10C0011845162D1629167D167FA
:10AB90004167343282668167704700002DE9FC47C7
:10ABA000046881460C3400F01CFB07462F48002641
:10ABB0008068CDE90004E069B0B1D4F878804546FA
:10ABC000404500D205462A4604F12801A069FCF759
:10ABD000D9FC206F2844C4E91C60A8EB0500E0669E
:10ABE00060192830A06627E0206F60672667E66658
:10ABF000216A304621B1626AA161C4E907202CE0D4
:10AC0000A06130E004F11802616A82E84300E26E5C
:10AC10001AB38A4215D3A36E0A461946FCF7B2FC52
:10AC2000E16EE069091AE166A16E0144A166606700
:10AC30000021484605F08EFD206A0028E2D1A66179
:10AC400011E0A16EFCF79EFCE06E2067E169091A35
:10AC5000E161A1690818A06105D069463846FDF791
:10AC600063FEBDE8FC870020FBE70000980A0300B4
:10AC70004360CA699A4204D38A6902600B67CB6158
:10AC800003E001F1280202608B670020704700009A
:10AC90002DE9F8438146474A474B03209A1A4FEA69
:10ACA000D208464C00EB084571B3012972D0444EDE
:10ACB000022914D003297BD1284642A102F0F2F9DF
:10ACC0002078002874D0022243F233317068FDF7F7
:10ACD000D9FA00286CD0BDE8F843FDF783BA3848AC
:10ACE00001223D490830FDF76BFB7068FDF7F4FA6F
:10ACF00008B1FDF777FA0220FFF7F4F82846BDE81F
:10AD0000F84336A102F0CEB96078334E401C607033
:10AD10000027C0B2311811F8011C0A2904D00D29EE
:10AD200002D0A188884225D3012822D90320FFF729
:10AD3000BBF86078ADF80000C11CF42907D22CA242
:10AD4000311812880A808F70C01CADF800001B48B3
:10AD500063886A4620490C30FEF796FF05281AD012
:10AD600013281ED0082804D01128E2D008B1FDF71E
:10AD700039FA67704846FDF76BFB6078012231189D
:10AD80000F480830FDF71CFB002811D16078401CEB
:10AD90006070BEE70CE028460F4A16A102F086F963
:10ADA000E7E7012101EB08401CA102F07BF9E0E795
:10ADB000BDE8F883241B0300AC1B0300342B0020E8
:10ADC000AC0803004344432041434D20706F72742C
:10ADD00020636C6F73656400D42D002043444320CE
:10ADE00041434D20706F7274206F70656E65640012
:10ADF0000D0A0000424C45204E555320756E617679
:10AE000061696C61626C652C20646174612072659B
:10AE10006365697665643A2025730000424C4520DD
:10AE20004E555320546F6F206D616E79206E6F7494
:10AE3000696669636174696F6E73207175657565A4
:10AE4000642E000005494FF0FF32082841F8202009
:10AE500002D3084480F8582070470000783500205D
:10AE6000F0B54FF0FF3512B10023082601E00823AA
:10AE70000C260C4C05E000BF54F823707F1C04D056
:10AE80005B1CB342F8D32846F0BD26185DB286F8A5
:10AE9000305044F82310002AF5D1E11881F8580009
:10AEA000F1E70000783500200249084490F93000AD
:10AEB00070470000783500202DE9F04381468878FE
:10AEC00091B090460C4600B901208DF83E002088D4
:10AED000ADF83C0000250095607C694604F0DEFA80
:10AEE0006E46A07C711C04F0D9FAE07B00289DF826
:10AEF000020002D040F0080001E020F008008DF8C8
:10AF00000200217C11B140F0100001E020F010009F
:10AF10008DF80200217B11B140F0010001E020F02A
:10AF200001008DF80200217D09B1022100E001211C
:10AF300061F342008DF802001C2102A8FCF73BFBE4
:10AF4000607BC10601D4800617D50E950EAFE07C5C
:10AF5000791C04F0A3FA9DF83800079720F00F0041
:10AF6000401C20F0F00010308DF838009DF83A00B9
:10AF700020F00600801C8DF83A00607B8DF80800F8
:10AF8000A07B8DF80900142109A8FCF714FB0FA879
:10AF9000CDE90906A088ADF83000A06820B1E088AE
:10AFA000ADF82C00A0680D90A06998B301950088B9
:10AFB000ADF81000A06901AD01A94088ADF81200FC
:10AFC000A069406806950390A069007B04F066FACA
:10AFD000A069691C407B04F061FAA069807A0028AE
:10AFE0009DF8060002D040F0080001E020F00800C3
:10AFF0008DF80600A169C97A11B140F0100001E096
:10B0000020F010008DF80600A169097A19B140F00E
:10B01000010002E00DE020F001008DF80600A169BA
:10B02000897B09B1022100E0012161F342008DF822
:10B030000600E06900B10590434609AA02A9484606
:10B04000AADF11B0BDE8F083426812681047000023
:10B0500070B5084C050009D010342168002907D0CC
:10B0600008682060496828468847F6E70834F4E70E
:10B0700070BD000064350020054A012120B101287F
:10B0800005D19170FFF7E4BF51700020FAE77047D7
:10B090006435002010B50021FDF7C4FA0021FDF74A
:10B0A000AEFA007810BD10B5D0E90234D1E9022023
:10B0B000D11AA04101D3012010BD002010BD73B5ED
:10B0C0008CB00646002000900D9880B100246D469B
:10B0D00021460DA801F0AFF830B1009805EB400013
:10B0E00084800098401C0090641C142CF0D32C2207
:10B0F00069463046FCF746FA0EB070BD2DE9F041C6
:10B1000017880646B81D14460D46984202D90C20F1
:10B11000BDE8F0813188072206290AD34FF4486C34
:10B120004FF6FF73614501D9994202D17088062814
:10B1300001D21046ECE7604501D99842F9D1994215
:10B1400003D0984201D08142F3D80520E8552088E9
:10B150001221401C80B2208029542088401C80B2DB
:10B1600020804119308804F022FF2188084480B2F1
:10B1700020804119708804F01AFF2188084420803B
:10B180000020C5E7FDF72EB838B54A7A0F4B62B1FB
:10B1900000220A725969002906D001228DF8002088
:10B1A000ADF802006846884738BD0A7A62B19B68EC
:10B1B0004C68024619462046FDF764F80028F3D093
:10B1C000BDE8384004F0FEB85B68F1E7CC340020FD
:10B1D00010B50121FDF726FA0021FDF710FA0078DD
:10B1E00010BD10B50121FDF71DFA0121FDF707FA89
:10B1F000007810BD70B588B0064600200590069016
:10B20000ADF81410ADF816100190029001AA05A92E
:10B21000304690DF050021D002F036FB034611488E
:10B2200011493246401AC108012000EB0140044692
:10B230000E4901F042FFBDF8042012B9BDF8060026
:10B2400028B1BDF80630204609A101F036FFBDF84F
:10B2500008201AB12046164901F028FF08B02846F8
:10B2600070BD0000241B0300241B0300380E0300E4
:10B2700054686520726571756573746564205458EF
:10B280002F5258207061636B6574206C656E677413
:10B290006820697320746F6F206C6F6E672062790D
:10B2A0002025752F2575206F63746574732E00003B
:10B2B000840E030070B500240F4D10E0686800EBA9
:10B2C000C406307802F01AFD7178012901D00121FD
:10B2D00000E000214140307800F0FEFA641C28783C
:10B2E0008442EBDBD5E90401084303D0BDE870409C
:10B2F00004F0AABC70BD0000302C002010B5002165
:10B30000024800F0C4FF80F3100010BDDC400020B4
:10B310004FF480328A400168C1F848230068C0F8C1
:10B32000082370474FF4A07202EB810189B200F04C
:10B3300043BB2DE9F04105460E464FF4A07000EBEB
:10B34000860081B228684FF48034B440984622F0D9
:10B350007F47C0F808432868C0F84843286802F0CF
:10B3600044F8286800EB8600C0F840752868C0F8EB
:10B370004443B8F1000F02D02868C0F80443BDE888
:10B38000F0810068D0F804057047000070B543797B
:10B39000234C44F823204279231D03EBC202224CA4
:10B3A0001579204A121BD4082DB10825022000EB84
:10B3B00004401EA130E005680A88C5F8082590F908
:10B3C00004208978002A4FEA411104DB02F1E022CF
:10B3D00082F8001405E002F00F0202F1E02282F888
:10B3E000141D90F904100122002909DB01F01F054A
:10B3F00002FA05F54909890001F1E021C1F800517F
:10B400004179002503EBC1010A71417943F831000C
:10B41000032000EB04400EA101F044FE284670BD5D
:10B42000E42C0020741B0300241B0300525443200F
:10B43000696E7374616E636520616C7265616479B5
:10B4400020696E697469616C697A65642E00000018
:10B450005254433A20696E697469616C697A656413
:10B460002E00000090F90400002809DB00F01F0204
:10B47000012191404009800000F1E020C0F8001255
:10B4800070470A46022100F01DBA4FF4827100F0A5
:10B4900093BA006801210160704700680121416092
:10B4A00070472DE9F05F07460C464FF4A07000EBA3
:10B4B00084001FFA80FA38684FF48036A6409B4615
:10B4C00022F07F45C0F848633868C0F808633868E0
:10B4D000D0F8048500EB8402D2F84095C2F840858C
:10B4E0005146386801F081FFA9EB080020F07F4049
:10B4F000012806D1102002F045FB5146386801F0C2
:10B5000074FF3868D0F80485C0F84463A5EB0801DF
:10B5100021F07F413868012900EB840010D0C0F889
:10B5200040553868D0F804156FF07F4C6A1A521EE7
:10B5300022F07F42ACEB0B03934217D362B118E0C9
:10B540006D1CC0F84055102002F01CFB3868D0F884
:10B55000040540450AD10CE000EB84006D1CC0F8E6
:10B5600040553868D0F80405884202D00D20BDE867
:10B57000F09F01223146384600F0A4F90020F6E79A
:10B580006FEA0061C90F61F31F107047010604499B
:10B5900000D5903100F00F0001EB00107047000063
:10B5A0003436002002F096B9812002F0C1B9822021
:10B5B00002F0BEB9832002F0BBB9842002F0B8B912
:10B5C000852002F0B5B9862002F0B2B9872002F0DA
:10B5D000AFB9000038B5882504F012FE2846FFF701
:10B5E000D5FF817B0124032915D00068002811D1E3
:10B5F0002846FFF7C5FF8440E1430C4802F024FAD7
:10B600000B480A49806800900C398DF8025049684F
:10B610006846884738BD2846FFF7B2FF8440E143BB
:10B62000BDE83840014802F00FBA0000282C002085
:10B630005409030038B504F0E3FD0020FFF7A6FF2E
:10B64000817B0124032906D0006870B1BDE8384031
:10B650004C2002F0E5B90020FFF792FF8440E1435F
:10B66000BDE83840094802F0EFB90020FFF788FF35
:10B670008440E143054802F0E7F905480349C06802
:10B680000C39009049686846884738BD282C00204E
:10B6900054090300012002F067B9022002F064B9E6
:10B6A000032002F061B9042002F05EB9052002F027
:10B6B0005BB9062002F058B9072002F055B9000026
:10B6C00038B5082404F09CFD2046FFF75FFF817B1E
:10B6D000032915D00068002812D12046FFF750FF3B
:10B6E00001218140C943074802F0AEF906480549E7
:10B6F000406900900C398DF80240496868468847D7
:10B7000038BD0000282C00205409030070B50E48F5
:10B7100004680460BFF36F8FBFF34F8F01260CE006
:10B7200094FAA4F0B0FA80F52846FDF745FD06FA34
:10B7300005F18C43294604F01DFF002CF0D1BDE833
:10B74000704004F06BBD00006C74024010B5054CF5
:10B75000A078FFF715FF0146A078BDE8104004F07F
:10B7600009BF00001C2C0020F8B51A4800681A4DCB
:10B77000C6B2A878FFF704FF012404FA00F1288973
:10B78000EA68C04380B21043014202D0A87804F0B6
:10B7900041FE06F08000A8700020FFF7F1FE04FAD9
:10B7A00000F68020FFF7ECFE04FA00F006430A489A
:10B7B000F1430C3002F048F98020FFF7E1FE8440AD
:10B7C000A86804430548AC60006A00906968684650
:10B7D0008847F8BD807402401C2C002054090300E7
:10B7E00038B5002000900F480068ADF802008820AE
:10B7F000FFF7C6FE012505FA00F40A486038006824
:10B8000040B1C10301D4401C04D00820FFF7B8FEAA
:10B8100085402C430449886820438860496868460D
:10B82000884738BD207502401C2C0020704700005E
:10B83000F8B518480568284602F0E0F8BFF36F8FA6
:10B84000BFF34F8F144E154CE80506D501206070EC
:10B85000706A0090616868468847A8054FF0000745
:10B8600005D56770B06A00906168684688476805CA
:10B870000ED5607800280BD0677009490120086058
:10B88000582002F0CDF8F06A009061686846884759
:10B89000F8BD000000740240540903001C2C002075
:10B8A00008750240054908B50020487088700448B2
:10B8B0004068009049686846884708BD1C2C0020F5
:10B8C000540903000368C3F84413002A02D0006837
:10B8D000C0F80413704700002DE9F84F0E463449B4
:10B8E000804601EB5001C007097801D00F0901E043
:10B8F00001F00F074FF00009424601204946FBF7CF
:10B900002EFEDFF8B0A004460D46052F4ED2DFE82C
:10B9100007F003161B282C00002E47D001214046BB
:10B9200004F05AF88DF800906846FDF791FB5046F8
:10B93000D0E904120C431543CAE9044532E00EB1C4
:10B94000022114E0002112E04EB10321404604F030
:10B9500043F84046BDE8F84F012104F009BF01213A
:10B9600005E0002E22D1042101E02EB10321404642
:10B97000BDE8F84F04F030B80021404604F02CF840
:10B980000021404604F0F4FE8DF800906846FDF773
:10B990005FFB5046E243D0E904341A4024EA050133
:10B9A000CAE904219DF80000FDF776FBBDE8F88F99
:10B9B0006C380020302C002010B5006842581AB1B5
:10B9C00001F013FD012010BD002010BD0AB100F0F0
:10B9D0003DBC00F025BC70B50D460446B0F814140B
:10B9E000D0F810040122FDF7D4FC00B1057004F179
:10B9F0003C0204F5826104F1540072DF70BD000066
:10BA00000C484A8843889A4213D10A88A2F52063D9
:10BA1000773B0ED18988C91E8AB2828006480749C1
:10BA20001346401AC008032101EB004004A101F0B5
:10BA300044BB7047342B0020AC1B0300241B0300C5
:10BA400044617461206C656E206973207365742095
:10BA5000746F2030782558282564290010B50949CD
:10BA6000094800F091FC08B1FCF7BCFB40210648F6
:10BA700000F07EFC002803D0BDE81040FCF7B2BB0C
:10BA800010BD000001BA0200C82E002010B50B48FE
:10BA9000FFF777FC094A083AD2E90434C018D2E922
:10BAA000063244F10001C31A71EB020204D24FF0D6
:10BAB0008072801841F1000110BD0000702C002040
:10BAC00010B5C0B2FEF7A2FC0446007802F016F9E9
:10BAD00001466078012801D0012000E0002090EAB2
:10BAE000010F08D00449D1E90401084303D1BDE89E
:10BAF000104004F0A9B810BD302C002001460348C6
:10BB000002888A4200D0002070470000B83400202C
:10BB10002DE9FC5F0E008346DDE90C47C6F100000D
:10BB200098469246814600D40846012503E000BFAE
:10BB300090FBFAF06D1C5045FADAA84500D945464D
:10BB400024B1002E01DB780700D5641EB80702D5AA
:10BB5000B8F1000F0AD0F80708D13CB1A54205D2D0
:10BB600020215846641EFEF72DFCF6E7002E02DA6F
:10BB70004E462D2102E0780703D52B215846FEF7CB
:10BB800021FC07F0030002280BD1B8F1000F08D107
:10BB90003CB1A54205D230215846641EFEF712FC86
:10BBA000F6E7CDE90047434652463146584604F091
:10BBB00003FABDE8FC9F000070B50D46044600681E
:10BBC0004FF4887101F080FE4FF49071206801F00D
:10BBD0007BFE4FF49271206801F076FE4FF4A27163
:10BBE000206801F071FE4FF4AC71206801F06CFE2A
:10BBF00020681249C0F804132068690740F3073031
:10BC0000090E002804DB00F1E02080F8001405E0B4
:10BC100000F00F0000F1E02080F8141D206840F3D0
:10BC20000730002809DB00F01F0201219140400984
:10BC3000800000F1E020C0F8001170BD1003420048
:10BC4000024600201268530713D502F003000128B2
:10BC500002D002280CD105E0C2F383100B68801CCF
:10BC6000184404E00223086803EB92521044086071
:10BC700001207047F0B58488A518944200D8224668
:10BC8000A41AC288D6189A4200D81346D21A4B88F2
:10BC90000788BB420CD34088834209D88888A042D9
:10BCA00006D3A84204D8C888904201D3B04201D933
:10BCB0000020F0BD0120F0BD0268134602E08A4278
:10BCC00004D01268002AFAD10B60016070470000AE
:10BCD0000A4810B5807860B1002401E0022C06D03B
:10BCE0002046FEF7F7F8641C042CF7D310BD03249C
:10BCF000F6E7BDE81040FEF711B90000602B002008
:10BD000003480179C90702D00078FEF729BA7047C5
:10BD1000602B0020F7210180172141800021017153
:10BD200041711B218171C171704770472DE9FF413D
:10BD30000026244800F097FA2248001F074600F02A
:10BD400092FA214C2149A06800900D6800E000980B
:10BD50006946284004EB80000C30FFF771FF002893
:10BD6000F5D101AA009901EA050304EB8303491CFC
:10BD7000DB6842F82030401C00910228F2D3019881
:10BD800000F0030001280BD0022810D101980321F4
:10BD900001EB90500099BDF80A6001EB900005E0BE
:10BDA0000198BDF80A60C0F383100844009038463B
:10BDB00000F056FA08B10098A06004B03046BDE823
:10BDC000F0810000D8400020C03C0020782D0020E9
:10BDD000ACB04FF48041002001F0E2F908B1FCF76B
:10BDE00001FA01F035F8FCF71FFA08B1FCF7FAF98F
:10BDF000654A01216548FCF707FA08B1FCF7F2F93A
:10BE00006248614A0121001DFCF7FEF908B1FCF708
:10BE1000E9F95F490120FEF759F908B1FCF7E2F9A9
:10BE2000FDF792F800F0C4FB08B1FCF7DBF95948C4
:10BE300059490325401AC00805EB004057A101F0FD
:10BE400031F952482C30FCF7CBFF08B1FCF7CAF9A6
:10BE50004E480830FCF71CFB08B1FCF7C3F901F0B1
:10BE600035FC08B1FCF7BEF90024694601200094B6
:10BE700001F0CCFA08B1FCF7B5F9684601F05EFBB9
:10BE800008B1FCF7AFF99DF808004CA120F00F00B5
:10BE9000401C20F0F00010308DF80800142202A899
:10BEA0007CDF08B1FCF79EF900941020ADF800008B
:10BEB0003C200194ADF80200ADF804404FF4C87086
:10BEC000ADF8060068467ADF08B1FCF78BF9FFF79A
:10BED000C5FD4048009069463F48FDF709FF08B19D
:10BEE000FCF780F9AC216846FBF765FB02208DF872
:10BEF00000008DF8024005208DF803003648012629
:10BF0000801F1490ADF84C604020229044F25060A5
:10BF100023908DF87C603148299069463048FDF7C0
:10BF20006EFA08B1FCF75EF901212D48FDF764FABD
:10BF30001C216846FBF73FFB4FF4A030CDE90040E1
:10BF40004FF4F02002908DF80C502648ADF80E40CA
:10BF50008DF81060CDE905406846FDF72FFC08B16B
:10BF6000FCF740F9FCF798F8FCF7B6FF07E000BFD4
:10BF7000FCF774FE0028FBD100F078FF41DF0028B9
:10BF8000F6D0FCF72FF9F3E7439E0200AC0803005C
:10BF900015A00200AC1B0300241B030055534244B0
:10BFA00020424C452055415254206578616D706C9B
:10BFB0006520737461727465642E00004E6F726444
:10BFC00069635F555342445F424C455F554152544B
:10BFD00000000000E1EB0200402B002079EC0200A1
:10BFE000DC2E002085B1020070B5144682880E4612
:10BFF00005462088111D0144921C994201D8FE2A51
:10C0000001D90C2070BD521C32542088FF21401CE5
:10C0100080B2208031542088401C80B22080811959
:10C02000288803F0C4FF2188084480B22080AA88B1
:10C0300042B1A96841B13044FBF7A4FA2088A9882D
:10C0400008442080002070BD072070BD2DE9F04716
:10C05000C5881E1DB6FBF5F78946B6FBF5F104460B
:10C0600005FB176C407916686843DDF820A0F718C7
:10C07000001F874200D9C61A166001E02468491ED5
:10C080000029FBD1A5EB0C078846B74216D818E06B
:10C0900004EB0C00001D09EB0803BAF1000F3A464F
:10C0A00002D00146184600E01946FBF76BFA2468F7
:10C0B000F61B4FF0000CB844B54201D9374600E0FA
:10C0C0002F46002EE4D1BDE8F087000030B50246CF
:10C0D00051B101F079F80021074C08E034F8213023
:10C0E0001568AB4202D11160002030BD491C81426D
:10C0F000F4D3052030BD000000000000F8B50F4665
:10C10000017814460546012901D1687830B12088AC
:10C11000821C9A4232D8012902D006E00720F8BDDD
:10C1200069780144891C994228D8181A801E86B261
:10C13000ADF800602188B81C084469467DDF0028FE
:10C14000EDD12978022904D06878BDF8002090420A
:10C1500005D3BDF80000B04201D809200AE008204C
:10C16000012905D16978B14202D8ADF8001001E08B
:10C17000ADF80060BDF80010FE2901D90C20F8BD13
:10C180002288491CB9542188491C89B221807854DD
:10C190002088401C2080BDF800100844208000202A
:10C1A000F8BD10B531B1B2FBF3F403FB14241CB19C
:10C1B000092010BD0E2010BD01600021416081608A
:10C1C0008281C381084610BD70B50C460546FBF759
:10C1D000ADF8002802D021882868084470BD10B549
:10C1E0000A8849888A4203D1FBF7E2F8012010BD92
:10C1F000002010BD70B50C460546FBF7BCF80028C2
:10C2000002D061882868084470BD10B50A88498842
:10C210008A4203D1FBF7A6F8012010BD002010BD13
:10C2200001F01F0301229A40D243490900EB81002B
:10C23000114600F021B84A0950F8220001F01F020F
:10C2400001219140084000D00120704701F01F03F8
:10C2500001229A40490900EB8100114600F01CB808
:10C26000002100F00FB8012100F016B808B56A46A9
:10C27000FBF7F3F8009808BD08B56A46FBF7D3F85A
:10C28000009808BD08B56A46FBF7CDF808BD08B5AB
:10C290006A46FBF7AFF808BD08B56A46FBF7B6F883
:10C2A000009808BD08B56A46FBF7E4F8009808BD99
:10C2B00008B56A46FBF700F9009808BD38B5044692
:10C2C00000258DF800506846FCF7C2FE21686268C0
:10C2D000086890420ED9401E08600178238AE268FF
:10C2E00001FB0325227A2168101AC0B20A79824222
:10C2F00000D208719DF80000FCF7CEFE284638BD3C
:10C3000038B5054600208DF800000C466846FCF75D
:10C310009FFEE868298A201AB0FBF1F12A681068AC
:10C32000431C136001709DF80000FCF7B5FE38BD9A
:10C3300010B530B1017A42680368891AC9B21A602F
:10C3400006E00E2010BD03681A68541C1C601170B2
:10C35000491EC9B2F7D2006800210171084610BD1C
:10C36000C20800F007030120895C9840084070472C
:10C3700028B1A1F11702E12A03D3072070470E204C
:10C38000704701800020704710B560B10161F7214E
:10C3900020F8021B20F8021B1B2100F8021BFFF7EC
:10C3A000B9FC002010BD0E2010BD0000F0B585883E
:10C3B00093B00C46002D39D1018800263F4F242927
:10C3C0003BD006DC102909D011290CD0232958D1E3
:10C3D0004FE03A290BD0552953D129E00146204698
:10C3E00002F0B8FC4DE0A01DFFF794FC49E02246A6
:10C3F000408934F8061F814200D80846608017281B
:10C4000000D217206080106970B1607960B1D7E9FF
:10C410000001CDE90301ADF80E506088ADF81000C1
:10C42000136903A9104698476671267113B0F0BDD1
:10C430000146204602F0E2FC23E0011D2C2206A862
:10C44000FBF7A0F8BDF81800BDF81C2004EBC001F4
:10C450004A732269AAB1D7E90423CDE90423ADF8D0
:10C460001200487B8DF814002269204604A99047E9
:10C4700007E0017A207B884200D201462846FEF779
:10C48000B9FEA07A0028D1D0E1882846A5DF012591
:10C4900080B11128CAD001F0F7F9024608480949CD
:10C4A00013B0401AC00805EB0040BDE8F04006A1FB
:10C4B00000F0FCBDA672E572B8E7000018090300A1
:10C4C000241B0300241B030073645F626C655F67B9
:10C4D000617474635F65786368616E67655F6D74CE
:10C4E000755F72657175657374282920726574753E
:10C4F000726E65642025732E0000000000F18040FC
:10C500000068002800D00120704708B500F1804085
:10C51000002101600068009008BD000038B50025CA
:10C520008DF800506846FCF793FD094C6068401E8A
:10C530006060606838B901F015F908B143DF01E0C7
:10C5400001F0AEFA65709DF80000FCF7A5FD38BD5E
:10C5500064350020F8B5154D04466878002648B1CA
:10C5600014B16168002088478DF800606846FCF7C8
:10C570006FFD13E08DF800606846FCF769FD24B19B
:10C580000A4821460830FFF797FB686830B901F088
:10C59000E9F808B142DF01E001F076FA6868401C72
:10C5A00068609DF80000FCF777FDF8BD6435002059
:10C5B00070B50D4C0125207808B185260EE00020CD
:10C5C000A06060602061E060084801F087FA0646DC
:10C5D00001F0C8F808B901F03DFA257001F02CFA15
:10C5E00000B1A570304670BD6435002079B00200FE
:10C5F00038B500258DF800506846FCF729FD084C39
:10C60000E068401EE060E06828B901F015FA10B952
:10C6100001F0A0FAA5709DF80000FCF73DFD38BDC3
:10C620006435002070B50A4D0446287808B185208D
:10C6300070BD01F097F808B1082070BD04B9054C31
:10C64000204601F0B1FB0028F7D10121297070BD0F
:10C65000E02B00204009030010B504464EDF0028FF
:10C6600005D120464DDF002801D120464FDF10BD07
:10C6700010B50446012802D101F004FC804701F006
:10C6800007FC01000DD0092C07D00A2C07D00B2C79
:10C6900007D10120BDE8104008470220FAE700203A
:10C6A000F8E710BD38B5002101281AD0032817D1AA
:10C6B0004FF0E020C02180F8001484300121C167D0
:10C6C00001F0E0FB4FF0804410B10420C4F80403F3
:10C6D00001F0DEFB002803D04FF46070C4F80403BF
:10C6E00038BD8DF800106846FCF7B2FC01F0CAFBBB
:10C6F00008B1012036DF9DF80000FCF7CDFC01F009
:10C70000C7FB0028ECD0BDE838400120FFF7A4BFEC
:10C7100038B5044600F01CF8204601F0CDFB01F0CE
:10C7200021F888B10120FFF797FF00280FD1684654
:10C7300050DF00280BD10098C00707D001F0A8FBFC
:10C7400001460020884701E001F0AFFB002038BD22
:10C7500008B500208DF800006846FCF779FC01F070
:10C7600001F818B10020FFF777FF01E001F096FB18
:10C770009DF80000FCF790FCBDE8084001F0A6BB66
:10C78000F0B505460478154889B0164640F82420CF
:10C79000124A08690832A2F10C0742F82400487FC7
:10C7A000385520226846FAF7EDFE04942878385C64
:10C7B00048B10EB10A4A00E000226946281D01F086
:10C7C000EFFC09B0F0BD0EB1064A00E00022694658
:10C7D00005F10C0001F0AEFBF3E70000E82B0020B0
:10C7E0006DFE0200B5FC02000FB408B503990029E4
:10C7F00004D004AA00926A4600F00FF801B05DF878
:10C8000014FB10B582680446002A05D0D4E904035D
:10C81000216898470020A06010BD2DE9FC47914693
:10C820000C00804676D014F8011B39B125290ED0B2
:10C830004046FDF7C7FD20780028F4D198F80C0099
:10C84000002867D04046BDE8FC47FFF7DABF00206C
:10C85000012221782B291BD02D2902D0302908D183
:10C8600002E040F0010001E040F00200641C002AF8
:10C87000EFD100252A290ED02178A1F130020A2A11
:10C8800011D205EB850201EB4205641C303DF1E756
:10C8900040F00400EAE7D9F800100B1DC9F8003099
:10C8A0000968641C0D44217800232E290BD114F84B
:10C8B000011FA1F130020A2A05D203EB830201EB2A
:10C8C0004203303BF3E76C290DD068290BD069296E
:10C8D00021D00BDC252918D0582931D063290ED05E
:10C8E000642915D117E014F8011FECE7702969D00D
:10C8F000732932D075291BD0782909D120E0D9F8C5
:10C900000000011DC9F8001001784046FDF75AFDEE
:10C91000641C90E76CE0D9F800100A1DC9F80020EB
:10C920000968CDE900500A224046FFF7F1F8EFE729
:10C93000D9F800100A1DC9F8002009680A2206E08B
:10C94000D9F800100A1DC9F8002009681022CDE9A5
:10C950000050404603F030FBDAE7D9F8001000271A
:10C960000A1DC9F800200E68C00705D112E0404634
:10C97000761C7F1CFDF726FD31780029F7D104E0F5
:10C98000202140466D1EFDF71DFDBD42C0D9002D82
:10C99000F6D1BDE74EB13046FAF718FE074604E07F
:10C9A000202140466D1EFDF70DFDBD4206D9002D2C
:10C9B000F6D103E04046761CFDF704FD31780029EE
:10C9C000F8D1A5E7D9F80000011DC9F800100568E5
:10C9D00030214046FDF7F6FC78214046FDF7F2FC99
:10C9E00008200021CDE90001034610222946B0E7C6
:10C9F000BDE8FC872DE9FF411C46DDE90A781546B4
:10CA00000E46684600F0C2F846EA450141EA840154
:10CA100041EA072242EA0841009A00EB8200C0F88E
:10CA20000017BDE8FF812DE9FF411C46DDE90A78CA
:10CA300015460E46684600F0B7F846EA450141EA59
:10CA4000840141EA072242EA0841009A00EB820091
:10CA5000C0F80017BDE8FF812DE9FF411C46DDE964
:10CA60000A7815460E46684600F0ACF846EA4501DD
:10CA700041EA840141EA072242EA0841009A00EBB8
:10CA80008200C0F80017BDE8FF812DE9FF411C4678
:10CA9000DDE90A7815460E46684600F0A1F846EA38
:10CAA000450141EA840141EA072242EA0841009A2D
:10CAB00000EB8200C0F80017BDE8FF811CB5002123
:10CAC00000910B4601220191FFF7C6FF1CBD1CB56A
:10CAD000002100910B4601220191FFF7D6FF1CBDFA
